{
  "transactions": [
    {
      "hash": "0xe6a9e427b9bbcebf0700b58ab7ebeef56f8f0d5f2b64de9f5148427571689020",
      "transactionType": "CALL",
      "contractName": null,
      "contractAddress": "0x86a11c76c4762747d7081e683660d6f572d62c14",
      "function": "setBaseURI(string)",
      "arguments": [
        "ipfs://bafybeid77sbbcgcvvywesrhos6thrqnl7ty6l47xdfnft7crop3bovqjo4/"
      ],
      "transaction": {
        "from": "0x26154579219a6f1238c3b30d78c7a58fd2eb3482",
        "to": "0x86a11c76c4762747d7081e683660d6f572d62c14",
        "gas": "0xeb0b",
        "value": "0x0",
        "input": "0x55f804b300000000000000000000000000000000000000000000000000000000000000200000000000000000000000000000000000000000000000000000000000000043697066733a2f2f6261667962656964373773626263676376767977657372686f7336746872716e6c377479366c34377864666e66743763726f7033626f76716a6f342f0000000000000000000000000000000000000000000000000000000000",
        "nonce": "0xd0",
        "chainId": "0xaa36a7"
      },
      "additionalContracts": [],
      "isFixedGasLimit": false
    }
  ],
  "receipts": [
    {
      "status": "0x1",
      "cumulativeGasUsed": "0x1bdf50b",
      "logs": [],
      "logsBloom": "0x00000000000000000000000000000000000000000000000000000000000000000000000000000000000000000000000000000000000000000000000000000000000000000000000000000000000000000000000000000000000000000000000000000000000000000000000000000000000000000000000000000000000000000000000000000000000000000000000000000000000000000000000000000000000000000000000000000000000000000000000000000000000000000000000000000000000000000000000000000000000000000000000000000000000000000000000000000000000000000000000000000000000000000000000000000000",
      "type": "0x2",
      "transactionHash": "0xe6a9e427b9bbcebf0700b58ab7ebeef56f8f0d5f2b64de9f5148427571689020",
      "transactionIndex": "0x58",
      "blockHash": "0x7b5345cc34a5a2d89525412a0efcfc56a08e1351af39a3084d81be69213c893d",
      "blockNumber": "0x9645f8",
      "gasUsed": "0xaa2c",
      "effectiveGasPrice": "0xbd86342f",
      "from": "0x26154579219a6f1238c3b30d78c7a58fd2eb3482",
      "to": "0x86a11c76c4762747d7081e683660d6f572d62c14",
      "contractAddress": null
    }
  ],
  "libraries": [],
  "pending": [],
  "returns": {},
  "timestamp": 1765831526075,
  "chain": 11155111,
  "commit": "b20a8cc"
}