{
  "transactions": [
    {
      "hash": "0xf9e1eccb9e84b24ecbdeee7c5c73236112111032949030f05fe726050308118c",
      "transactionType": "CALL",
      "contractName": null,
      "contractAddress": "0x39c7a11a1e4370196ea95f6dd0e583a8dd1e6c0e",
      "function": "setBaseURI(string)",
      "arguments": [
        "ipfs://bafybeiadq6mvnybqukltdtibnlh4dts3b7vu4vpennak7bius6mq5g32rm/"
      ],
      "transaction": {
        "from": "0x26154579219a6f1238c3b30d78c7a58fd2eb3482",
        "to": "0x39c7a11a1e4370196ea95f6dd0e583a8dd1e6c0e",
        "gas": "0xbdb9",
        "value": "0x0",
        "input": "0x55f804b300000000000000000000000000000000000000000000000000000000000000200000000000000000000000000000000000000000000000000000000000000043697066733a2f2f62616679626569616471366d766e796271756b6c74647469626e6c68346474733362377675347670656e6e616b3762697573366d7135673332726d2f0000000000000000000000000000000000000000000000000000000000",
        "nonce": "0xc4",
        "chainId": "0xaa36a7"
      },
      "additionalContracts": [],
      "isFixedGasLimit": false
    }
  ],
  "receipts": [
    {
      "status": "0x1",
      "cumulativeGasUsed": "0x1808b56",
      "logs": [],
      "logsBloom": "0x00000000000000000000000000000000000000000000000000000000000000000000000000000000000000000000000000000000000000000000000000000000000000000000000000000000000000000000000000000000000000000000000000000000000000000000000000000000000000000000000000000000000000000000000000000000000000000000000000000000000000000000000000000000000000000000000000000000000000000000000000000000000000000000000000000000000000000000000000000000000000000000000000000000000000000000000000000000000000000000000000000000000000000000000000000000",
      "type": "0x2",
      "transactionHash": "0xf9e1eccb9e84b24ecbdeee7c5c73236112111032949030f05fe726050308118c",
      "transactionIndex": "0x3c",
      "blockHash": "0x51c8f2a3ad35fafc103122fb5fb5058adbd1548a9662f017afecbbc1c943f203",
      "blockNumber": "0x964547",
      "gasUsed": "0x895c",
      "effectiveGasPrice": "0x5374dda0",
      "from": "0x26154579219a6f1238c3b30d78c7a58fd2eb3482",
      "to": "0x39c7a11a1e4370196ea95f6dd0e583a8dd1e6c0e",
      "contractAddress": null
    }
  ],
  "libraries": [],
  "pending": [],
  "returns": {},
  "timestamp": 1765829401185,
  "chain": 11155111,
  "commit": "b20a8cc"
}