{
  "transactions": [
    {
      "hash": "0x48357c2532a9c830d79613ba660546f7d62744528362e6e803d3e1a78c82539a",
      "transactionType": "CALL",
      "contractName": null,
      "contractAddress": "0x39c7a11a1e4370196ea95f6dd0e583a8dd1e6c0e",
      "function": "setBaseURI(string)",
      "arguments": [
        "ipfs://bafybeiadq6mvnybqukltdtibnlh4dts3b7vu4vpennak7bius6mq5g32rm/"
      ],
      "transaction": {
        "from": "0x26154579219a6f1238c3b30d78c7a58fd2eb3482",
        "to": "0x39c7a11a1e4370196ea95f6dd0e583a8dd1e6c0e",
        "gas": "0x28ed8",
        "value": "0x0",
        "input": "0x55f804b300000000000000000000000000000000000000000000000000000000000000200000000000000000000000000000000000000000000000000000000000000043697066733a2f2f62616679626569616471366d766e796271756b6c74647469626e6c68346474733362377675347670656e6e616b3762697573366d7135673332726d2f0000000000000000000000000000000000000000000000000000000000",
        "nonce": "0xb1",
        "chainId": "0xaa36a7"
      },
      "additionalContracts": [],
      "isFixedGasLimit": false
    }
  ],
  "receipts": [
    {
      "status": "0x1",
      "cumulativeGasUsed": "0x133fb7f",
      "logs": [],
      "logsBloom": "0x00000000000000000000000000000000000000000000000000000000000000000000000000000000000000000000000000000000000000000000000000000000000000000000000000000000000000000000000000000000000000000000000000000000000000000000000000000000000000000000000000000000000000000000000000000000000000000000000000000000000000000000000000000000000000000000000000000000000000000000000000000000000000000000000000000000000000000000000000000000000000000000000000000000000000000000000000000000000000000000000000000000000000000000000000000000",
      "type": "0x2",
      "transactionHash": "0x48357c2532a9c830d79613ba660546f7d62744528362e6e803d3e1a78c82539a",
      "transactionIndex": "0x59",
      "blockHash": "0xa3c65dbf90b3b3d7ac235ad30e3edf3efc4abebf53b6db3fb0243dcfce230537",
      "blockNumber": "0x9643dd",
      "gasUsed": "0x1bfc2",
      "effectiveGasPrice": "0x9b015b55",
      "from": "0x26154579219a6f1238c3b30d78c7a58fd2eb3482",
      "to": "0x39c7a11a1e4370196ea95f6dd0e583a8dd1e6c0e",
      "contractAddress": null
    }
  ],
  "libraries": [],
  "pending": [],
  "returns": {},
  "timestamp": 1765825033102,
  "chain": 11155111,
  "commit": "b20a8cc"
}