{
  "transactions": [
    {
      "hash": "0x3e8519e0292f49b74e131e4dc15d712bbde74b67192ad8cb5a98e5329b3e7c70",
      "transactionType": "CALL",
      "contractName": null,
      "contractAddress": "0x86a11c76c4762747d7081e683660d6f572d62c14",
      "function": "setBaseURI(string)",
      "arguments": [
        "ipfs://bafybeihnjn7weqlfv5xmtyb6ysvq7cghp64fieb7nt6it652mi5t6lw3iy/"
      ],
      "transaction": {
        "from": "0x26154579219a6f1238c3b30d78c7a58fd2eb3482",
        "to": "0x86a11c76c4762747d7081e683660d6f572d62c14",
        "gas": "0xeb0b",
        "value": "0x0",
        "input": "0x55f804b300000000000000000000000000000000000000000000000000000000000000200000000000000000000000000000000000000000000000000000000000000043697066733a2f2f62616679626569686e6a6e377765716c667635786d74796236797376713763676870363466696562376e743669743635326d693574366c773369792f0000000000000000000000000000000000000000000000000000000000",
        "nonce": "0xe4",
        "chainId": "0xaa36a7"
      },
      "additionalContracts": [],
      "isFixedGasLimit": false
    }
  ],
  "receipts": [
    {
      "status": "0x1",
      "cumulativeGasUsed": "0xe3367b",
      "logs": [],
      "logsBloom": "0x00000000000000000000000000000000000000000000000000000000000000000000000000000000000000000000000000000000000000000000000000000000000000000000000000000000000000000000000000000000000000000000000000000000000000000000000000000000000000000000000000000000000000000000000000000000000000000000000000000000000000000000000000000000000000000000000000000000000000000000000000000000000000000000000000000000000000000000000000000000000000000000000000000000000000000000000000000000000000000000000000000000000000000000000000000000",
      "type": "0x2",
      "transactionHash": "0x3e8519e0292f49b74e131e4dc15d712bbde74b67192ad8cb5a98e5329b3e7c70",
      "transactionIndex": "0x38",
      "blockHash": "0x7c37a99a2e1155d6688d84d4781a024c53ff4254e17b8aa8a1e694afb5982584",
      "blockNumber": "0x966673",
      "gasUsed": "0xaa2c",
      "effectiveGasPrice": "0x143545",
      "from": "0x26154579219a6f1238c3b30d78c7a58fd2eb3482",
      "to": "0x86a11c76c4762747d7081e683660d6f572d62c14",
      "contractAddress": null
    }
  ],
  "libraries": [],
  "pending": [],
  "returns": {},
  "timestamp": 1765933896820,
  "chain": 11155111,
  "commit": "cb6326f"
}