{
  "transactions": [
    {
      "hash": "0x0bce53dbb51ffb012d6bb2a82ab6b334cc8a919f046dffc46c307834d497a192",
      "transactionType": "CALL",
      "contractName": null,
      "contractAddress": "0xfe29e1d88c9116277deb53e27e8ed9daba61f9a3",
      "function": "setBaseURI(string)",
      "arguments": [
        "ipfs://bafybeih6hlzrqxscloun5prrasrbp326yzvjr3kqdq2v6lk2zfzms6a2sm/"
      ],
      "transaction": {
        "from": "0x26154579219a6f1238c3b30d78c7a58fd2eb3482",
        "to": "0xfe29e1d88c9116277deb53e27e8ed9daba61f9a3",
        "gas": "0x28ed8",
        "value": "0x0",
        "input": "0x55f804b300000000000000000000000000000000000000000000000000000000000000200000000000000000000000000000000000000000000000000000000000000043697066733a2f2f626166796265696836686c7a72717873636c6f756e357072726173726270333236797a766a72336b7164713276366c6b327a667a6d73366132736d2f0000000000000000000000000000000000000000000000000000000000",
        "nonce": "0x11b",
        "chainId": "0xaa36a7"
      },
      "additionalContracts": [],
      "isFixedGasLimit": false
    }
  ],
  "receipts": [
    {
      "status": "0x1",
      "cumulativeGasUsed": "0xafff46",
      "logs": [],
      "logsBloom": "0x00000000000000000000000000000000000000000000000000000000000000000000000000000000000000000000000000000000000000000000000000000000000000000000000000000000000000000000000000000000000000000000000000000000000000000000000000000000000000000000000000000000000000000000000000000000000000000000000000000000000000000000000000000000000000000000000000000000000000000000000000000000000000000000000000000000000000000000000000000000000000000000000000000000000000000000000000000000000000000000000000000000000000000000000000000000",
      "type": "0x2",
      "transactionHash": "0x0bce53dbb51ffb012d6bb2a82ab6b334cc8a919f046dffc46c307834d497a192",
      "transactionIndex": "0x54",
      "blockHash": "0x442eb7b70996d625138422869f1c5c2386fac12d61dd82ec26a57f434c2b9fb0",
      "blockNumber": "0x986375",
      "gasUsed": "0x1bfc2",
      "effectiveGasPrice": "0xf5bb4",
      "from": "0x26154579219a6f1238c3b30d78c7a58fd2eb3482",
      "to": "0xfe29e1d88c9116277deb53e27e8ed9daba61f9a3",
      "contractAddress": null
    }
  ],
  "libraries": [],
  "pending": [],
  "returns": {},
  "timestamp": 1767658501515,
  "chain": 11155111,
  "commit": "ad2c4d6"
}