{
  "transactions": [
    {
      "hash": "0x6be99677f4e23f367540eedc00374e386e17676b98f6c3e17efcd9b5726a0303",
      "transactionType": "CALL",
      "contractName": null,
      "contractAddress": "0x86a11c76c4762747d7081e683660d6f572d62c14",
      "function": "setBaseURI(string)",
      "arguments": [
        "ipfs://bafybeibd3gtkqec3leqhic4z2rwri6qqunrpqit3w6dn6bdckhtqpud2d4/"
      ],
      "transaction": {
        "from": "0x26154579219a6f1238c3b30d78c7a58fd2eb3482",
        "to": "0x86a11c76c4762747d7081e683660d6f572d62c14",
        "gas": "0xeb0b",
        "value": "0x0",
        "input": "0x55f804b300000000000000000000000000000000000000000000000000000000000000200000000000000000000000000000000000000000000000000000000000000043697066733a2f2f6261667962656962643367746b716563336c6571686963347a3272777269367171756e7270716974337736646e366264636b6874717075643264342f0000000000000000000000000000000000000000000000000000000000",
        "nonce": "0xd2",
        "chainId": "0xaa36a7"
      },
      "additionalContracts": [],
      "isFixedGasLimit": false
    }
  ],
  "receipts": [
    {
      "status": "0x1",
      "cumulativeGasUsed": "0x810ae9",
      "logs": [],
      "logsBloom": "0x00000000000000000000000000000000000000000000000000000000000000000000000000000000000000000000000000000000000000000000000000000000000000000000000000000000000000000000000000000000000000000000000000000000000000000000000000000000000000000000000000000000000000000000000000000000000000000000000000000000000000000000000000000000000000000000000000000000000000000000000000000000000000000000000000000000000000000000000000000000000000000000000000000000000000000000000000000000000000000000000000000000000000000000000000000000",
      "type": "0x2",
      "transactionHash": "0x6be99677f4e23f367540eedc00374e386e17676b98f6c3e17efcd9b5726a0303",
      "transactionIndex": "0x1a",
      "blockHash": "0x36ecc0853128982b1ad06c761f5e30ae6436b193cb31e732cd58936599753744",
      "blockNumber": "0x964633",
      "gasUsed": "0xaa2c",
      "effectiveGasPrice": "0x13991e1f4",
      "from": "0x26154579219a6f1238c3b30d78c7a58fd2eb3482",
      "to": "0x86a11c76c4762747d7081e683660d6f572d62c14",
      "contractAddress": null
    }
  ],
  "libraries": [],
  "pending": [],
  "returns": {},
  "timestamp": 1765832232587,
  "chain": 11155111,
  "commit": "b20a8cc"
}