{
  "transactions": [
    {
      "hash": "0xb7fb2288ab9aa15522c19715c8546a493791fa9e7cea3eb3cf8327f33cf0a553",
      "transactionType": "CALL",
      "contractName": null,
      "contractAddress": "0x86a11c76c4762747d7081e683660d6f572d62c14",
      "function": "setBaseURI(string)",
      "arguments": [
        "ipfs://bafybeiadq6mvnybqukltdtibnlh4dts3b7vu4vpennak7bius6mq5g32rm/"
      ],
      "transaction": {
        "from": "0x26154579219a6f1238c3b30d78c7a58fd2eb3482",
        "to": "0x86a11c76c4762747d7081e683660d6f572d62c14",
        "gas": "0x28ed8",
        "value": "0x0",
        "input": "0x55f804b300000000000000000000000000000000000000000000000000000000000000200000000000000000000000000000000000000000000000000000000000000043697066733a2f2f62616679626569616471366d766e796271756b6c74647469626e6c68346474733362377675347670656e6e616b3762697573366d7135673332726d2f0000000000000000000000000000000000000000000000000000000000",
        "nonce": "0xc7",
        "chainId": "0xaa36a7"
      },
      "additionalContracts": [],
      "isFixedGasLimit": false
    }
  ],
  "receipts": [
    {
      "status": "0x1",
      "cumulativeGasUsed": "0x1b06154",
      "logs": [],
      "logsBloom": "0x00000000000000000000000000000000000000000000000000000000000000000000000000000000000000000000000000000000000000000000000000000000000000000000000000000000000000000000000000000000000000000000000000000000000000000000000000000000000000000000000000000000000000000000000000000000000000000000000000000000000000000000000000000000000000000000000000000000000000000000000000000000000000000000000000000000000000000000000000000000000000000000000000000000000000000000000000000000000000000000000000000000000000000000000000000000",
      "type": "0x2",
      "transactionHash": "0xb7fb2288ab9aa15522c19715c8546a493791fa9e7cea3eb3cf8327f33cf0a553",
      "transactionIndex": "0x72",
      "blockHash": "0xf62210319c55adcba674c9425600f48ad3820e7f349a4644e56ad3ed21c29afc",
      "blockNumber": "0x96455c",
      "gasUsed": "0x1bfc2",
      "effectiveGasPrice": "0x90f0bb96",
      "from": "0x26154579219a6f1238c3b30d78c7a58fd2eb3482",
      "to": "0x86a11c76c4762747d7081e683660d6f572d62c14",
      "contractAddress": null
    }
  ],
  "libraries": [],
  "pending": [],
  "returns": {},
  "timestamp": 1765829652743,
  "chain": 11155111,
  "commit": "b20a8cc"
}