{
  "transactions": [
    {
      "hash": "0xe6602ee646a3fe8c6d1421a5c000b906e8703041384f32a43444b2e758a27f53",
      "transactionType": "CALL",
      "contractName": null,
      "contractAddress": "0x021935b654b3626b70eaa75bdaf02e90e30bfe55",
      "function": "configurePackType(uint8,uint256,uint8,uint8[])",
      "arguments": [
        "0",
        "1000000000000000",
        "3",
        "[70, 20, 8, 2, 0]"
      ],
      "transaction": {
        "from": "0x26154579219a6f1238c3b30d78c7a58fd2eb3482",
        "to": "0x021935b654b3626b70eaa75bdaf02e90e30bfe55",
        "gas": "0x2e6bb",
        "value": "0x0",
        "input": "0x0ffbd9e4000000000000000000000000000000000000000000000000000000000000000000000000000000000000000000000000000000000000000000038d7ea4c6800000000000000000000000000000000000000000000000000000000000000000030000000000000000000000000000000000000000000000000000000000000080000000000000000000000000000000000000000000000000000000000000000500000000000000000000000000000000000000000000000000000000000000460000000000000000000000000000000000000000000000000000000000000014000000000000000000000000000000000000000000000000000000000000000800000000000000000000000000000000000000000000000000000000000000020000000000000000000000000000000000000000000000000000000000000000",
        "nonce": "0xbc",
        "chainId": "0xaa36a7"
      },
      "additionalContracts": [],
      "isFixedGasLimit": false
    },
    {
      "hash": "0x70f3cf4a621fbe7bdce0bca811bac4e7bd1f18a87b3984db2bbe7051f72000bc",
      "transactionType": "CALL",
      "contractName": null,
      "contractAddress": "0x021935b654b3626b70eaa75bdaf02e90e30bfe55",
      "function": "configurePackType(uint8,uint256,uint8,uint8[])",
      "arguments": [
        "1",
        "5000000000000000",
        "5",
        "[50, 30, 15, 4, 1]"
      ],
      "transaction": {
        "from": "0x26154579219a6f1238c3b30d78c7a58fd2eb3482",
        "to": "0x021935b654b3626b70eaa75bdaf02e90e30bfe55",
        "gas": "0x2e6de",
        "value": "0x0",
        "input": "0x0ffbd9e400000000000000000000000000000000000000000000000000000000000000010000000000000000000000000000000000000000000000000011c37937e080000000000000000000000000000000000000000000000000000000000000000005000000000000000000000000000000000000000000000000000000000000008000000000000000000000000000000000000000000000000000000000000000050000000000000000000000000000000000000000000000000000000000000032000000000000000000000000000000000000000000000000000000000000001e000000000000000000000000000000000000000000000000000000000000000f00000000000000000000000000000000000000000000000000000000000000040000000000000000000000000000000000000000000000000000000000000001",
        "nonce": "0xbd",
        "chainId": "0xaa36a7"
      },
      "additionalContracts": [],
      "isFixedGasLimit": false
    },
    {
      "hash": "0x2e967e7abba90572ba54143a6b66c97f564475a9c889686f013cbf53df225cce",
      "transactionType": "CALL",
      "contractName": null,
      "contractAddress": "0x021935b654b3626b70eaa75bdaf02e90e30bfe55",
      "function": "configurePackType(uint8,uint256,uint8,uint8[])",
      "arguments": [
        "2",
        "10000000000000000",
        "5",
        "[40, 30, 20, 8, 2]"
      ],
      "transaction": {
        "from": "0x26154579219a6f1238c3b30d78c7a58fd2eb3482",
        "to": "0x021935b654b3626b70eaa75bdaf02e90e30bfe55",
        "gas": "0x2bd88",
        "value": "0x0",
        "input": "0x0ffbd9e40000000000000000000000000000000000000000000000000000000000000002000000000000000000000000000000000000000000000000002386f26fc100000000000000000000000000000000000000000000000000000000000000000005000000000000000000000000000000000000000000000000000000000000008000000000000000000000000000000000000000000000000000000000000000050000000000000000000000000000000000000000000000000000000000000028000000000000000000000000000000000000000000000000000000000000001e000000000000000000000000000000000000000000000000000000000000001400000000000000000000000000000000000000000000000000000000000000080000000000000000000000000000000000000000000000000000000000000002",
        "nonce": "0xbe",
        "chainId": "0xaa36a7"
      },
      "additionalContracts": [],
      "isFixedGasLimit": false
    },
    {
      "hash": "0x4dd1622bae53e4da84aee702226eb044fafb2152d5f3b40707fecd933c495603",
      "transactionType": "CALL",
      "contractName": null,
      "contractAddress": "0x021935b654b3626b70eaa75bdaf02e90e30bfe55",
      "function": "addPlayersToPool(uint8,uint256[])",
      "arguments": [
        "0",
        "[1, 2, 3, 4, 5, 6, 7, 8, 9, 10, 11, 12, 13, 14, 15, 16, 17, 18, 19, 20]"
      ],
      "transaction": {
        "from": "0x26154579219a6f1238c3b30d78c7a58fd2eb3482",
        "to": "0x021935b654b3626b70eaa75bdaf02e90e30bfe55",
        "gas": "0xa961f",
        "value": "0x0",
        "input": "0x12c6413d000000000000000000000000000000000000000000000000000000000000000000000000000000000000000000000000000000000000000000000000000000400000000000000000000000000000000000000000000000000000000000000014000000000000000000000000000000000000000000000000000000000000000100000000000000000000000000000000000000000000000000000000000000020000000000000000000000000000000000000000000000000000000000000003000000000000000000000000000000000000000000000000000000000000000400000000000000000000000000000000000000000000000000000000000000050000000000000000000000000000000000000000000000000000000000000006000000000000000000000000000000000000000000000000000000000000000700000000000000000000000000000000000000000000000000000000000000080000000000000000000000000000000000000000000000000000000000000009000000000000000000000000000000000000000000000000000000000000000a000000000000000000000000000000000000000000000000000000000000000b000000000000000000000000000000000000000000000000000000000000000c000000000000000000000000000000000000000000000000000000000000000d000000000000000000000000000000000000000000000000000000000000000e000000000000000000000000000000000000000000000000000000000000000f00000000000000000000000000000000000000000000000000000000000000100000000000000000000000000000000000000000000000000000000000000011000000000000000000000000000000000000000000000000000000000000001200000000000000000000000000000000000000000000000000000000000000130000000000000000000000000000000000000000000000000000000000000014",
        "nonce": "0xbf",
        "chainId": "0xaa36a7"
      },
      "additionalContracts": [],
      "isFixedGasLimit": false
    },
    {
      "hash": "0xba8322e044b094df98591968cf621f984ef43e9d689bc1c64508aee53583a07c",
      "transactionType": "CALL",
      "contractName": null,
      "contractAddress": "0x021935b654b3626b70eaa75bdaf02e90e30bfe55",
      "function": "addPlayersToPool(uint8,uint256[])",
      "arguments": [
        "1",
        "[21, 22, 23, 24, 25, 26, 27, 28, 29, 30, 31, 32, 33, 34, 35]"
      ],
      "transaction": {
        "from": "0x26154579219a6f1238c3b30d78c7a58fd2eb3482",
        "to": "0x021935b654b3626b70eaa75bdaf02e90e30bfe55",
        "gas": "0x8acdb",
        "value": "0x0",
        "input": "0x12c6413d00000000000000000000000000000000000000000000000000000000000000010000000000000000000000000000000000000000000000000000000000000040000000000000000000000000000000000000000000000000000000000000000f00000000000000000000000000000000000000000000000000000000000000150000000000000000000000000000000000000000000000000000000000000016000000000000000000000000000000000000000000000000000000000000001700000000000000000000000000000000000000000000000000000000000000180000000000000000000000000000000000000000000000000000000000000019000000000000000000000000000000000000000000000000000000000000001a000000000000000000000000000000000000000000000000000000000000001b000000000000000000000000000000000000000000000000000000000000001c000000000000000000000000000000000000000000000000000000000000001d000000000000000000000000000000000000000000000000000000000000001e000000000000000000000000000000000000000000000000000000000000001f0000000000000000000000000000000000000000000000000000000000000020000000000000000000000000000000000000000000000000000000000000002100000000000000000000000000000000000000000000000000000000000000220000000000000000000000000000000000000000000000000000000000000023",
        "nonce": "0xc0",
        "chainId": "0xaa36a7"
      },
      "additionalContracts": [],
      "isFixedGasLimit": false
    },
    {
      "hash": "0xe64ed1238e0d8d27055da4da6757a560717ea65da2be0dce43c4733d5ea55bcb",
      "transactionType": "CALL",
      "contractName": null,
      "contractAddress": "0x021935b654b3626b70eaa75bdaf02e90e30bfe55",
      "function": "addPlayersToPool(uint8,uint256[])",
      "arguments": [
        "2",
        "[36, 37, 38, 39, 40, 41, 42, 43, 44, 45]"
      ],
      "transaction": {
        "from": "0x26154579219a6f1238c3b30d78c7a58fd2eb3482",
        "to": "0x021935b654b3626b70eaa75bdaf02e90e30bfe55",
        "gas": "0x62419",
        "value": "0x0",
        "input": "0x12c6413d00000000000000000000000000000000000000000000000000000000000000020000000000000000000000000000000000000000000000000000000000000040000000000000000000000000000000000000000000000000000000000000000a000000000000000000000000000000000000000000000000000000000000002400000000000000000000000000000000000000000000000000000000000000250000000000000000000000000000000000000000000000000000000000000026000000000000000000000000000000000000000000000000000000000000002700000000000000000000000000000000000000000000000000000000000000280000000000000000000000000000000000000000000000000000000000000029000000000000000000000000000000000000000000000000000000000000002a000000000000000000000000000000000000000000000000000000000000002b000000000000000000000000000000000000000000000000000000000000002c000000000000000000000000000000000000000000000000000000000000002d",
        "nonce": "0xc1",
        "chainId": "0xaa36a7"
      },
      "additionalContracts": [],
      "isFixedGasLimit": false
    },
    {
      "hash": "0xb172bec459c4cf16220c605152fed4437c5ece1baf374a6314526fcb8a24b211",
      "transactionType": "CALL",
      "contractName": null,
      "contractAddress": "0x021935b654b3626b70eaa75bdaf02e90e30bfe55",
      "function": "addPlayersToPool(uint8,uint256[])",
      "arguments": [
        "3",
        "[46, 47, 48, 49, 50]"
      ],
      "transaction": {
        "from": "0x26154579219a6f1238c3b30d78c7a58fd2eb3482",
        "to": "0x021935b654b3626b70eaa75bdaf02e90e30bfe55",
        "gas": "0x39b58",
        "value": "0x0",
        "input": "0x12c6413d000000000000000000000000000000000000000000000000000000000000000300000000000000000000000000000000000000000000000000000000000000400000000000000000000000000000000000000000000000000000000000000005000000000000000000000000000000000000000000000000000000000000002e000000000000000000000000000000000000000000000000000000000000002f000000000000000000000000000000000000000000000000000000000000003000000000000000000000000000000000000000000000000000000000000000310000000000000000000000000000000000000000000000000000000000000032",
        "nonce": "0xc2",
        "chainId": "0xaa36a7"
      },
      "additionalContracts": [],
      "isFixedGasLimit": false
    },
    {
      "hash": "0x622503352c7199b67066aee2b020d482d41b3bc4d420b0089bf6cdba81e26ce8",
      "transactionType": "CALL",
      "contractName": null,
      "contractAddress": "0x021935b654b3626b70eaa75bdaf02e90e30bfe55",
      "function": "addPlayersToPool(uint8,uint256[])",
      "arguments": [
        "4",
        "[51, 52]"
      ],
      "transaction": {
        "from": "0x26154579219a6f1238c3b30d78c7a58fd2eb3482",
        "to": "0x021935b654b3626b70eaa75bdaf02e90e30bfe55",
        "gas": "0x21617",
        "value": "0x0",
        "input": "0x12c6413d00000000000000000000000000000000000000000000000000000000000000040000000000000000000000000000000000000000000000000000000000000040000000000000000000000000000000000000000000000000000000000000000200000000000000000000000000000000000000000000000000000000000000330000000000000000000000000000000000000000000000000000000000000034",
        "nonce": "0xc3",
        "chainId": "0xaa36a7"
      },
      "additionalContracts": [],
      "isFixedGasLimit": false
    }
  ],
  "receipts": [
    {
      "status": "0x1",
      "cumulativeGasUsed": "0x1618eff",
      "logs": [
        {
          "address": "0x021935b654b3626b70eaa75bdaf02e90e30bfe55",
          "topics": [
            "0x286b0085c46d7108cc7031149112e275872b38da3414f74d22f8a7a2e547027b",
            "0x0000000000000000000000000000000000000000000000000000000000000000"
          ],
          "data": "0x00000000000000000000000000000000000000000000000000038d7ea4c680000000000000000000000000000000000000000000000000000000000000000003",
          "blockHash": "0x67ec5545709b836ae969389ba99e38e5d1a11d042e6e3782bf21c77d09f2db69",
          "blockNumber": "0x964487",
          "blockTimestamp": "0x6940620c",
          "transactionHash": "0x622503352c7199b67066aee2b020d482d41b3bc4d420b0089bf6cdba81e26ce8",
          "transactionIndex": "0x52",
          "logIndex": "0x332",
          "removed": false
        }
      ],
      "logsBloom": "0x00000000000000000000000000000000000000000000000000000000000000000000000000000200000000000000000000000000000000000000000000000000000000000000000000000000000000000800000000000000000000000000400000000000020000000000000000000800000000000000000000000000000000000000000000000000000000000000000000000000000000000000000000000000000000000000000000800000000000000000000000000000000000000000000000000000000000000000000000000000000000000000000000000000000021000000000800000000000000000000000000000000000000000000000000000000",
      "type": "0x2",
      "transactionHash": "0x622503352c7199b67066aee2b020d482d41b3bc4d420b0089bf6cdba81e26ce8",
      "transactionIndex": "0x52",
      "blockHash": "0x67ec5545709b836ae969389ba99e38e5d1a11d042e6e3782bf21c77d09f2db69",
      "blockNumber": "0x964487",
      "gasUsed": "0x1fbda",
      "effectiveGasPrice": "0x609c4a93",
      "from": "0x26154579219a6f1238c3b30d78c7a58fd2eb3482",
      "to": "0x021935b654b3626b70eaa75bdaf02e90e30bfe55",
      "contractAddress": null
    },
    {
      "status": "0x1",
      "cumulativeGasUsed": "0x1638af1",
      "logs": [
        {
          "address": "0x021935b654b3626b70eaa75bdaf02e90e30bfe55",
          "topics": [
            "0x286b0085c46d7108cc7031149112e275872b38da3414f74d22f8a7a2e547027b",
            "0x0000000000000000000000000000000000000000000000000000000000000001"
          ],
          "data": "0x0000000000000000000000000000000000000000000000000011c37937e080000000000000000000000000000000000000000000000000000000000000000005",
          "blockHash": "0x67ec5545709b836ae969389ba99e38e5d1a11d042e6e3782bf21c77d09f2db69",
          "blockNumber": "0x964487",
          "blockTimestamp": "0x6940620c",
          "transactionHash": "0x4dd1622bae53e4da84aee702226eb044fafb2152d5f3b40707fecd933c495603",
          "transactionIndex": "0x53",
          "logIndex": "0x333",
          "removed": false
        }
      ],
      "logsBloom": "0x00000000000000000000000000000000000000000000000000000000000000000000000000000200000000000000000000000000000000000000000000040000000000000000000000000000000000000800000000040000000000000000400000000000000000000000000000000000000000000000000000000000000000000000000000000000000000000000000000000000000000000000000000000000000000000000000000800000000000000000000000000000000000000000000000000000000000000000000000000000000000000000000000000000000041000000000800000000000000000000000000000000000000000000000000000000",
      "type": "0x2",
      "transactionHash": "0x4dd1622bae53e4da84aee702226eb044fafb2152d5f3b40707fecd933c495603",
      "transactionIndex": "0x53",
      "blockHash": "0x67ec5545709b836ae969389ba99e38e5d1a11d042e6e3782bf21c77d09f2db69",
      "blockNumber": "0x964487",
      "gasUsed": "0x1fbf2",
      "effectiveGasPrice": "0x609c4a93",
      "from": "0x26154579219a6f1238c3b30d78c7a58fd2eb3482",
      "to": "0x021935b654b3626b70eaa75bdaf02e90e30bfe55",
      "contractAddress": null
    },
    {
      "status": "0x1",
      "cumulativeGasUsed": "0x16586d7",
      "logs": [
        {
          "address": "0x021935b654b3626b70eaa75bdaf02e90e30bfe55",
          "topics": [
            "0x286b0085c46d7108cc7031149112e275872b38da3414f74d22f8a7a2e547027b",
            "0x0000000000000000000000000000000000000000000000000000000000000002"
          ],
          "data": "0x000000000000000000000000000000000000000000000000002386f26fc100000000000000000000000000000000000000000000000000000000000000000005",
          "blockHash": "0x67ec5545709b836ae969389ba99e38e5d1a11d042e6e3782bf21c77d09f2db69",
          "blockNumber": "0x964487",
          "blockTimestamp": "0x6940620c",
          "transactionHash": "0xba8322e044b094df98591968cf621f984ef43e9d689bc1c64508aee53583a07c",
          "transactionIndex": "0x54",
          "logIndex": "0x334",
          "removed": false
        }
      ],
      "logsBloom": "0x04000000000000000000000000000000000000000000000000000000000000000000000000000200000000000000000000000000000000000000000000000000000000000000000000000000000000000800000000000000000000000000400000000000000000000000000000000000000000000000000000000000000000000000000000000000000000000000000000000000000000000000000000000000000000000000000000800100000000000000000000000000000000000000000000000000000000000000000000000000000000000000000000000000000001000000000800000000000000000000000000000000008000000000000000000000",
      "type": "0x2",
      "transactionHash": "0xba8322e044b094df98591968cf621f984ef43e9d689bc1c64508aee53583a07c",
      "transactionIndex": "0x54",
      "blockHash": "0x67ec5545709b836ae969389ba99e38e5d1a11d042e6e3782bf21c77d09f2db69",
      "blockNumber": "0x964487",
      "gasUsed": "0x1fbe6",
      "effectiveGasPrice": "0x609c4a93",
      "from": "0x26154579219a6f1238c3b30d78c7a58fd2eb3482",
      "to": "0x021935b654b3626b70eaa75bdaf02e90e30bfe55",
      "contractAddress": null
    },
    {
      "status": "0x1",
      "cumulativeGasUsed": "0x16d30ec",
      "logs": [
        {
          "address": "0x021935b654b3626b70eaa75bdaf02e90e30bfe55",
          "topics": [
            "0x6e82d7c795d00fd9b64700b7c138eba363449f2b06f7cb91747c656c626c4759",
            "0x0000000000000000000000000000000000000000000000000000000000000000"
          ],
          "data": "0x0000000000000000000000000000000000000000000000000000000000000014",
          "blockHash": "0x67ec5545709b836ae969389ba99e38e5d1a11d042e6e3782bf21c77d09f2db69",
          "blockNumber": "0x964487",
          "blockTimestamp": "0x6940620c",
          "transactionHash": "0xb172bec459c4cf16220c605152fed4437c5ece1baf374a6314526fcb8a24b211",
          "transactionIndex": "0x55",
          "logIndex": "0x335",
          "removed": false
        }
      ],
      "logsBloom": "0x00000000000000000000000000000000000000000000000000000000000020000000000000000200000000000000000000000000000000000000000000000000000000000000000000000000000000000800000000000000000000000000400000000000020000000000000000000800000000000000000000000000000000000000000000000000000000000000000000000000000000000000008000000000000000000000000000000000000000800000000000000000000000000000000000000000000000000000000000000000000000000000000000000000000020000000000000000000000000000000000000000000000000000000000000000000",
      "type": "0x2",
      "transactionHash": "0xb172bec459c4cf16220c605152fed4437c5ece1baf374a6314526fcb8a24b211",
      "transactionIndex": "0x55",
      "blockHash": "0x67ec5545709b836ae969389ba99e38e5d1a11d042e6e3782bf21c77d09f2db69",
      "blockNumber": "0x964487",
      "gasUsed": "0x7aa15",
      "effectiveGasPrice": "0x609c4a93",
      "from": "0x26154579219a6f1238c3b30d78c7a58fd2eb3482",
      "to": "0x021935b654b3626b70eaa75bdaf02e90e30bfe55",
      "contractAddress": null
    },
    {
      "status": "0x1",
      "cumulativeGasUsed": "0x1731f75",
      "logs": [
        {
          "address": "0x021935b654b3626b70eaa75bdaf02e90e30bfe55",
          "topics": [
            "0x6e82d7c795d00fd9b64700b7c138eba363449f2b06f7cb91747c656c626c4759",
            "0x0000000000000000000000000000000000000000000000000000000000000001"
          ],
          "data": "0x000000000000000000000000000000000000000000000000000000000000000f",
          "blockHash": "0x67ec5545709b836ae969389ba99e38e5d1a11d042e6e3782bf21c77d09f2db69",
          "blockNumber": "0x964487",
          "blockTimestamp": "0x6940620c",
          "transactionHash": "0xe6602ee646a3fe8c6d1421a5c000b906e8703041384f32a43444b2e758a27f53",
          "transactionIndex": "0x56",
          "logIndex": "0x336",
          "removed": false
        }
      ],
      "logsBloom": "0x00000000000000000000000000000000000000000000000000000000000020000000000000000200000000000000000000000000000000000000000000040000000000000000000000000000000000000800000000040000000000000000400000000000000000000000000000000000000000000000000000000000000000000000000000000000000000000000000000000000000000000000008000000000000000000000000000000000000000800000000000000000000000000000000000000000000000000000000000000000000000000000000000000000000040000000000000000000000000000000000000000000000000000000000000000000",
      "type": "0x2",
      "transactionHash": "0xe6602ee646a3fe8c6d1421a5c000b906e8703041384f32a43444b2e758a27f53",
      "transactionIndex": "0x56",
      "blockHash": "0x67ec5545709b836ae969389ba99e38e5d1a11d042e6e3782bf21c77d09f2db69",
      "blockNumber": "0x964487",
      "gasUsed": "0x5ee89",
      "effectiveGasPrice": "0x609c4a93",
      "from": "0x26154579219a6f1238c3b30d78c7a58fd2eb3482",
      "to": "0x021935b654b3626b70eaa75bdaf02e90e30bfe55",
      "contractAddress": null
    },
    {
      "status": "0x1",
      "cumulativeGasUsed": "0x1775266",
      "logs": [
        {
          "address": "0x021935b654b3626b70eaa75bdaf02e90e30bfe55",
          "topics": [
            "0x6e82d7c795d00fd9b64700b7c138eba363449f2b06f7cb91747c656c626c4759",
            "0x0000000000000000000000000000000000000000000000000000000000000002"
          ],
          "data": "0x000000000000000000000000000000000000000000000000000000000000000a",
          "blockHash": "0x67ec5545709b836ae969389ba99e38e5d1a11d042e6e3782bf21c77d09f2db69",
          "blockNumber": "0x964487",
          "blockTimestamp": "0x6940620c",
          "transactionHash": "0xe64ed1238e0d8d27055da4da6757a560717ea65da2be0dce43c4733d5ea55bcb",
          "transactionIndex": "0x57",
          "logIndex": "0x337",
          "removed": false
        }
      ],
      "logsBloom": "0x04000000000000000000000000000000000000000000000000000000000020000000000000000200000000000000000000000000000000000000000000000000000000000000000000000000000000000800000000000000000000000000400000000000000000000000000000000000000000000000000000000000000000000000000000000000000000000000000000000000000000000000008000000000000000000000000000000100000000800000000000000000000000000000000000000000000000000000000000000000000000000000000000000000000000000000000000000000000000000000000000000000008000000000000000000000",
      "type": "0x2",
      "transactionHash": "0xe64ed1238e0d8d27055da4da6757a560717ea65da2be0dce43c4733d5ea55bcb",
      "transactionIndex": "0x57",
      "blockHash": "0x67ec5545709b836ae969389ba99e38e5d1a11d042e6e3782bf21c77d09f2db69",
      "blockNumber": "0x964487",
      "gasUsed": "0x432f1",
      "effectiveGasPrice": "0x609c4a93",
      "from": "0x26154579219a6f1238c3b30d78c7a58fd2eb3482",
      "to": "0x021935b654b3626b70eaa75bdaf02e90e30bfe55",
      "contractAddress": null
    },
    {
      "status": "0x1",
      "cumulativeGasUsed": "0x179c9bf",
      "logs": [
        {
          "address": "0x021935b654b3626b70eaa75bdaf02e90e30bfe55",
          "topics": [
            "0x6e82d7c795d00fd9b64700b7c138eba363449f2b06f7cb91747c656c626c4759",
            "0x0000000000000000000000000000000000000000000000000000000000000003"
          ],
          "data": "0x0000000000000000000000000000000000000000000000000000000000000005",
          "blockHash": "0x67ec5545709b836ae969389ba99e38e5d1a11d042e6e3782bf21c77d09f2db69",
          "blockNumber": "0x964487",
          "blockTimestamp": "0x6940620c",
          "transactionHash": "0x70f3cf4a621fbe7bdce0bca811bac4e7bd1f18a87b3984db2bbe7051f72000bc",
          "transactionIndex": "0x58",
          "logIndex": "0x338",
          "removed": false
        }
      ],
      "logsBloom": "0x00000000000000000000000000000000000000000000000000000000000020000000000000000200000000000000000000000000020000000000000000000000000000000000000000000000000000000800000000000000000000000000400000000000000000000000000000000000000000000000000000000000000000000000000000000000000000000000000000000000000000000000008000000000000000000000000000000000000000800000000000800000000000000000400000000000000000000000000000000000000000000000000000000000000000000000000000000000000000000000000000000000000000000000000000000000",
      "type": "0x2",
      "transactionHash": "0x70f3cf4a621fbe7bdce0bca811bac4e7bd1f18a87b3984db2bbe7051f72000bc",
      "transactionIndex": "0x58",
      "blockHash": "0x67ec5545709b836ae969389ba99e38e5d1a11d042e6e3782bf21c77d09f2db69",
      "blockNumber": "0x964487",
      "gasUsed": "0x27759",
      "effectiveGasPrice": "0x609c4a93",
      "from": "0x26154579219a6f1238c3b30d78c7a58fd2eb3482",
      "to": "0x021935b654b3626b70eaa75bdaf02e90e30bfe55",
      "contractAddress": null
    },
    {
      "status": "0x1",
      "cumulativeGasUsed": "0x17b36f0",
      "logs": [
        {
          "address": "0x021935b654b3626b70eaa75bdaf02e90e30bfe55",
          "topics": [
            "0x6e82d7c795d00fd9b64700b7c138eba363449f2b06f7cb91747c656c626c4759",
            "0x0000000000000000000000000000000000000000000000000000000000000004"
          ],
          "data": "0x0000000000000000000000000000000000000000000000000000000000000002",
          "blockHash": "0x67ec5545709b836ae969389ba99e38e5d1a11d042e6e3782bf21c77d09f2db69",
          "blockNumber": "0x964487",
          "blockTimestamp": "0x6940620c",
          "transactionHash": "0x2e967e7abba90572ba54143a6b66c97f564475a9c889686f013cbf53df225cce",
          "transactionIndex": "0x59",
          "logIndex": "0x339",
          "removed": false
        }
      ],
      "logsBloom": "0x00000000000000000000000000000000000000000000000000000000000020000000000000000200000000000000000000000000000000000000000000000000000000000000000000000000000000000800000000000000000000000000400008000000000000000000000000000000000000000000000000000000000000000000000000000000000000000000000000000000000000000000008000000000000000000000000000000000000000800000000000000000002000000000000000000000000000000000000000000000000000008000000000000000000000000000000000000000000000000000000000000000000000000000000000000000",
      "type": "0x2",
      "transactionHash": "0x2e967e7abba90572ba54143a6b66c97f564475a9c889686f013cbf53df225cce",
      "transactionIndex": "0x59",
      "blockHash": "0x67ec5545709b836ae969389ba99e38e5d1a11d042e6e3782bf21c77d09f2db69",
      "blockNumber": "0x964487",
      "gasUsed": "0x16d31",
      "effectiveGasPrice": "0x609c4a93",
      "from": "0x26154579219a6f1238c3b30d78c7a58fd2eb3482",
      "to": "0x021935b654b3626b70eaa75bdaf02e90e30bfe55",
      "contractAddress": null
    }
  ],
  "libraries": [],
  "pending": [],
  "returns": {},
  "timestamp": 1765827084859,
  "chain": 11155111,
  "commit": "b20a8cc"
}