{
  "transactions": [
    {
      "hash": "0x8673046517564464b79b09500059cb154222e2379c3a673a9374939a6d46aae6",
      "transactionType": "CALL",
      "contractName": null,
      "contractAddress": "0x2b070b9ef84a44c42bc4ad0735c418ade4b295fb",
      "function": "configurePackType(uint8,uint256,uint8,uint8[])",
      "arguments": [
        "0",
        "1000000000000000",
        "3",
        "[70, 20, 8, 2, 0]"
      ],
      "transaction": {
        "from": "0x26154579219a6f1238c3b30d78c7a58fd2eb3482",
        "to": "0x2b070b9ef84a44c42bc4ad0735c418ade4b295fb",
        "gas": "0x2e6bb",
        "value": "0x0",
        "input": "0x0ffbd9e4000000000000000000000000000000000000000000000000000000000000000000000000000000000000000000000000000000000000000000038d7ea4c6800000000000000000000000000000000000000000000000000000000000000000030000000000000000000000000000000000000000000000000000000000000080000000000000000000000000000000000000000000000000000000000000000500000000000000000000000000000000000000000000000000000000000000460000000000000000000000000000000000000000000000000000000000000014000000000000000000000000000000000000000000000000000000000000000800000000000000000000000000000000000000000000000000000000000000020000000000000000000000000000000000000000000000000000000000000000",
        "nonce": "0x9e",
        "chainId": "0xaa36a7"
      },
      "additionalContracts": [],
      "isFixedGasLimit": false
    },
    {
      "hash": "0xbe0dc9fa87ec562b3c8a0f2aa99609a0382b0a29f2ae095134b79a956e853b11",
      "transactionType": "CALL",
      "contractName": null,
      "contractAddress": "0x2b070b9ef84a44c42bc4ad0735c418ade4b295fb",
      "function": "configurePackType(uint8,uint256,uint8,uint8[])",
      "arguments": [
        "1",
        "5000000000000000",
        "5",
        "[50, 30, 15, 4, 1]"
      ],
      "transaction": {
        "from": "0x26154579219a6f1238c3b30d78c7a58fd2eb3482",
        "to": "0x2b070b9ef84a44c42bc4ad0735c418ade4b295fb",
        "gas": "0x2e6de",
        "value": "0x0",
        "input": "0x0ffbd9e400000000000000000000000000000000000000000000000000000000000000010000000000000000000000000000000000000000000000000011c37937e080000000000000000000000000000000000000000000000000000000000000000005000000000000000000000000000000000000000000000000000000000000008000000000000000000000000000000000000000000000000000000000000000050000000000000000000000000000000000000000000000000000000000000032000000000000000000000000000000000000000000000000000000000000001e000000000000000000000000000000000000000000000000000000000000000f00000000000000000000000000000000000000000000000000000000000000040000000000000000000000000000000000000000000000000000000000000001",
        "nonce": "0x9f",
        "chainId": "0xaa36a7"
      },
      "additionalContracts": [],
      "isFixedGasLimit": false
    },
    {
      "hash": "0x169e7e6bb82307b5a824c67efce9e57a9f7c7ed8dc7a35c15c12807909ac7b25",
      "transactionType": "CALL",
      "contractName": null,
      "contractAddress": "0x2b070b9ef84a44c42bc4ad0735c418ade4b295fb",
      "function": "configurePackType(uint8,uint256,uint8,uint8[])",
      "arguments": [
        "2",
        "10000000000000000",
        "5",
        "[40, 30, 20, 8, 2]"
      ],
      "transaction": {
        "from": "0x26154579219a6f1238c3b30d78c7a58fd2eb3482",
        "to": "0x2b070b9ef84a44c42bc4ad0735c418ade4b295fb",
        "gas": "0x2bd88",
        "value": "0x0",
        "input": "0x0ffbd9e40000000000000000000000000000000000000000000000000000000000000002000000000000000000000000000000000000000000000000002386f26fc100000000000000000000000000000000000000000000000000000000000000000005000000000000000000000000000000000000000000000000000000000000008000000000000000000000000000000000000000000000000000000000000000050000000000000000000000000000000000000000000000000000000000000028000000000000000000000000000000000000000000000000000000000000001e000000000000000000000000000000000000000000000000000000000000001400000000000000000000000000000000000000000000000000000000000000080000000000000000000000000000000000000000000000000000000000000002",
        "nonce": "0xa0",
        "chainId": "0xaa36a7"
      },
      "additionalContracts": [],
      "isFixedGasLimit": false
    },
    {
      "hash": "0xc16b3047e7ebb15494815466cce9ba45a62e90da7207be554ce81f3ecb2e58d7",
      "transactionType": "CALL",
      "contractName": null,
      "contractAddress": "0x2b070b9ef84a44c42bc4ad0735c418ade4b295fb",
      "function": "addPlayersToPool(uint8,uint256[])",
      "arguments": [
        "0",
        "[1, 2, 3, 4, 5, 6, 7, 8, 9, 10, 11, 12, 13, 14, 15, 16, 17, 18, 19, 20]"
      ],
      "transaction": {
        "from": "0x26154579219a6f1238c3b30d78c7a58fd2eb3482",
        "to": "0x2b070b9ef84a44c42bc4ad0735c418ade4b295fb",
        "gas": "0xa961f",
        "value": "0x0",
        "input": "0x12c6413d000000000000000000000000000000000000000000000000000000000000000000000000000000000000000000000000000000000000000000000000000000400000000000000000000000000000000000000000000000000000000000000014000000000000000000000000000000000000000000000000000000000000000100000000000000000000000000000000000000000000000000000000000000020000000000000000000000000000000000000000000000000000000000000003000000000000000000000000000000000000000000000000000000000000000400000000000000000000000000000000000000000000000000000000000000050000000000000000000000000000000000000000000000000000000000000006000000000000000000000000000000000000000000000000000000000000000700000000000000000000000000000000000000000000000000000000000000080000000000000000000000000000000000000000000000000000000000000009000000000000000000000000000000000000000000000000000000000000000a000000000000000000000000000000000000000000000000000000000000000b000000000000000000000000000000000000000000000000000000000000000c000000000000000000000000000000000000000000000000000000000000000d000000000000000000000000000000000000000000000000000000000000000e000000000000000000000000000000000000000000000000000000000000000f00000000000000000000000000000000000000000000000000000000000000100000000000000000000000000000000000000000000000000000000000000011000000000000000000000000000000000000000000000000000000000000001200000000000000000000000000000000000000000000000000000000000000130000000000000000000000000000000000000000000000000000000000000014",
        "nonce": "0xa1",
        "chainId": "0xaa36a7"
      },
      "additionalContracts": [],
      "isFixedGasLimit": false
    },
    {
      "hash": "0x00775ed77d62ce03afad7ad7badb74a1d64f12d81cfe3591125391b8982853d3",
      "transactionType": "CALL",
      "contractName": null,
      "contractAddress": "0x2b070b9ef84a44c42bc4ad0735c418ade4b295fb",
      "function": "addPlayersToPool(uint8,uint256[])",
      "arguments": [
        "1",
        "[21, 22, 23, 24, 25, 26, 27, 28, 29, 30, 31, 32, 33, 34, 35]"
      ],
      "transaction": {
        "from": "0x26154579219a6f1238c3b30d78c7a58fd2eb3482",
        "to": "0x2b070b9ef84a44c42bc4ad0735c418ade4b295fb",
        "gas": "0x8acdb",
        "value": "0x0",
        "input": "0x12c6413d00000000000000000000000000000000000000000000000000000000000000010000000000000000000000000000000000000000000000000000000000000040000000000000000000000000000000000000000000000000000000000000000f00000000000000000000000000000000000000000000000000000000000000150000000000000000000000000000000000000000000000000000000000000016000000000000000000000000000000000000000000000000000000000000001700000000000000000000000000000000000000000000000000000000000000180000000000000000000000000000000000000000000000000000000000000019000000000000000000000000000000000000000000000000000000000000001a000000000000000000000000000000000000000000000000000000000000001b000000000000000000000000000000000000000000000000000000000000001c000000000000000000000000000000000000000000000000000000000000001d000000000000000000000000000000000000000000000000000000000000001e000000000000000000000000000000000000000000000000000000000000001f0000000000000000000000000000000000000000000000000000000000000020000000000000000000000000000000000000000000000000000000000000002100000000000000000000000000000000000000000000000000000000000000220000000000000000000000000000000000000000000000000000000000000023",
        "nonce": "0xa2",
        "chainId": "0xaa36a7"
      },
      "additionalContracts": [],
      "isFixedGasLimit": false
    },
    {
      "hash": "0x1e6486d65396a63cc8577c68852f35845691c6269b50a89c3f0538b87de5a72e",
      "transactionType": "CALL",
      "contractName": null,
      "contractAddress": "0x2b070b9ef84a44c42bc4ad0735c418ade4b295fb",
      "function": "addPlayersToPool(uint8,uint256[])",
      "arguments": [
        "2",
        "[36, 37, 38, 39, 40, 41, 42, 43, 44, 45]"
      ],
      "transaction": {
        "from": "0x26154579219a6f1238c3b30d78c7a58fd2eb3482",
        "to": "0x2b070b9ef84a44c42bc4ad0735c418ade4b295fb",
        "gas": "0x62419",
        "value": "0x0",
        "input": "0x12c6413d00000000000000000000000000000000000000000000000000000000000000020000000000000000000000000000000000000000000000000000000000000040000000000000000000000000000000000000000000000000000000000000000a000000000000000000000000000000000000000000000000000000000000002400000000000000000000000000000000000000000000000000000000000000250000000000000000000000000000000000000000000000000000000000000026000000000000000000000000000000000000000000000000000000000000002700000000000000000000000000000000000000000000000000000000000000280000000000000000000000000000000000000000000000000000000000000029000000000000000000000000000000000000000000000000000000000000002a000000000000000000000000000000000000000000000000000000000000002b000000000000000000000000000000000000000000000000000000000000002c000000000000000000000000000000000000000000000000000000000000002d",
        "nonce": "0xa3",
        "chainId": "0xaa36a7"
      },
      "additionalContracts": [],
      "isFixedGasLimit": false
    },
    {
      "hash": "0x8ee4d95e7b27a873e69c8c09a399dfa6950ec8cd03d0efee20c5bafeb7eed77a",
      "transactionType": "CALL",
      "contractName": null,
      "contractAddress": "0x2b070b9ef84a44c42bc4ad0735c418ade4b295fb",
      "function": "addPlayersToPool(uint8,uint256[])",
      "arguments": [
        "3",
        "[46, 47, 48, 49, 50]"
      ],
      "transaction": {
        "from": "0x26154579219a6f1238c3b30d78c7a58fd2eb3482",
        "to": "0x2b070b9ef84a44c42bc4ad0735c418ade4b295fb",
        "gas": "0x39b58",
        "value": "0x0",
        "input": "0x12c6413d000000000000000000000000000000000000000000000000000000000000000300000000000000000000000000000000000000000000000000000000000000400000000000000000000000000000000000000000000000000000000000000005000000000000000000000000000000000000000000000000000000000000002e000000000000000000000000000000000000000000000000000000000000002f000000000000000000000000000000000000000000000000000000000000003000000000000000000000000000000000000000000000000000000000000000310000000000000000000000000000000000000000000000000000000000000032",
        "nonce": "0xa4",
        "chainId": "0xaa36a7"
      },
      "additionalContracts": [],
      "isFixedGasLimit": false
    },
    {
      "hash": "0x5b46eeca1400af324fc8229456e705003eb2e1dbc4bda6f61ae37dbe77d79290",
      "transactionType": "CALL",
      "contractName": null,
      "contractAddress": "0x2b070b9ef84a44c42bc4ad0735c418ade4b295fb",
      "function": "addPlayersToPool(uint8,uint256[])",
      "arguments": [
        "4",
        "[51, 52]"
      ],
      "transaction": {
        "from": "0x26154579219a6f1238c3b30d78c7a58fd2eb3482",
        "to": "0x2b070b9ef84a44c42bc4ad0735c418ade4b295fb",
        "gas": "0x21617",
        "value": "0x0",
        "input": "0x12c6413d00000000000000000000000000000000000000000000000000000000000000040000000000000000000000000000000000000000000000000000000000000040000000000000000000000000000000000000000000000000000000000000000200000000000000000000000000000000000000000000000000000000000000330000000000000000000000000000000000000000000000000000000000000034",
        "nonce": "0xa5",
        "chainId": "0xaa36a7"
      },
      "additionalContracts": [],
      "isFixedGasLimit": false
    }
  ],
  "receipts": [
    {
      "status": "0x1",
      "cumulativeGasUsed": "0xd30be2",
      "logs": [
        {
          "address": "0x2b070b9ef84a44c42bc4ad0735c418ade4b295fb",
          "topics": [
            "0x286b0085c46d7108cc7031149112e275872b38da3414f74d22f8a7a2e547027b",
            "0x0000000000000000000000000000000000000000000000000000000000000000"
          ],
          "data": "0x00000000000000000000000000000000000000000000000000038d7ea4c680000000000000000000000000000000000000000000000000000000000000000003",
          "blockHash": "0xa3a77236ab327ab6a32d29b582090ab629fd22c7a6ec21c88d86ca507fe4b877",
          "blockNumber": "0x962f99",
          "blockTimestamp": "0x693f6564",
          "transactionHash": "0x8673046517564464b79b09500059cb154222e2379c3a673a9374939a6d46aae6",
          "transactionIndex": "0x38",
          "logIndex": "0x1e5",
          "removed": false
        }
      ],
      "logsBloom": "0x00000000000000000000000000000000000000400000000000000000000000000000000000000000000000000000000000000000000000000000000000000000000000000000000000000000000000000000000000000000000000000000000000000000020000000000000000000800000000000000000000000000000000000000000000000000000000000000000000000000000000000000000000000000000000000000000000800000000000000000000000000200000000000000000000000000000000000000000000000000000000000000000000200000000021000000000800000000000000000000000000000000000000000000000000000000",
      "type": "0x2",
      "transactionHash": "0x8673046517564464b79b09500059cb154222e2379c3a673a9374939a6d46aae6",
      "transactionIndex": "0x38",
      "blockHash": "0xa3a77236ab327ab6a32d29b582090ab629fd22c7a6ec21c88d86ca507fe4b877",
      "blockNumber": "0x962f99",
      "gasUsed": "0x1fbda",
      "effectiveGasPrice": "0x11a5e9",
      "from": "0x26154579219a6f1238c3b30d78c7a58fd2eb3482",
      "to": "0x2b070b9ef84a44c42bc4ad0735c418ade4b295fb",
      "contractAddress": null
    },
    {
      "status": "0x1",
      "cumulativeGasUsed": "0xd507d4",
      "logs": [
        {
          "address": "0x2b070b9ef84a44c42bc4ad0735c418ade4b295fb",
          "topics": [
            "0x286b0085c46d7108cc7031149112e275872b38da3414f74d22f8a7a2e547027b",
            "0x0000000000000000000000000000000000000000000000000000000000000001"
          ],
          "data": "0x0000000000000000000000000000000000000000000000000011c37937e080000000000000000000000000000000000000000000000000000000000000000005",
          "blockHash": "0xa3a77236ab327ab6a32d29b582090ab629fd22c7a6ec21c88d86ca507fe4b877",
          "blockNumber": "0x962f99",
          "blockTimestamp": "0x693f6564",
          "transactionHash": "0xbe0dc9fa87ec562b3c8a0f2aa99609a0382b0a29f2ae095134b79a956e853b11",
          "transactionIndex": "0x39",
          "logIndex": "0x1e6",
          "removed": false
        }
      ],
      "logsBloom": "0x00000000000000000000000000000000000000400000000000000000000000000000000000000000000000000000000000000000000000000000000000040000000000000000000000000000000000000000000000040000000000000000000000000000000000000000000000000000000000000000000000000000000000000000000000000000000000000000000000000000000000000000000000000000000000000000000000800000000000000000000000000200000000000000000000000000000000000000000000000000000000000000000000200000000041000000000800000000000000000000000000000000000000000000000000000000",
      "type": "0x2",
      "transactionHash": "0xbe0dc9fa87ec562b3c8a0f2aa99609a0382b0a29f2ae095134b79a956e853b11",
      "transactionIndex": "0x39",
      "blockHash": "0xa3a77236ab327ab6a32d29b582090ab629fd22c7a6ec21c88d86ca507fe4b877",
      "blockNumber": "0x962f99",
      "gasUsed": "0x1fbf2",
      "effectiveGasPrice": "0x11a5e9",
      "from": "0x26154579219a6f1238c3b30d78c7a58fd2eb3482",
      "to": "0x2b070b9ef84a44c42bc4ad0735c418ade4b295fb",
      "contractAddress": null
    },
    {
      "status": "0x1",
      "cumulativeGasUsed": "0xd703ba",
      "logs": [
        {
          "address": "0x2b070b9ef84a44c42bc4ad0735c418ade4b295fb",
          "topics": [
            "0x286b0085c46d7108cc7031149112e275872b38da3414f74d22f8a7a2e547027b",
            "0x0000000000000000000000000000000000000000000000000000000000000002"
          ],
          "data": "0x000000000000000000000000000000000000000000000000002386f26fc100000000000000000000000000000000000000000000000000000000000000000005",
          "blockHash": "0xa3a77236ab327ab6a32d29b582090ab629fd22c7a6ec21c88d86ca507fe4b877",
          "blockNumber": "0x962f99",
          "blockTimestamp": "0x693f6564",
          "transactionHash": "0x169e7e6bb82307b5a824c67efce9e57a9f7c7ed8dc7a35c15c12807909ac7b25",
          "transactionIndex": "0x3a",
          "logIndex": "0x1e7",
          "removed": false
        }
      ],
      "logsBloom": "0x04000000000000000000000000000000000000400000000000000000000000000000000000000000000000000000000000000000000000000000000000000000000000000000000000000000000000000000000000000000000000000000000000000000000000000000000000000000000000000000000000000000000000000000000000000000000000000000000000000000000000000000000000000000000000000000000000800100000000000000000000000200000000000000000000000000000000000000000000000000000000000000000000200000000001000000000800000000000000000000000000000000008000000000000000000000",
      "type": "0x2",
      "transactionHash": "0x169e7e6bb82307b5a824c67efce9e57a9f7c7ed8dc7a35c15c12807909ac7b25",
      "transactionIndex": "0x3a",
      "blockHash": "0xa3a77236ab327ab6a32d29b582090ab629fd22c7a6ec21c88d86ca507fe4b877",
      "blockNumber": "0x962f99",
      "gasUsed": "0x1fbe6",
      "effectiveGasPrice": "0x11a5e9",
      "from": "0x26154579219a6f1238c3b30d78c7a58fd2eb3482",
      "to": "0x2b070b9ef84a44c42bc4ad0735c418ade4b295fb",
      "contractAddress": null
    },
    {
      "status": "0x1",
      "cumulativeGasUsed": "0xdeadcf",
      "logs": [
        {
          "address": "0x2b070b9ef84a44c42bc4ad0735c418ade4b295fb",
          "topics": [
            "0x6e82d7c795d00fd9b64700b7c138eba363449f2b06f7cb91747c656c626c4759",
            "0x0000000000000000000000000000000000000000000000000000000000000000"
          ],
          "data": "0x0000000000000000000000000000000000000000000000000000000000000014",
          "blockHash": "0xa3a77236ab327ab6a32d29b582090ab629fd22c7a6ec21c88d86ca507fe4b877",
          "blockNumber": "0x962f99",
          "blockTimestamp": "0x693f6564",
          "transactionHash": "0x00775ed77d62ce03afad7ad7badb74a1d64f12d81cfe3591125391b8982853d3",
          "transactionIndex": "0x3b",
          "logIndex": "0x1e8",
          "removed": false
        }
      ],
      "logsBloom": "0x00000000000000000000000000000000000000400000000000000000000020000000000000000000000000000000000000000000000000000000000000000000000000000000000000000000000000000000000000000000000000000000000000000000020000000000000000000800000000000000000000000000000000000000000000000000000000000000000000000000000000000000008000000000000000000000000000000000000000800000000000000200000000000000000000000000000000000000000000000000000000000000000000200000000020000000000000000000000000000000000000000000000000000000000000000000",
      "type": "0x2",
      "transactionHash": "0x00775ed77d62ce03afad7ad7badb74a1d64f12d81cfe3591125391b8982853d3",
      "transactionIndex": "0x3b",
      "blockHash": "0xa3a77236ab327ab6a32d29b582090ab629fd22c7a6ec21c88d86ca507fe4b877",
      "blockNumber": "0x962f99",
      "gasUsed": "0x7aa15",
      "effectiveGasPrice": "0x11a5e9",
      "from": "0x26154579219a6f1238c3b30d78c7a58fd2eb3482",
      "to": "0x2b070b9ef84a44c42bc4ad0735c418ade4b295fb",
      "contractAddress": null
    },
    {
      "status": "0x1",
      "cumulativeGasUsed": "0xe49c58",
      "logs": [
        {
          "address": "0x2b070b9ef84a44c42bc4ad0735c418ade4b295fb",
          "topics": [
            "0x6e82d7c795d00fd9b64700b7c138eba363449f2b06f7cb91747c656c626c4759",
            "0x0000000000000000000000000000000000000000000000000000000000000001"
          ],
          "data": "0x000000000000000000000000000000000000000000000000000000000000000f",
          "blockHash": "0xa3a77236ab327ab6a32d29b582090ab629fd22c7a6ec21c88d86ca507fe4b877",
          "blockNumber": "0x962f99",
          "blockTimestamp": "0x693f6564",
          "transactionHash": "0x5b46eeca1400af324fc8229456e705003eb2e1dbc4bda6f61ae37dbe77d79290",
          "transactionIndex": "0x3c",
          "logIndex": "0x1e9",
          "removed": false
        }
      ],
      "logsBloom": "0x00000000000000000000000000000000000000400000000000000000000020000000000000000000000000000000000000000000000000000000000000040000000000000000000000000000000000000000000000040000000000000000000000000000000000000000000000000000000000000000000000000000000000000000000000000000000000000000000000000000000000000000008000000000000000000000000000000000000000800000000000000200000000000000000000000000000000000000000000000000000000000000000000200000000040000000000000000000000000000000000000000000000000000000000000000000",
      "type": "0x2",
      "transactionHash": "0x5b46eeca1400af324fc8229456e705003eb2e1dbc4bda6f61ae37dbe77d79290",
      "transactionIndex": "0x3c",
      "blockHash": "0xa3a77236ab327ab6a32d29b582090ab629fd22c7a6ec21c88d86ca507fe4b877",
      "blockNumber": "0x962f99",
      "gasUsed": "0x5ee89",
      "effectiveGasPrice": "0x11a5e9",
      "from": "0x26154579219a6f1238c3b30d78c7a58fd2eb3482",
      "to": "0x2b070b9ef84a44c42bc4ad0735c418ade4b295fb",
      "contractAddress": null
    },
    {
      "status": "0x1",
      "cumulativeGasUsed": "0xe8cf49",
      "logs": [
        {
          "address": "0x2b070b9ef84a44c42bc4ad0735c418ade4b295fb",
          "topics": [
            "0x6e82d7c795d00fd9b64700b7c138eba363449f2b06f7cb91747c656c626c4759",
            "0x0000000000000000000000000000000000000000000000000000000000000002"
          ],
          "data": "0x000000000000000000000000000000000000000000000000000000000000000a",
          "blockHash": "0xa3a77236ab327ab6a32d29b582090ab629fd22c7a6ec21c88d86ca507fe4b877",
          "blockNumber": "0x962f99",
          "blockTimestamp": "0x693f6564",
          "transactionHash": "0xc16b3047e7ebb15494815466cce9ba45a62e90da7207be554ce81f3ecb2e58d7",
          "transactionIndex": "0x3d",
          "logIndex": "0x1ea",
          "removed": false
        }
      ],
      "logsBloom": "0x04000000000000000000000000000000000000400000000000000000000020000000000000000000000000000000000000000000000000000000000000000000000000000000000000000000000000000000000000000000000000000000000000000000000000000000000000000000000000000000000000000000000000000000000000000000000000000000000000000000000000000000008000000000000000000000000000000100000000800000000000000200000000000000000000000000000000000000000000000000000000000000000000200000000000000000000000000000000000000000000000000000008000000000000000000000",
      "type": "0x2",
      "transactionHash": "0xc16b3047e7ebb15494815466cce9ba45a62e90da7207be554ce81f3ecb2e58d7",
      "transactionIndex": "0x3d",
      "blockHash": "0xa3a77236ab327ab6a32d29b582090ab629fd22c7a6ec21c88d86ca507fe4b877",
      "blockNumber": "0x962f99",
      "gasUsed": "0x432f1",
      "effectiveGasPrice": "0x11a5e9",
      "from": "0x26154579219a6f1238c3b30d78c7a58fd2eb3482",
      "to": "0x2b070b9ef84a44c42bc4ad0735c418ade4b295fb",
      "contractAddress": null
    },
    {
      "status": "0x1",
      "cumulativeGasUsed": "0xeb46a2",
      "logs": [
        {
          "address": "0x2b070b9ef84a44c42bc4ad0735c418ade4b295fb",
          "topics": [
            "0x6e82d7c795d00fd9b64700b7c138eba363449f2b06f7cb91747c656c626c4759",
            "0x0000000000000000000000000000000000000000000000000000000000000003"
          ],
          "data": "0x0000000000000000000000000000000000000000000000000000000000000005",
          "blockHash": "0xa3a77236ab327ab6a32d29b582090ab629fd22c7a6ec21c88d86ca507fe4b877",
          "blockNumber": "0x962f99",
          "blockTimestamp": "0x693f6564",
          "transactionHash": "0x1e6486d65396a63cc8577c68852f35845691c6269b50a89c3f0538b87de5a72e",
          "transactionIndex": "0x3e",
          "logIndex": "0x1eb",
          "removed": false
        }
      ],
      "logsBloom": "0x00000000000000000000000000000000000000400000000000000000000020000000000000000000000000000000000000000000020000000000000000000000000000000000000000000000000000000000000000000000000000000000000000000000000000000000000000000000000000000000000000000000000000000000000000000000000000000000000000000000000000000000008000000000000000000000000000000000000000800000000000800200000000000000400000000000000000000000000000000000000000000000000000200000000000000000000000000000000000000000000000000000000000000000000000000000",
      "type": "0x2",
      "transactionHash": "0x1e6486d65396a63cc8577c68852f35845691c6269b50a89c3f0538b87de5a72e",
      "transactionIndex": "0x3e",
      "blockHash": "0xa3a77236ab327ab6a32d29b582090ab629fd22c7a6ec21c88d86ca507fe4b877",
      "blockNumber": "0x962f99",
      "gasUsed": "0x27759",
      "effectiveGasPrice": "0x11a5e9",
      "from": "0x26154579219a6f1238c3b30d78c7a58fd2eb3482",
      "to": "0x2b070b9ef84a44c42bc4ad0735c418ade4b295fb",
      "contractAddress": null
    },
    {
      "status": "0x1",
      "cumulativeGasUsed": "0xecb3d3",
      "logs": [
        {
          "address": "0x2b070b9ef84a44c42bc4ad0735c418ade4b295fb",
          "topics": [
            "0x6e82d7c795d00fd9b64700b7c138eba363449f2b06f7cb91747c656c626c4759",
            "0x0000000000000000000000000000000000000000000000000000000000000004"
          ],
          "data": "0x0000000000000000000000000000000000000000000000000000000000000002",
          "blockHash": "0xa3a77236ab327ab6a32d29b582090ab629fd22c7a6ec21c88d86ca507fe4b877",
          "blockNumber": "0x962f99",
          "blockTimestamp": "0x693f6564",
          "transactionHash": "0x8ee4d95e7b27a873e69c8c09a399dfa6950ec8cd03d0efee20c5bafeb7eed77a",
          "transactionIndex": "0x3f",
          "logIndex": "0x1ec",
          "removed": false
        }
      ],
      "logsBloom": "0x00000000000000000000000000000000000000400000000000000000000020000000000000000000000000000000000000000000000000000000000000000000000000000000000000000000000000000000000000000000000000000000000008000000000000000000000000000000000000000000000000000000000000000000000000000000000000000000000000000000000000000000008000000000000000000000000000000000000000800000000000000200002000000000000000000000000000000000000000000000000000008000000000200000000000000000000000000000000000000000000000000000000000000000000000000000",
      "type": "0x2",
      "transactionHash": "0x8ee4d95e7b27a873e69c8c09a399dfa6950ec8cd03d0efee20c5bafeb7eed77a",
      "transactionIndex": "0x3f",
      "blockHash": "0xa3a77236ab327ab6a32d29b582090ab629fd22c7a6ec21c88d86ca507fe4b877",
      "blockNumber": "0x962f99",
      "gasUsed": "0x16d31",
      "effectiveGasPrice": "0x11a5e9",
      "from": "0x26154579219a6f1238c3b30d78c7a58fd2eb3482",
      "to": "0x2b070b9ef84a44c42bc4ad0735c418ade4b295fb",
      "contractAddress": null
    }
  ],
  "libraries": [],
  "pending": [],
  "returns": {},
  "timestamp": 1765762405140,
  "chain": 11155111,
  "commit": "b20a8cc"
}