{
  "transactions": [
    {
      "hash": "0x9975a88d558a7f1fbf506f8647d4c67c9976b137316fe286654ca88232e37937",
      "transactionType": "CALL",
      "contractName": null,
      "contractAddress": "0x029d8c5d7bb8808e02824b22296fe7fcbc728e97",
      "function": "configurePackType(uint8,uint256,uint8,uint8[])",
      "arguments": [
        "0",
        "1000000000000000",
        "3",
        "[70, 20, 8, 2, 0]"
      ],
      "transaction": {
        "from": "0x26154579219a6f1238c3b30d78c7a58fd2eb3482",
        "to": "0x029d8c5d7bb8808e02824b22296fe7fcbc728e97",
        "gas": "0x11ffc",
        "value": "0x0",
        "input": "0x0ffbd9e4000000000000000000000000000000000000000000000000000000000000000000000000000000000000000000000000000000000000000000038d7ea4c6800000000000000000000000000000000000000000000000000000000000000000030000000000000000000000000000000000000000000000000000000000000080000000000000000000000000000000000000000000000000000000000000000500000000000000000000000000000000000000000000000000000000000000460000000000000000000000000000000000000000000000000000000000000014000000000000000000000000000000000000000000000000000000000000000800000000000000000000000000000000000000000000000000000000000000020000000000000000000000000000000000000000000000000000000000000000",
        "nonce": "0x5a",
        "chainId": "0xaa36a7"
      },
      "additionalContracts": [],
      "isFixedGasLimit": false
    },
    {
      "hash": "0x81ee000a957e374ca933b11105157fbaeffa5c9d6f56087fdf1553bcceb1f8e7",
      "transactionType": "CALL",
      "contractName": null,
      "contractAddress": "0x029d8c5d7bb8808e02824b22296fe7fcbc728e97",
      "function": "configurePackType(uint8,uint256,uint8,uint8[])",
      "arguments": [
        "1",
        "5000000000000000",
        "5",
        "[50, 30, 15, 4, 1]"
      ],
      "transaction": {
        "from": "0x26154579219a6f1238c3b30d78c7a58fd2eb3482",
        "to": "0x029d8c5d7bb8808e02824b22296fe7fcbc728e97",
        "gas": "0x1201f",
        "value": "0x0",
        "input": "0x0ffbd9e400000000000000000000000000000000000000000000000000000000000000010000000000000000000000000000000000000000000000000011c37937e080000000000000000000000000000000000000000000000000000000000000000005000000000000000000000000000000000000000000000000000000000000008000000000000000000000000000000000000000000000000000000000000000050000000000000000000000000000000000000000000000000000000000000032000000000000000000000000000000000000000000000000000000000000001e000000000000000000000000000000000000000000000000000000000000000f00000000000000000000000000000000000000000000000000000000000000040000000000000000000000000000000000000000000000000000000000000001",
        "nonce": "0x5b",
        "chainId": "0xaa36a7"
      },
      "additionalContracts": [],
      "isFixedGasLimit": false
    },
    {
      "hash": "0x870aae9b2f722c1384cbbc0026a3dd63ad456ea6cb4b449341118671e1b2d589",
      "transactionType": "CALL",
      "contractName": null,
      "contractAddress": "0x029d8c5d7bb8808e02824b22296fe7fcbc728e97",
      "function": "configurePackType(uint8,uint256,uint8,uint8[])",
      "arguments": [
        "2",
        "10000000000000000",
        "10",
        "[40, 30, 20, 8, 2]"
      ],
      "transaction": {
        "from": "0x26154579219a6f1238c3b30d78c7a58fd2eb3482",
        "to": "0x029d8c5d7bb8808e02824b22296fe7fcbc728e97",
        "gas": "0x1100c",
        "value": "0x0",
        "input": "0x0ffbd9e40000000000000000000000000000000000000000000000000000000000000002000000000000000000000000000000000000000000000000002386f26fc10000000000000000000000000000000000000000000000000000000000000000000a000000000000000000000000000000000000000000000000000000000000008000000000000000000000000000000000000000000000000000000000000000050000000000000000000000000000000000000000000000000000000000000028000000000000000000000000000000000000000000000000000000000000001e000000000000000000000000000000000000000000000000000000000000001400000000000000000000000000000000000000000000000000000000000000080000000000000000000000000000000000000000000000000000000000000002",
        "nonce": "0x5c",
        "chainId": "0xaa36a7"
      },
      "additionalContracts": [],
      "isFixedGasLimit": false
    },
    {
      "hash": "0x5cbf31b43235000dba29f7bf2baa8f5d0dff80fc58622d1911979e9cd79a3c8a",
      "transactionType": "CALL",
      "contractName": null,
      "contractAddress": "0x029d8c5d7bb8808e02824b22296fe7fcbc728e97",
      "function": "addPlayersToPool(uint8,uint256[])",
      "arguments": [
        "0",
        "[1, 2, 3, 4, 5, 6, 7, 8, 9, 10, 11, 12, 13, 14, 15, 16, 17, 18, 19, 20]"
      ],
      "transaction": {
        "from": "0x26154579219a6f1238c3b30d78c7a58fd2eb3482",
        "to": "0x029d8c5d7bb8808e02824b22296fe7fcbc728e97",
        "gas": "0xad3da",
        "value": "0x0",
        "input": "0x12c6413d000000000000000000000000000000000000000000000000000000000000000000000000000000000000000000000000000000000000000000000000000000400000000000000000000000000000000000000000000000000000000000000014000000000000000000000000000000000000000000000000000000000000000100000000000000000000000000000000000000000000000000000000000000020000000000000000000000000000000000000000000000000000000000000003000000000000000000000000000000000000000000000000000000000000000400000000000000000000000000000000000000000000000000000000000000050000000000000000000000000000000000000000000000000000000000000006000000000000000000000000000000000000000000000000000000000000000700000000000000000000000000000000000000000000000000000000000000080000000000000000000000000000000000000000000000000000000000000009000000000000000000000000000000000000000000000000000000000000000a000000000000000000000000000000000000000000000000000000000000000b000000000000000000000000000000000000000000000000000000000000000c000000000000000000000000000000000000000000000000000000000000000d000000000000000000000000000000000000000000000000000000000000000e000000000000000000000000000000000000000000000000000000000000000f00000000000000000000000000000000000000000000000000000000000000100000000000000000000000000000000000000000000000000000000000000011000000000000000000000000000000000000000000000000000000000000001200000000000000000000000000000000000000000000000000000000000000130000000000000000000000000000000000000000000000000000000000000014",
        "nonce": "0x5d",
        "chainId": "0xaa36a7"
      },
      "additionalContracts": [],
      "isFixedGasLimit": false
    },
    {
      "hash": "0x2949aa758c6941ce7c0f66c4eb2af94258577121237c77ebff8bb622bcaba679",
      "transactionType": "CALL",
      "contractName": null,
      "contractAddress": "0x029d8c5d7bb8808e02824b22296fe7fcbc728e97",
      "function": "addPlayersToPool(uint8,uint256[])",
      "arguments": [
        "1",
        "[21, 22, 23, 24, 25, 26, 27, 28, 29, 30, 31, 32, 33, 34, 35]"
      ],
      "transaction": {
        "from": "0x26154579219a6f1238c3b30d78c7a58fd2eb3482",
        "to": "0x029d8c5d7bb8808e02824b22296fe7fcbc728e97",
        "gas": "0x7d535",
        "value": "0x0",
        "input": "0x12c6413d00000000000000000000000000000000000000000000000000000000000000010000000000000000000000000000000000000000000000000000000000000040000000000000000000000000000000000000000000000000000000000000000f00000000000000000000000000000000000000000000000000000000000000150000000000000000000000000000000000000000000000000000000000000016000000000000000000000000000000000000000000000000000000000000001700000000000000000000000000000000000000000000000000000000000000180000000000000000000000000000000000000000000000000000000000000019000000000000000000000000000000000000000000000000000000000000001a000000000000000000000000000000000000000000000000000000000000001b000000000000000000000000000000000000000000000000000000000000001c000000000000000000000000000000000000000000000000000000000000001d000000000000000000000000000000000000000000000000000000000000001e000000000000000000000000000000000000000000000000000000000000001f0000000000000000000000000000000000000000000000000000000000000020000000000000000000000000000000000000000000000000000000000000002100000000000000000000000000000000000000000000000000000000000000220000000000000000000000000000000000000000000000000000000000000023",
        "nonce": "0x5e",
        "chainId": "0xaa36a7"
      },
      "additionalContracts": [],
      "isFixedGasLimit": false
    },
    {
      "hash": "0x28061fe3113f2d5767d303ffe7db2ec8f9d82ef85de475ecba9dbf66402bd90f",
      "transactionType": "CALL",
      "contractName": null,
      "contractAddress": "0x029d8c5d7bb8808e02824b22296fe7fcbc728e97",
      "function": "addPlayersToPool(uint8,uint256[])",
      "arguments": [
        "2",
        "[36, 37, 38, 39, 40, 41, 42, 43, 44, 45]"
      ],
      "transaction": {
        "from": "0x26154579219a6f1238c3b30d78c7a58fd2eb3482",
        "to": "0x029d8c5d7bb8808e02824b22296fe7fcbc728e97",
        "gas": "0x5707f",
        "value": "0x0",
        "input": "0x12c6413d00000000000000000000000000000000000000000000000000000000000000020000000000000000000000000000000000000000000000000000000000000040000000000000000000000000000000000000000000000000000000000000000a000000000000000000000000000000000000000000000000000000000000002400000000000000000000000000000000000000000000000000000000000000250000000000000000000000000000000000000000000000000000000000000026000000000000000000000000000000000000000000000000000000000000002700000000000000000000000000000000000000000000000000000000000000280000000000000000000000000000000000000000000000000000000000000029000000000000000000000000000000000000000000000000000000000000002a000000000000000000000000000000000000000000000000000000000000002b000000000000000000000000000000000000000000000000000000000000002c000000000000000000000000000000000000000000000000000000000000002d",
        "nonce": "0x5f",
        "chainId": "0xaa36a7"
      },
      "additionalContracts": [],
      "isFixedGasLimit": false
    },
    {
      "hash": "0x31073bd5da11a7409bc60bf2d870a15f07c6f708deb61df4ca04034de98584b1",
      "transactionType": "CALL",
      "contractName": null,
      "contractAddress": "0x029d8c5d7bb8808e02824b22296fe7fcbc728e97",
      "function": "addPlayersToPool(uint8,uint256[])",
      "arguments": [
        "3",
        "[46, 47, 48, 49, 50]"
      ],
      "transaction": {
        "from": "0x26154579219a6f1238c3b30d78c7a58fd2eb3482",
        "to": "0x029d8c5d7bb8808e02824b22296fe7fcbc728e97",
        "gas": "0x30bc8",
        "value": "0x0",
        "input": "0x12c6413d000000000000000000000000000000000000000000000000000000000000000300000000000000000000000000000000000000000000000000000000000000400000000000000000000000000000000000000000000000000000000000000005000000000000000000000000000000000000000000000000000000000000002e000000000000000000000000000000000000000000000000000000000000002f000000000000000000000000000000000000000000000000000000000000003000000000000000000000000000000000000000000000000000000000000000310000000000000000000000000000000000000000000000000000000000000032",
        "nonce": "0x60",
        "chainId": "0xaa36a7"
      },
      "additionalContracts": [],
      "isFixedGasLimit": false
    },
    {
      "hash": "0xee9e5f9f128a6fbbe095adebe17545b6622c3b709b2d31c5fbeb4b6eb5c042c7",
      "transactionType": "CALL",
      "contractName": null,
      "contractAddress": "0x029d8c5d7bb8808e02824b22296fe7fcbc728e97",
      "function": "addPlayersToPool(uint8,uint256[])",
      "arguments": [
        "4",
        "[51, 52]"
      ],
      "transaction": {
        "from": "0x26154579219a6f1238c3b30d78c7a58fd2eb3482",
        "to": "0x029d8c5d7bb8808e02824b22296fe7fcbc728e97",
        "gas": "0x19c27",
        "value": "0x0",
        "input": "0x12c6413d00000000000000000000000000000000000000000000000000000000000000040000000000000000000000000000000000000000000000000000000000000040000000000000000000000000000000000000000000000000000000000000000200000000000000000000000000000000000000000000000000000000000000330000000000000000000000000000000000000000000000000000000000000034",
        "nonce": "0x61",
        "chainId": "0xaa36a7"
      },
      "additionalContracts": [],
      "isFixedGasLimit": false
    }
  ],
  "receipts": [
    {
      "status": "0x1",
      "cumulativeGasUsed": "0xf04600",
      "logs": [
        {
          "address": "0x029d8c5d7bb8808e02824b22296fe7fcbc728e97",
          "topics": [
            "0x286b0085c46d7108cc7031149112e275872b38da3414f74d22f8a7a2e547027b",
            "0x0000000000000000000000000000000000000000000000000000000000000000"
          ],
          "data": "0x00000000000000000000000000000000000000000000000000038d7ea4c680000000000000000000000000000000000000000000000000000000000000000003",
          "blockHash": "0x251a0605ef3eb24c6c49fd34f982e1ba16ed2b6d5e5e87a2540d06bb1c9deba7",
          "blockNumber": "0x95d9e7",
          "blockTimestamp": "0x693b5d7c",
          "transactionHash": "0x9975a88d558a7f1fbf506f8647d4c67c9976b137316fe286654ca88232e37937",
          "transactionIndex": "0x49",
          "logIndex": "0x14a",
          "removed": false
        }
      ],
      "logsBloom": "0x00000000000000000000000000000000000000000000000000000000000000000000000000000000000000000000000000000000000000000000000000000000000000000000000000000040000000000000000000000000000000000000000000000000020000000000008000000800000000000000000000000000000000000000000000000000000000000000000000000000000000000000000001000000000000000000000000800000000000000000000000000000000000000000000000000000000000000000000000000000000000000000000000000000000021000000000800000000000000000000000000000000000000000000000000000000",
      "type": "0x2",
      "transactionHash": "0x9975a88d558a7f1fbf506f8647d4c67c9976b137316fe286654ca88232e37937",
      "transactionIndex": "0x49",
      "blockHash": "0x251a0605ef3eb24c6c49fd34f982e1ba16ed2b6d5e5e87a2540d06bb1c9deba7",
      "blockNumber": "0x95d9e7",
      "gasUsed": "0xc4ea",
      "effectiveGasPrice": "0xf424d",
      "from": "0x26154579219a6f1238c3b30d78c7a58fd2eb3482",
      "to": "0x029d8c5d7bb8808e02824b22296fe7fcbc728e97",
      "contractAddress": null
    },
    {
      "status": "0x1",
      "cumulativeGasUsed": "0xf10b02",
      "logs": [
        {
          "address": "0x029d8c5d7bb8808e02824b22296fe7fcbc728e97",
          "topics": [
            "0x286b0085c46d7108cc7031149112e275872b38da3414f74d22f8a7a2e547027b",
            "0x0000000000000000000000000000000000000000000000000000000000000001"
          ],
          "data": "0x0000000000000000000000000000000000000000000000000011c37937e080000000000000000000000000000000000000000000000000000000000000000005",
          "blockHash": "0x251a0605ef3eb24c6c49fd34f982e1ba16ed2b6d5e5e87a2540d06bb1c9deba7",
          "blockNumber": "0x95d9e7",
          "blockTimestamp": "0x693b5d7c",
          "transactionHash": "0x870aae9b2f722c1384cbbc0026a3dd63ad456ea6cb4b449341118671e1b2d589",
          "transactionIndex": "0x4a",
          "logIndex": "0x14b",
          "removed": false
        }
      ],
      "logsBloom": "0x00000000000000000000000000000000000000000000000000000000000000000000000000000000000000000000000000000000000000000000000000040000000000000000000000000040000000000000000000040000000000000000000000000000000000000000008000000000000000000000000000000000000000000000000000000000000000000000000000000000000000000000000001000000000000000000000000800000000000000000000000000000000000000000000000000000000000000000000000000000000000000000000000000000000041000000000800000000000000000000000000000000000000000000000000000000",
      "type": "0x2",
      "transactionHash": "0x870aae9b2f722c1384cbbc0026a3dd63ad456ea6cb4b449341118671e1b2d589",
      "transactionIndex": "0x4a",
      "blockHash": "0x251a0605ef3eb24c6c49fd34f982e1ba16ed2b6d5e5e87a2540d06bb1c9deba7",
      "blockNumber": "0x95d9e7",
      "gasUsed": "0xc502",
      "effectiveGasPrice": "0xf424d",
      "from": "0x26154579219a6f1238c3b30d78c7a58fd2eb3482",
      "to": "0x029d8c5d7bb8808e02824b22296fe7fcbc728e97",
      "contractAddress": null
    },
    {
      "status": "0x1",
      "cumulativeGasUsed": "0xf1cff8",
      "logs": [
        {
          "address": "0x029d8c5d7bb8808e02824b22296fe7fcbc728e97",
          "topics": [
            "0x286b0085c46d7108cc7031149112e275872b38da3414f74d22f8a7a2e547027b",
            "0x0000000000000000000000000000000000000000000000000000000000000002"
          ],
          "data": "0x000000000000000000000000000000000000000000000000002386f26fc10000000000000000000000000000000000000000000000000000000000000000000a",
          "blockHash": "0x251a0605ef3eb24c6c49fd34f982e1ba16ed2b6d5e5e87a2540d06bb1c9deba7",
          "blockNumber": "0x95d9e7",
          "blockTimestamp": "0x693b5d7c",
          "transactionHash": "0x28061fe3113f2d5767d303ffe7db2ec8f9d82ef85de475ecba9dbf66402bd90f",
          "transactionIndex": "0x4b",
          "logIndex": "0x14c",
          "removed": false
        }
      ],
      "logsBloom": "0x04000000000000000000000000000000000000000000000000000000000000000000000000000000000000000000000000000000000000000000000000000000000000000000000000000040000000000000000000000000000000000000000000000000000000000000008000000000000000000000000000000000000000000000000000000000000000000000000000000000000000000000000001000000000000000000000000800100000000000000000000000000000000000000000000000000000000000000000000000000000000000000000000000000000001000000000800000000000000000000000000000000008000000000000000000000",
      "type": "0x2",
      "transactionHash": "0x28061fe3113f2d5767d303ffe7db2ec8f9d82ef85de475ecba9dbf66402bd90f",
      "transactionIndex": "0x4b",
      "blockHash": "0x251a0605ef3eb24c6c49fd34f982e1ba16ed2b6d5e5e87a2540d06bb1c9deba7",
      "blockNumber": "0x95d9e7",
      "gasUsed": "0xc4f6",
      "effectiveGasPrice": "0xf424d",
      "from": "0x26154579219a6f1238c3b30d78c7a58fd2eb3482",
      "to": "0x029d8c5d7bb8808e02824b22296fe7fcbc728e97",
      "contractAddress": null
    },
    {
      "status": "0x1",
      "cumulativeGasUsed": "0xf93741",
      "logs": [
        {
          "address": "0x029d8c5d7bb8808e02824b22296fe7fcbc728e97",
          "topics": [
            "0x6e82d7c795d00fd9b64700b7c138eba363449f2b06f7cb91747c656c626c4759",
            "0x0000000000000000000000000000000000000000000000000000000000000000"
          ],
          "data": "0x000000000000000000000000000000000000000000000000000000000000003c",
          "blockHash": "0x251a0605ef3eb24c6c49fd34f982e1ba16ed2b6d5e5e87a2540d06bb1c9deba7",
          "blockNumber": "0x95d9e7",
          "blockTimestamp": "0x693b5d7c",
          "transactionHash": "0x81ee000a957e374ca933b11105157fbaeffa5c9d6f56087fdf1553bcceb1f8e7",
          "transactionIndex": "0x4c",
          "logIndex": "0x14d",
          "removed": false
        }
      ],
      "logsBloom": "0x00000000000000000000000000000000000000000000000000000000000020000000000000000000000000000000000000000000000000000000000000000000000000000000000000000040000000000000000000000000000000000000000000000000020000000000008000000800000000000000000000000000000000000000000000000000000000000000000000000000000000000000008001000000000000000000000000000000000000800000000000000000000000000000000000000000000000000000000000000000000000000000000000000000000020000000000000000000000000000000000000000000000000000000000000000000",
      "type": "0x2",
      "transactionHash": "0x81ee000a957e374ca933b11105157fbaeffa5c9d6f56087fdf1553bcceb1f8e7",
      "transactionIndex": "0x4c",
      "blockHash": "0x251a0605ef3eb24c6c49fd34f982e1ba16ed2b6d5e5e87a2540d06bb1c9deba7",
      "blockNumber": "0x95d9e7",
      "gasUsed": "0x76749",
      "effectiveGasPrice": "0xf424d",
      "from": "0x26154579219a6f1238c3b30d78c7a58fd2eb3482",
      "to": "0x029d8c5d7bb8808e02824b22296fe7fcbc728e97",
      "contractAddress": null
    },
    {
      "status": "0x1",
      "cumulativeGasUsed": "0xfee2fe",
      "logs": [
        {
          "address": "0x029d8c5d7bb8808e02824b22296fe7fcbc728e97",
          "topics": [
            "0x6e82d7c795d00fd9b64700b7c138eba363449f2b06f7cb91747c656c626c4759",
            "0x0000000000000000000000000000000000000000000000000000000000000001"
          ],
          "data": "0x000000000000000000000000000000000000000000000000000000000000002d",
          "blockHash": "0x251a0605ef3eb24c6c49fd34f982e1ba16ed2b6d5e5e87a2540d06bb1c9deba7",
          "blockNumber": "0x95d9e7",
          "blockTimestamp": "0x693b5d7c",
          "transactionHash": "0x2949aa758c6941ce7c0f66c4eb2af94258577121237c77ebff8bb622bcaba679",
          "transactionIndex": "0x4d",
          "logIndex": "0x14e",
          "removed": false
        }
      ],
      "logsBloom": "0x00000000000000000000000000000000000000000000000000000000000020000000000000000000000000000000000000000000000000000000000000040000000000000000000000000040000000000000000000040000000000000000000000000000000000000000008000000000000000000000000000000000000000000000000000000000000000000000000000000000000000000000008001000000000000000000000000000000000000800000000000000000000000000000000000000000000000000000000000000000000000000000000000000000000040000000000000000000000000000000000000000000000000000000000000000000",
      "type": "0x2",
      "transactionHash": "0x2949aa758c6941ce7c0f66c4eb2af94258577121237c77ebff8bb622bcaba679",
      "transactionIndex": "0x4d",
      "blockHash": "0x251a0605ef3eb24c6c49fd34f982e1ba16ed2b6d5e5e87a2540d06bb1c9deba7",
      "blockNumber": "0x95d9e7",
      "gasUsed": "0x5abbd",
      "effectiveGasPrice": "0xf424d",
      "from": "0x26154579219a6f1238c3b30d78c7a58fd2eb3482",
      "to": "0x029d8c5d7bb8808e02824b22296fe7fcbc728e97",
      "contractAddress": null
    },
    {
      "status": "0x1",
      "cumulativeGasUsed": "0x102d323",
      "logs": [
        {
          "address": "0x029d8c5d7bb8808e02824b22296fe7fcbc728e97",
          "topics": [
            "0x6e82d7c795d00fd9b64700b7c138eba363449f2b06f7cb91747c656c626c4759",
            "0x0000000000000000000000000000000000000000000000000000000000000002"
          ],
          "data": "0x000000000000000000000000000000000000000000000000000000000000001e",
          "blockHash": "0x251a0605ef3eb24c6c49fd34f982e1ba16ed2b6d5e5e87a2540d06bb1c9deba7",
          "blockNumber": "0x95d9e7",
          "blockTimestamp": "0x693b5d7c",
          "transactionHash": "0x5cbf31b43235000dba29f7bf2baa8f5d0dff80fc58622d1911979e9cd79a3c8a",
          "transactionIndex": "0x4e",
          "logIndex": "0x14f",
          "removed": false
        }
      ],
      "logsBloom": "0x04000000000000000000000000000000000000000000000000000000000020000000000000000000000000000000000000000000000000000000000000000000000000000000000000000040000000000000000000000000000000000000000000000000000000000000008000000000000000000000000000000000000000000000000000000000000000000000000000000000000000000000008001000000000000000000000000000100000000800000000000000000000000000000000000000000000000000000000000000000000000000000000000000000000000000000000000000000000000000000000000000000008000000000000000000000",
      "type": "0x2",
      "transactionHash": "0x5cbf31b43235000dba29f7bf2baa8f5d0dff80fc58622d1911979e9cd79a3c8a",
      "transactionIndex": "0x4e",
      "blockHash": "0x251a0605ef3eb24c6c49fd34f982e1ba16ed2b6d5e5e87a2540d06bb1c9deba7",
      "blockNumber": "0x95d9e7",
      "gasUsed": "0x3f025",
      "effectiveGasPrice": "0xf424d",
      "from": "0x26154579219a6f1238c3b30d78c7a58fd2eb3482",
      "to": "0x029d8c5d7bb8808e02824b22296fe7fcbc728e97",
      "contractAddress": null
    },
    {
      "status": "0x1",
      "cumulativeGasUsed": "0x10507b0",
      "logs": [
        {
          "address": "0x029d8c5d7bb8808e02824b22296fe7fcbc728e97",
          "topics": [
            "0x6e82d7c795d00fd9b64700b7c138eba363449f2b06f7cb91747c656c626c4759",
            "0x0000000000000000000000000000000000000000000000000000000000000003"
          ],
          "data": "0x000000000000000000000000000000000000000000000000000000000000000f",
          "blockHash": "0x251a0605ef3eb24c6c49fd34f982e1ba16ed2b6d5e5e87a2540d06bb1c9deba7",
          "blockNumber": "0x95d9e7",
          "blockTimestamp": "0x693b5d7c",
          "transactionHash": "0x31073bd5da11a7409bc60bf2d870a15f07c6f708deb61df4ca04034de98584b1",
          "transactionIndex": "0x4f",
          "logIndex": "0x150",
          "removed": false
        }
      ],
      "logsBloom": "0x00000000000000000000000000000000000000000000000000000000000020000000000000000000000000000000000000000000020000000000000000000000000000000000000000000040000000000000000000000000000000000000000000000000000000000000008000000000000000000000000000000000000000000000000000000000000000000000000000000000000000000000008001000000000000000000000000000000000000800000000000800000000000000000400000000000000000000000000000000000000000000000000000000000000000000000000000000000000000000000000000000000000000000000000000000000",
      "type": "0x2",
      "transactionHash": "0x31073bd5da11a7409bc60bf2d870a15f07c6f708deb61df4ca04034de98584b1",
      "transactionIndex": "0x4f",
      "blockHash": "0x251a0605ef3eb24c6c49fd34f982e1ba16ed2b6d5e5e87a2540d06bb1c9deba7",
      "blockNumber": "0x95d9e7",
      "gasUsed": "0x2348d",
      "effectiveGasPrice": "0xf424d",
      "from": "0x26154579219a6f1238c3b30d78c7a58fd2eb3482",
      "to": "0x029d8c5d7bb8808e02824b22296fe7fcbc728e97",
      "contractAddress": null
    },
    {
      "status": "0x1",
      "cumulativeGasUsed": "0x1063215",
      "logs": [
        {
          "address": "0x029d8c5d7bb8808e02824b22296fe7fcbc728e97",
          "topics": [
            "0x6e82d7c795d00fd9b64700b7c138eba363449f2b06f7cb91747c656c626c4759",
            "0x0000000000000000000000000000000000000000000000000000000000000004"
          ],
          "data": "0x0000000000000000000000000000000000000000000000000000000000000006",
          "blockHash": "0x251a0605ef3eb24c6c49fd34f982e1ba16ed2b6d5e5e87a2540d06bb1c9deba7",
          "blockNumber": "0x95d9e7",
          "blockTimestamp": "0x693b5d7c",
          "transactionHash": "0xee9e5f9f128a6fbbe095adebe17545b6622c3b709b2d31c5fbeb4b6eb5c042c7",
          "transactionIndex": "0x50",
          "logIndex": "0x151",
          "removed": false
        }
      ],
      "logsBloom": "0x00000000000000000000000000000000000000000000000000000000000020000000000000000000000000000000000000000000000000000000000000000000000000000000000000000040000000000000000000000000000000000000000008000000000000000000008000000000000000000000000000000000000000000000000000000000000000000000000000000000000000000000008001000000000000000000000000000000000000800000000000000000002000000000000000000000000000000000000000000000000000008000000000000000000000000000000000000000000000000000000000000000000000000000000000000000",
      "type": "0x2",
      "transactionHash": "0xee9e5f9f128a6fbbe095adebe17545b6622c3b709b2d31c5fbeb4b6eb5c042c7",
      "transactionIndex": "0x50",
      "blockHash": "0x251a0605ef3eb24c6c49fd34f982e1ba16ed2b6d5e5e87a2540d06bb1c9deba7",
      "blockNumber": "0x95d9e7",
      "gasUsed": "0x12a65",
      "effectiveGasPrice": "0xf424d",
      "from": "0x26154579219a6f1238c3b30d78c7a58fd2eb3482",
      "to": "0x029d8c5d7bb8808e02824b22296fe7fcbc728e97",
      "contractAddress": null
    }
  ],
  "libraries": [],
  "pending": [],
  "returns": {},
  "timestamp": 1765498237601,
  "chain": 11155111,
  "commit": "c08d105"
}