{
  "transactions": [
    {
      "hash": "0xcff546b0765bfafb5a5e2c718dadd95170332e0175e46789c96665b39baecdab",
      "transactionType": "CALL",
      "contractName": null,
      "contractAddress": "0xed4c2e92a1727ec15ed090fa5dc90273de220391",
      "function": "configurePackType(uint8,uint256,uint8,uint8[])",
      "arguments": [
        "0",
        "1000000000000000",
        "3",
        "[70, 20, 8, 2, 0]"
      ],
      "transaction": {
        "from": "0x26154579219a6f1238c3b30d78c7a58fd2eb3482",
        "to": "0xed4c2e92a1727ec15ed090fa5dc90273de220391",
        "gas": "0x2e6bb",
        "value": "0x0",
        "input": "0x0ffbd9e4000000000000000000000000000000000000000000000000000000000000000000000000000000000000000000000000000000000000000000038d7ea4c6800000000000000000000000000000000000000000000000000000000000000000030000000000000000000000000000000000000000000000000000000000000080000000000000000000000000000000000000000000000000000000000000000500000000000000000000000000000000000000000000000000000000000000460000000000000000000000000000000000000000000000000000000000000014000000000000000000000000000000000000000000000000000000000000000800000000000000000000000000000000000000000000000000000000000000020000000000000000000000000000000000000000000000000000000000000000",
        "nonce": "0x27",
        "chainId": "0xaa36a7"
      },
      "additionalContracts": [],
      "isFixedGasLimit": false
    },
    {
      "hash": "0x22ff5b27160423612dcf29494e5d3a98f02a7de05d308560c9811b3ebeec95ad",
      "transactionType": "CALL",
      "contractName": null,
      "contractAddress": "0xed4c2e92a1727ec15ed090fa5dc90273de220391",
      "function": "configurePackType(uint8,uint256,uint8,uint8[])",
      "arguments": [
        "1",
        "5000000000000000",
        "5",
        "[50, 30, 15, 4, 1]"
      ],
      "transaction": {
        "from": "0x26154579219a6f1238c3b30d78c7a58fd2eb3482",
        "to": "0xed4c2e92a1727ec15ed090fa5dc90273de220391",
        "gas": "0x2e6de",
        "value": "0x0",
        "input": "0x0ffbd9e400000000000000000000000000000000000000000000000000000000000000010000000000000000000000000000000000000000000000000011c37937e080000000000000000000000000000000000000000000000000000000000000000005000000000000000000000000000000000000000000000000000000000000008000000000000000000000000000000000000000000000000000000000000000050000000000000000000000000000000000000000000000000000000000000032000000000000000000000000000000000000000000000000000000000000001e000000000000000000000000000000000000000000000000000000000000000f00000000000000000000000000000000000000000000000000000000000000040000000000000000000000000000000000000000000000000000000000000001",
        "nonce": "0x28",
        "chainId": "0xaa36a7"
      },
      "additionalContracts": [],
      "isFixedGasLimit": false
    },
    {
      "hash": "0xedc69535cd5f1559a58c8cc6aacd6f0ed8f2c1919d4a92e79ca57d09d7dc42aa",
      "transactionType": "CALL",
      "contractName": null,
      "contractAddress": "0xed4c2e92a1727ec15ed090fa5dc90273de220391",
      "function": "configurePackType(uint8,uint256,uint8,uint8[])",
      "arguments": [
        "2",
        "10000000000000000",
        "10",
        "[40, 30, 20, 8, 2]"
      ],
      "transaction": {
        "from": "0x26154579219a6f1238c3b30d78c7a58fd2eb3482",
        "to": "0xed4c2e92a1727ec15ed090fa5dc90273de220391",
        "gas": "0x2bd88",
        "value": "0x0",
        "input": "0x0ffbd9e40000000000000000000000000000000000000000000000000000000000000002000000000000000000000000000000000000000000000000002386f26fc10000000000000000000000000000000000000000000000000000000000000000000a000000000000000000000000000000000000000000000000000000000000008000000000000000000000000000000000000000000000000000000000000000050000000000000000000000000000000000000000000000000000000000000028000000000000000000000000000000000000000000000000000000000000001e000000000000000000000000000000000000000000000000000000000000001400000000000000000000000000000000000000000000000000000000000000080000000000000000000000000000000000000000000000000000000000000002",
        "nonce": "0x29",
        "chainId": "0xaa36a7"
      },
      "additionalContracts": [],
      "isFixedGasLimit": false
    },
    {
      "hash": "0xe36591ecf0bf0bf972e46844f0160f32c59a863b8a0e3b49cb588e485db4c00c",
      "transactionType": "CALL",
      "contractName": null,
      "contractAddress": "0xed4c2e92a1727ec15ed090fa5dc90273de220391",
      "function": "addPlayersToPool(uint8,uint256[])",
      "arguments": [
        "0",
        "[1, 2, 3, 4, 5, 6, 7, 8, 9, 10, 11, 12, 13, 14, 15, 16, 17, 18, 19, 20]"
      ],
      "transaction": {
        "from": "0x26154579219a6f1238c3b30d78c7a58fd2eb3482",
        "to": "0xed4c2e92a1727ec15ed090fa5dc90273de220391",
        "gas": "0xa961f",
        "value": "0x0",
        "input": "0x12c6413d000000000000000000000000000000000000000000000000000000000000000000000000000000000000000000000000000000000000000000000000000000400000000000000000000000000000000000000000000000000000000000000014000000000000000000000000000000000000000000000000000000000000000100000000000000000000000000000000000000000000000000000000000000020000000000000000000000000000000000000000000000000000000000000003000000000000000000000000000000000000000000000000000000000000000400000000000000000000000000000000000000000000000000000000000000050000000000000000000000000000000000000000000000000000000000000006000000000000000000000000000000000000000000000000000000000000000700000000000000000000000000000000000000000000000000000000000000080000000000000000000000000000000000000000000000000000000000000009000000000000000000000000000000000000000000000000000000000000000a000000000000000000000000000000000000000000000000000000000000000b000000000000000000000000000000000000000000000000000000000000000c000000000000000000000000000000000000000000000000000000000000000d000000000000000000000000000000000000000000000000000000000000000e000000000000000000000000000000000000000000000000000000000000000f00000000000000000000000000000000000000000000000000000000000000100000000000000000000000000000000000000000000000000000000000000011000000000000000000000000000000000000000000000000000000000000001200000000000000000000000000000000000000000000000000000000000000130000000000000000000000000000000000000000000000000000000000000014",
        "nonce": "0x2a",
        "chainId": "0xaa36a7"
      },
      "additionalContracts": [],
      "isFixedGasLimit": false
    },
    {
      "hash": "0xd4834543934ffbd73d2b6cf5103cc360e42ffb3da8e71ef296601edfa792dac1",
      "transactionType": "CALL",
      "contractName": null,
      "contractAddress": "0xed4c2e92a1727ec15ed090fa5dc90273de220391",
      "function": "addPlayersToPool(uint8,uint256[])",
      "arguments": [
        "1",
        "[21, 22, 23, 24, 25, 26, 27, 28, 29, 30, 31, 32, 33, 34, 35]"
      ],
      "transaction": {
        "from": "0x26154579219a6f1238c3b30d78c7a58fd2eb3482",
        "to": "0xed4c2e92a1727ec15ed090fa5dc90273de220391",
        "gas": "0x8acdb",
        "value": "0x0",
        "input": "0x12c6413d00000000000000000000000000000000000000000000000000000000000000010000000000000000000000000000000000000000000000000000000000000040000000000000000000000000000000000000000000000000000000000000000f00000000000000000000000000000000000000000000000000000000000000150000000000000000000000000000000000000000000000000000000000000016000000000000000000000000000000000000000000000000000000000000001700000000000000000000000000000000000000000000000000000000000000180000000000000000000000000000000000000000000000000000000000000019000000000000000000000000000000000000000000000000000000000000001a000000000000000000000000000000000000000000000000000000000000001b000000000000000000000000000000000000000000000000000000000000001c000000000000000000000000000000000000000000000000000000000000001d000000000000000000000000000000000000000000000000000000000000001e000000000000000000000000000000000000000000000000000000000000001f0000000000000000000000000000000000000000000000000000000000000020000000000000000000000000000000000000000000000000000000000000002100000000000000000000000000000000000000000000000000000000000000220000000000000000000000000000000000000000000000000000000000000023",
        "nonce": "0x2b",
        "chainId": "0xaa36a7"
      },
      "additionalContracts": [],
      "isFixedGasLimit": false
    },
    {
      "hash": "0xe727550f66f2205884af99b065afa75f46f86f9f252c36f9c289a2bcac51463e",
      "transactionType": "CALL",
      "contractName": null,
      "contractAddress": "0xed4c2e92a1727ec15ed090fa5dc90273de220391",
      "function": "addPlayersToPool(uint8,uint256[])",
      "arguments": [
        "2",
        "[36, 37, 38, 39, 40, 41, 42, 43, 44, 45]"
      ],
      "transaction": {
        "from": "0x26154579219a6f1238c3b30d78c7a58fd2eb3482",
        "to": "0xed4c2e92a1727ec15ed090fa5dc90273de220391",
        "gas": "0x62419",
        "value": "0x0",
        "input": "0x12c6413d00000000000000000000000000000000000000000000000000000000000000020000000000000000000000000000000000000000000000000000000000000040000000000000000000000000000000000000000000000000000000000000000a000000000000000000000000000000000000000000000000000000000000002400000000000000000000000000000000000000000000000000000000000000250000000000000000000000000000000000000000000000000000000000000026000000000000000000000000000000000000000000000000000000000000002700000000000000000000000000000000000000000000000000000000000000280000000000000000000000000000000000000000000000000000000000000029000000000000000000000000000000000000000000000000000000000000002a000000000000000000000000000000000000000000000000000000000000002b000000000000000000000000000000000000000000000000000000000000002c000000000000000000000000000000000000000000000000000000000000002d",
        "nonce": "0x2c",
        "chainId": "0xaa36a7"
      },
      "additionalContracts": [],
      "isFixedGasLimit": false
    },
    {
      "hash": "0x0a1e585c0a7288ee13dbefaf7fc87c611097daea22e08a7325ea7c4e5a496e35",
      "transactionType": "CALL",
      "contractName": null,
      "contractAddress": "0xed4c2e92a1727ec15ed090fa5dc90273de220391",
      "function": "addPlayersToPool(uint8,uint256[])",
      "arguments": [
        "3",
        "[46, 47, 48, 49, 50]"
      ],
      "transaction": {
        "from": "0x26154579219a6f1238c3b30d78c7a58fd2eb3482",
        "to": "0xed4c2e92a1727ec15ed090fa5dc90273de220391",
        "gas": "0x39b58",
        "value": "0x0",
        "input": "0x12c6413d000000000000000000000000000000000000000000000000000000000000000300000000000000000000000000000000000000000000000000000000000000400000000000000000000000000000000000000000000000000000000000000005000000000000000000000000000000000000000000000000000000000000002e000000000000000000000000000000000000000000000000000000000000002f000000000000000000000000000000000000000000000000000000000000003000000000000000000000000000000000000000000000000000000000000000310000000000000000000000000000000000000000000000000000000000000032",
        "nonce": "0x2d",
        "chainId": "0xaa36a7"
      },
      "additionalContracts": [],
      "isFixedGasLimit": false
    },
    {
      "hash": "0x9c56de014ea089a60338870705bd5d277e2280fcbc2694d0db1c708e2b083ff0",
      "transactionType": "CALL",
      "contractName": null,
      "contractAddress": "0xed4c2e92a1727ec15ed090fa5dc90273de220391",
      "function": "addPlayersToPool(uint8,uint256[])",
      "arguments": [
        "4",
        "[51, 52]"
      ],
      "transaction": {
        "from": "0x26154579219a6f1238c3b30d78c7a58fd2eb3482",
        "to": "0xed4c2e92a1727ec15ed090fa5dc90273de220391",
        "gas": "0x21617",
        "value": "0x0",
        "input": "0x12c6413d00000000000000000000000000000000000000000000000000000000000000040000000000000000000000000000000000000000000000000000000000000040000000000000000000000000000000000000000000000000000000000000000200000000000000000000000000000000000000000000000000000000000000330000000000000000000000000000000000000000000000000000000000000034",
        "nonce": "0x2e",
        "chainId": "0xaa36a7"
      },
      "additionalContracts": [],
      "isFixedGasLimit": false
    }
  ],
  "receipts": [
    {
      "status": "0x1",
      "cumulativeGasUsed": "0x5a3cd8",
      "logs": [
        {
          "address": "0xed4c2e92a1727ec15ed090fa5dc90273de220391",
          "topics": [
            "0x286b0085c46d7108cc7031149112e275872b38da3414f74d22f8a7a2e547027b",
            "0x0000000000000000000000000000000000000000000000000000000000000000"
          ],
          "data": "0x00000000000000000000000000000000000000000000000000038d7ea4c680000000000000000000000000000000000000000000000000000000000000000003",
          "blockHash": "0x7a16a0cb1774232877668edf37e2450a1cb758a8245298319fa50d8a6c2948d6",
          "blockNumber": "0x948813",
          "blockTimestamp": "0x692b6aac",
          "transactionHash": "0xcff546b0765bfafb5a5e2c718dadd95170332e0175e46789c96665b39baecdab",
          "transactionIndex": "0x2a",
          "logIndex": "0x54",
          "removed": false
        }
      ],
      "logsBloom": "0x00000400000000000000000000000000000000000000000000000000000000000000000000000000000000000000000000000000000000000800000000000000000000000000000000000000000000040000000000000000000000000000000000000000020000000000000000000800000000000000000000000000000000000000000000000000000000000000000000000000000000000000000000000000000000000000000000800000000000000000000000000000000000000000000000000000000000000000000000000000000000000000000000000000000021000000000800000000000000000000000000000000000000000000000000000000",
      "type": "0x2",
      "transactionHash": "0xcff546b0765bfafb5a5e2c718dadd95170332e0175e46789c96665b39baecdab",
      "transactionIndex": "0x2a",
      "blockHash": "0x7a16a0cb1774232877668edf37e2450a1cb758a8245298319fa50d8a6c2948d6",
      "blockNumber": "0x948813",
      "gasUsed": "0x1fbda",
      "effectiveGasPrice": "0xf4862",
      "from": "0x26154579219a6f1238c3b30d78c7a58fd2eb3482",
      "to": "0xed4c2e92a1727ec15ed090fa5dc90273de220391",
      "contractAddress": null
    },
    {
      "status": "0x1",
      "cumulativeGasUsed": "0x5c38ca",
      "logs": [
        {
          "address": "0xed4c2e92a1727ec15ed090fa5dc90273de220391",
          "topics": [
            "0x286b0085c46d7108cc7031149112e275872b38da3414f74d22f8a7a2e547027b",
            "0x0000000000000000000000000000000000000000000000000000000000000001"
          ],
          "data": "0x0000000000000000000000000000000000000000000000000011c37937e080000000000000000000000000000000000000000000000000000000000000000005",
          "blockHash": "0x7a16a0cb1774232877668edf37e2450a1cb758a8245298319fa50d8a6c2948d6",
          "blockNumber": "0x948813",
          "blockTimestamp": "0x692b6aac",
          "transactionHash": "0x22ff5b27160423612dcf29494e5d3a98f02a7de05d308560c9811b3ebeec95ad",
          "transactionIndex": "0x2b",
          "logIndex": "0x55",
          "removed": false
        }
      ],
      "logsBloom": "0x00000400000000000000000000000000000000000000000000000000000000000000000000000000000000000000000000000000000000000800000000040000000000000000000000000000000000040000000000040000000000000000000000000000000000000000000000000000000000000000000000000000000000000000000000000000000000000000000000000000000000000000000000000000000000000000000000800000000000000000000000000000000000000000000000000000000000000000000000000000000000000000000000000000000041000000000800000000000000000000000000000000000000000000000000000000",
      "type": "0x2",
      "transactionHash": "0x22ff5b27160423612dcf29494e5d3a98f02a7de05d308560c9811b3ebeec95ad",
      "transactionIndex": "0x2b",
      "blockHash": "0x7a16a0cb1774232877668edf37e2450a1cb758a8245298319fa50d8a6c2948d6",
      "blockNumber": "0x948813",
      "gasUsed": "0x1fbf2",
      "effectiveGasPrice": "0xf4862",
      "from": "0x26154579219a6f1238c3b30d78c7a58fd2eb3482",
      "to": "0xed4c2e92a1727ec15ed090fa5dc90273de220391",
      "contractAddress": null
    },
    {
      "status": "0x1",
      "cumulativeGasUsed": "0x5e34b0",
      "logs": [
        {
          "address": "0xed4c2e92a1727ec15ed090fa5dc90273de220391",
          "topics": [
            "0x286b0085c46d7108cc7031149112e275872b38da3414f74d22f8a7a2e547027b",
            "0x0000000000000000000000000000000000000000000000000000000000000002"
          ],
          "data": "0x000000000000000000000000000000000000000000000000002386f26fc10000000000000000000000000000000000000000000000000000000000000000000a",
          "blockHash": "0x7a16a0cb1774232877668edf37e2450a1cb758a8245298319fa50d8a6c2948d6",
          "blockNumber": "0x948813",
          "blockTimestamp": "0x692b6aac",
          "transactionHash": "0xedc69535cd5f1559a58c8cc6aacd6f0ed8f2c1919d4a92e79ca57d09d7dc42aa",
          "transactionIndex": "0x2c",
          "logIndex": "0x56",
          "removed": false
        }
      ],
      "logsBloom": "0x04000400000000000000000000000000000000000000000000000000000000000000000000000000000000000000000000000000000000000800000000000000000000000000000000000000000000040000000000000000000000000000000000000000000000000000000000000000000000000000000000000000000000000000000000000000000000000000000000000000000000000000000000000000000000000000000000800100000000000000000000000000000000000000000000000000000000000000000000000000000000000000000000000000000001000000000800000000000000000000000000000000008000000000000000000000",
      "type": "0x2",
      "transactionHash": "0xedc69535cd5f1559a58c8cc6aacd6f0ed8f2c1919d4a92e79ca57d09d7dc42aa",
      "transactionIndex": "0x2c",
      "blockHash": "0x7a16a0cb1774232877668edf37e2450a1cb758a8245298319fa50d8a6c2948d6",
      "blockNumber": "0x948813",
      "gasUsed": "0x1fbe6",
      "effectiveGasPrice": "0xf4862",
      "from": "0x26154579219a6f1238c3b30d78c7a58fd2eb3482",
      "to": "0xed4c2e92a1727ec15ed090fa5dc90273de220391",
      "contractAddress": null
    },
    {
      "status": "0x1",
      "cumulativeGasUsed": "0x65dec5",
      "logs": [
        {
          "address": "0xed4c2e92a1727ec15ed090fa5dc90273de220391",
          "topics": [
            "0x6e82d7c795d00fd9b64700b7c138eba363449f2b06f7cb91747c656c626c4759",
            "0x0000000000000000000000000000000000000000000000000000000000000000"
          ],
          "data": "0x0000000000000000000000000000000000000000000000000000000000000014",
          "blockHash": "0x7a16a0cb1774232877668edf37e2450a1cb758a8245298319fa50d8a6c2948d6",
          "blockNumber": "0x948813",
          "blockTimestamp": "0x692b6aac",
          "transactionHash": "0xe36591ecf0bf0bf972e46844f0160f32c59a863b8a0e3b49cb588e485db4c00c",
          "transactionIndex": "0x2d",
          "logIndex": "0x57",
          "removed": false
        }
      ],
      "logsBloom": "0x00000400000000000000000000000000000000000000000000000000000020000000000000000000000000000000000000000000000000000800000000000000000000000000000000000000000000040000000000000000000000000000000000000000020000000000000000000800000000000000000000000000000000000000000000000000000000000000000000000000000000000000008000000000000000000000000000000000000000800000000000000000000000000000000000000000000000000000000000000000000000000000000000000000000020000000000000000000000000000000000000000000000000000000000000000000",
      "type": "0x2",
      "transactionHash": "0xe36591ecf0bf0bf972e46844f0160f32c59a863b8a0e3b49cb588e485db4c00c",
      "transactionIndex": "0x2d",
      "blockHash": "0x7a16a0cb1774232877668edf37e2450a1cb758a8245298319fa50d8a6c2948d6",
      "blockNumber": "0x948813",
      "gasUsed": "0x7aa15",
      "effectiveGasPrice": "0xf4862",
      "from": "0x26154579219a6f1238c3b30d78c7a58fd2eb3482",
      "to": "0xed4c2e92a1727ec15ed090fa5dc90273de220391",
      "contractAddress": null
    },
    {
      "status": "0x1",
      "cumulativeGasUsed": "0x6bcd4e",
      "logs": [
        {
          "address": "0xed4c2e92a1727ec15ed090fa5dc90273de220391",
          "topics": [
            "0x6e82d7c795d00fd9b64700b7c138eba363449f2b06f7cb91747c656c626c4759",
            "0x0000000000000000000000000000000000000000000000000000000000000001"
          ],
          "data": "0x000000000000000000000000000000000000000000000000000000000000000f",
          "blockHash": "0x7a16a0cb1774232877668edf37e2450a1cb758a8245298319fa50d8a6c2948d6",
          "blockNumber": "0x948813",
          "blockTimestamp": "0x692b6aac",
          "transactionHash": "0xd4834543934ffbd73d2b6cf5103cc360e42ffb3da8e71ef296601edfa792dac1",
          "transactionIndex": "0x2e",
          "logIndex": "0x58",
          "removed": false
        }
      ],
      "logsBloom": "0x00000400000000000000000000000000000000000000000000000000000020000000000000000000000000000000000000000000000000000800000000040000000000000000000000000000000000040000000000040000000000000000000000000000000000000000000000000000000000000000000000000000000000000000000000000000000000000000000000000000000000000000008000000000000000000000000000000000000000800000000000000000000000000000000000000000000000000000000000000000000000000000000000000000000040000000000000000000000000000000000000000000000000000000000000000000",
      "type": "0x2",
      "transactionHash": "0xd4834543934ffbd73d2b6cf5103cc360e42ffb3da8e71ef296601edfa792dac1",
      "transactionIndex": "0x2e",
      "blockHash": "0x7a16a0cb1774232877668edf37e2450a1cb758a8245298319fa50d8a6c2948d6",
      "blockNumber": "0x948813",
      "gasUsed": "0x5ee89",
      "effectiveGasPrice": "0xf4862",
      "from": "0x26154579219a6f1238c3b30d78c7a58fd2eb3482",
      "to": "0xed4c2e92a1727ec15ed090fa5dc90273de220391",
      "contractAddress": null
    },
    {
      "status": "0x1",
      "cumulativeGasUsed": "0x70003f",
      "logs": [
        {
          "address": "0xed4c2e92a1727ec15ed090fa5dc90273de220391",
          "topics": [
            "0x6e82d7c795d00fd9b64700b7c138eba363449f2b06f7cb91747c656c626c4759",
            "0x0000000000000000000000000000000000000000000000000000000000000002"
          ],
          "data": "0x000000000000000000000000000000000000000000000000000000000000000a",
          "blockHash": "0x7a16a0cb1774232877668edf37e2450a1cb758a8245298319fa50d8a6c2948d6",
          "blockNumber": "0x948813",
          "blockTimestamp": "0x692b6aac",
          "transactionHash": "0xe727550f66f2205884af99b065afa75f46f86f9f252c36f9c289a2bcac51463e",
          "transactionIndex": "0x2f",
          "logIndex": "0x59",
          "removed": false
        }
      ],
      "logsBloom": "0x04000400000000000000000000000000000000000000000000000000000020000000000000000000000000000000000000000000000000000800000000000000000000000000000000000000000000040000000000000000000000000000000000000000000000000000000000000000000000000000000000000000000000000000000000000000000000000000000000000000000000000000008000000000000000000000000000000100000000800000000000000000000000000000000000000000000000000000000000000000000000000000000000000000000000000000000000000000000000000000000000000000008000000000000000000000",
      "type": "0x2",
      "transactionHash": "0xe727550f66f2205884af99b065afa75f46f86f9f252c36f9c289a2bcac51463e",
      "transactionIndex": "0x2f",
      "blockHash": "0x7a16a0cb1774232877668edf37e2450a1cb758a8245298319fa50d8a6c2948d6",
      "blockNumber": "0x948813",
      "gasUsed": "0x432f1",
      "effectiveGasPrice": "0xf4862",
      "from": "0x26154579219a6f1238c3b30d78c7a58fd2eb3482",
      "to": "0xed4c2e92a1727ec15ed090fa5dc90273de220391",
      "contractAddress": null
    },
    {
      "status": "0x1",
      "cumulativeGasUsed": "0x727798",
      "logs": [
        {
          "address": "0xed4c2e92a1727ec15ed090fa5dc90273de220391",
          "topics": [
            "0x6e82d7c795d00fd9b64700b7c138eba363449f2b06f7cb91747c656c626c4759",
            "0x0000000000000000000000000000000000000000000000000000000000000003"
          ],
          "data": "0x0000000000000000000000000000000000000000000000000000000000000005",
          "blockHash": "0x7a16a0cb1774232877668edf37e2450a1cb758a8245298319fa50d8a6c2948d6",
          "blockNumber": "0x948813",
          "blockTimestamp": "0x692b6aac",
          "transactionHash": "0x0a1e585c0a7288ee13dbefaf7fc87c611097daea22e08a7325ea7c4e5a496e35",
          "transactionIndex": "0x30",
          "logIndex": "0x5a",
          "removed": false
        }
      ],
      "logsBloom": "0x00000400000000000000000000000000000000000000000000000000000020000000000000000000000000000000000000000000020000000800000000000000000000000000000000000000000000040000000000000000000000000000000000000000000000000000000000000000000000000000000000000000000000000000000000000000000000000000000000000000000000000000008000000000000000000000000000000000000000800000000000800000000000000000400000000000000000000000000000000000000000000000000000000000000000000000000000000000000000000000000000000000000000000000000000000000",
      "type": "0x2",
      "transactionHash": "0x0a1e585c0a7288ee13dbefaf7fc87c611097daea22e08a7325ea7c4e5a496e35",
      "transactionIndex": "0x30",
      "blockHash": "0x7a16a0cb1774232877668edf37e2450a1cb758a8245298319fa50d8a6c2948d6",
      "blockNumber": "0x948813",
      "gasUsed": "0x27759",
      "effectiveGasPrice": "0xf4862",
      "from": "0x26154579219a6f1238c3b30d78c7a58fd2eb3482",
      "to": "0xed4c2e92a1727ec15ed090fa5dc90273de220391",
      "contractAddress": null
    },
    {
      "status": "0x1",
      "cumulativeGasUsed": "0x73e4c9",
      "logs": [
        {
          "address": "0xed4c2e92a1727ec15ed090fa5dc90273de220391",
          "topics": [
            "0x6e82d7c795d00fd9b64700b7c138eba363449f2b06f7cb91747c656c626c4759",
            "0x0000000000000000000000000000000000000000000000000000000000000004"
          ],
          "data": "0x0000000000000000000000000000000000000000000000000000000000000002",
          "blockHash": "0x7a16a0cb1774232877668edf37e2450a1cb758a8245298319fa50d8a6c2948d6",
          "blockNumber": "0x948813",
          "blockTimestamp": "0x692b6aac",
          "transactionHash": "0x9c56de014ea089a60338870705bd5d277e2280fcbc2694d0db1c708e2b083ff0",
          "transactionIndex": "0x31",
          "logIndex": "0x5b",
          "removed": false
        }
      ],
      "logsBloom": "0x00000400000000000000000000000000000000000000000000000000000020000000000000000000000000000000000000000000000000000800000000000000000000000000000000000000000000040000000000000000000000000000000008000000000000000000000000000000000000000000000000000000000000000000000000000000000000000000000000000000000000000000008000000000000000000000000000000000000000800000000000000000002000000000000000000000000000000000000000000000000000008000000000000000000000000000000000000000000000000000000000000000000000000000000000000000",
      "type": "0x2",
      "transactionHash": "0x9c56de014ea089a60338870705bd5d277e2280fcbc2694d0db1c708e2b083ff0",
      "transactionIndex": "0x31",
      "blockHash": "0x7a16a0cb1774232877668edf37e2450a1cb758a8245298319fa50d8a6c2948d6",
      "blockNumber": "0x948813",
      "gasUsed": "0x16d31",
      "effectiveGasPrice": "0xf4862",
      "from": "0x26154579219a6f1238c3b30d78c7a58fd2eb3482",
      "to": "0xed4c2e92a1727ec15ed090fa5dc90273de220391",
      "contractAddress": null
    }
  ],
  "libraries": [],
  "pending": [],
  "returns": {},
  "timestamp": 1764453037641,
  "chain": 11155111,
  "commit": "8c2d04b"
}