{
  "transactions": [
    {
      "hash": "0x3d5437dc9903e5f2969fe4541b4b3e1ab80846cb6b4279789dcda8ad3f8fdb61",
      "transactionType": "CALL",
      "contractName": null,
      "contractAddress": "0x029d8c5d7bb8808e02824b22296fe7fcbc728e97",
      "function": "configurePackType(uint8,uint256,uint8,uint8[])",
      "arguments": [
        "0",
        "1000000000000000",
        "3",
        "[70, 20, 8, 2, 0]"
      ],
      "transaction": {
        "from": "0x26154579219a6f1238c3b30d78c7a58fd2eb3482",
        "to": "0x029d8c5d7bb8808e02824b22296fe7fcbc728e97",
        "gas": "0x11ffc",
        "value": "0x0",
        "input": "0x0ffbd9e4000000000000000000000000000000000000000000000000000000000000000000000000000000000000000000000000000000000000000000038d7ea4c6800000000000000000000000000000000000000000000000000000000000000000030000000000000000000000000000000000000000000000000000000000000080000000000000000000000000000000000000000000000000000000000000000500000000000000000000000000000000000000000000000000000000000000460000000000000000000000000000000000000000000000000000000000000014000000000000000000000000000000000000000000000000000000000000000800000000000000000000000000000000000000000000000000000000000000020000000000000000000000000000000000000000000000000000000000000000",
        "nonce": "0x52",
        "chainId": "0xaa36a7"
      },
      "additionalContracts": [],
      "isFixedGasLimit": false
    },
    {
      "hash": "0x2cc192acc884e47eaed3e56cc3d1abb10efee1c7983c537a3a809df21141f3e6",
      "transactionType": "CALL",
      "contractName": null,
      "contractAddress": "0x029d8c5d7bb8808e02824b22296fe7fcbc728e97",
      "function": "configurePackType(uint8,uint256,uint8,uint8[])",
      "arguments": [
        "1",
        "5000000000000000",
        "5",
        "[50, 30, 15, 4, 1]"
      ],
      "transaction": {
        "from": "0x26154579219a6f1238c3b30d78c7a58fd2eb3482",
        "to": "0x029d8c5d7bb8808e02824b22296fe7fcbc728e97",
        "gas": "0x1201f",
        "value": "0x0",
        "input": "0x0ffbd9e400000000000000000000000000000000000000000000000000000000000000010000000000000000000000000000000000000000000000000011c37937e080000000000000000000000000000000000000000000000000000000000000000005000000000000000000000000000000000000000000000000000000000000008000000000000000000000000000000000000000000000000000000000000000050000000000000000000000000000000000000000000000000000000000000032000000000000000000000000000000000000000000000000000000000000001e000000000000000000000000000000000000000000000000000000000000000f00000000000000000000000000000000000000000000000000000000000000040000000000000000000000000000000000000000000000000000000000000001",
        "nonce": "0x53",
        "chainId": "0xaa36a7"
      },
      "additionalContracts": [],
      "isFixedGasLimit": false
    },
    {
      "hash": "0xd87ecc402d6a62f0fffd6158389c5262aaeaf61592db5d405d5a35d35ba94113",
      "transactionType": "CALL",
      "contractName": null,
      "contractAddress": "0x029d8c5d7bb8808e02824b22296fe7fcbc728e97",
      "function": "configurePackType(uint8,uint256,uint8,uint8[])",
      "arguments": [
        "2",
        "10000000000000000",
        "10",
        "[40, 30, 20, 8, 2]"
      ],
      "transaction": {
        "from": "0x26154579219a6f1238c3b30d78c7a58fd2eb3482",
        "to": "0x029d8c5d7bb8808e02824b22296fe7fcbc728e97",
        "gas": "0x1100c",
        "value": "0x0",
        "input": "0x0ffbd9e40000000000000000000000000000000000000000000000000000000000000002000000000000000000000000000000000000000000000000002386f26fc10000000000000000000000000000000000000000000000000000000000000000000a000000000000000000000000000000000000000000000000000000000000008000000000000000000000000000000000000000000000000000000000000000050000000000000000000000000000000000000000000000000000000000000028000000000000000000000000000000000000000000000000000000000000001e000000000000000000000000000000000000000000000000000000000000001400000000000000000000000000000000000000000000000000000000000000080000000000000000000000000000000000000000000000000000000000000002",
        "nonce": "0x54",
        "chainId": "0xaa36a7"
      },
      "additionalContracts": [],
      "isFixedGasLimit": false
    },
    {
      "hash": "0x9c75d557c1b07ec616846e7c4e259d1dfb4ce62bd791daac26a82b589d972890",
      "transactionType": "CALL",
      "contractName": null,
      "contractAddress": "0x029d8c5d7bb8808e02824b22296fe7fcbc728e97",
      "function": "addPlayersToPool(uint8,uint256[])",
      "arguments": [
        "0",
        "[1, 2, 3, 4, 5, 6, 7, 8, 9, 10, 11, 12, 13, 14, 15, 16, 17, 18, 19, 20]"
      ],
      "transaction": {
        "from": "0x26154579219a6f1238c3b30d78c7a58fd2eb3482",
        "to": "0x029d8c5d7bb8808e02824b22296fe7fcbc728e97",
        "gas": "0xad3da",
        "value": "0x0",
        "input": "0x12c6413d000000000000000000000000000000000000000000000000000000000000000000000000000000000000000000000000000000000000000000000000000000400000000000000000000000000000000000000000000000000000000000000014000000000000000000000000000000000000000000000000000000000000000100000000000000000000000000000000000000000000000000000000000000020000000000000000000000000000000000000000000000000000000000000003000000000000000000000000000000000000000000000000000000000000000400000000000000000000000000000000000000000000000000000000000000050000000000000000000000000000000000000000000000000000000000000006000000000000000000000000000000000000000000000000000000000000000700000000000000000000000000000000000000000000000000000000000000080000000000000000000000000000000000000000000000000000000000000009000000000000000000000000000000000000000000000000000000000000000a000000000000000000000000000000000000000000000000000000000000000b000000000000000000000000000000000000000000000000000000000000000c000000000000000000000000000000000000000000000000000000000000000d000000000000000000000000000000000000000000000000000000000000000e000000000000000000000000000000000000000000000000000000000000000f00000000000000000000000000000000000000000000000000000000000000100000000000000000000000000000000000000000000000000000000000000011000000000000000000000000000000000000000000000000000000000000001200000000000000000000000000000000000000000000000000000000000000130000000000000000000000000000000000000000000000000000000000000014",
        "nonce": "0x55",
        "chainId": "0xaa36a7"
      },
      "additionalContracts": [],
      "isFixedGasLimit": false
    },
    {
      "hash": "0x854ce71c9ce761c0b3cf486e86131382fbf88195b512b48e3d20d48d4d2b5ae9",
      "transactionType": "CALL",
      "contractName": null,
      "contractAddress": "0x029d8c5d7bb8808e02824b22296fe7fcbc728e97",
      "function": "addPlayersToPool(uint8,uint256[])",
      "arguments": [
        "1",
        "[21, 22, 23, 24, 25, 26, 27, 28, 29, 30, 31, 32, 33, 34, 35]"
      ],
      "transaction": {
        "from": "0x26154579219a6f1238c3b30d78c7a58fd2eb3482",
        "to": "0x029d8c5d7bb8808e02824b22296fe7fcbc728e97",
        "gas": "0x7d535",
        "value": "0x0",
        "input": "0x12c6413d00000000000000000000000000000000000000000000000000000000000000010000000000000000000000000000000000000000000000000000000000000040000000000000000000000000000000000000000000000000000000000000000f00000000000000000000000000000000000000000000000000000000000000150000000000000000000000000000000000000000000000000000000000000016000000000000000000000000000000000000000000000000000000000000001700000000000000000000000000000000000000000000000000000000000000180000000000000000000000000000000000000000000000000000000000000019000000000000000000000000000000000000000000000000000000000000001a000000000000000000000000000000000000000000000000000000000000001b000000000000000000000000000000000000000000000000000000000000001c000000000000000000000000000000000000000000000000000000000000001d000000000000000000000000000000000000000000000000000000000000001e000000000000000000000000000000000000000000000000000000000000001f0000000000000000000000000000000000000000000000000000000000000020000000000000000000000000000000000000000000000000000000000000002100000000000000000000000000000000000000000000000000000000000000220000000000000000000000000000000000000000000000000000000000000023",
        "nonce": "0x56",
        "chainId": "0xaa36a7"
      },
      "additionalContracts": [],
      "isFixedGasLimit": false
    },
    {
      "hash": "0xf89b94f24703c9ec601f62ecb30a2213329cb7ce06d720ff4c4fb27af0fc586a",
      "transactionType": "CALL",
      "contractName": null,
      "contractAddress": "0x029d8c5d7bb8808e02824b22296fe7fcbc728e97",
      "function": "addPlayersToPool(uint8,uint256[])",
      "arguments": [
        "2",
        "[36, 37, 38, 39, 40, 41, 42, 43, 44, 45]"
      ],
      "transaction": {
        "from": "0x26154579219a6f1238c3b30d78c7a58fd2eb3482",
        "to": "0x029d8c5d7bb8808e02824b22296fe7fcbc728e97",
        "gas": "0x5707f",
        "value": "0x0",
        "input": "0x12c6413d00000000000000000000000000000000000000000000000000000000000000020000000000000000000000000000000000000000000000000000000000000040000000000000000000000000000000000000000000000000000000000000000a000000000000000000000000000000000000000000000000000000000000002400000000000000000000000000000000000000000000000000000000000000250000000000000000000000000000000000000000000000000000000000000026000000000000000000000000000000000000000000000000000000000000002700000000000000000000000000000000000000000000000000000000000000280000000000000000000000000000000000000000000000000000000000000029000000000000000000000000000000000000000000000000000000000000002a000000000000000000000000000000000000000000000000000000000000002b000000000000000000000000000000000000000000000000000000000000002c000000000000000000000000000000000000000000000000000000000000002d",
        "nonce": "0x57",
        "chainId": "0xaa36a7"
      },
      "additionalContracts": [],
      "isFixedGasLimit": false
    },
    {
      "hash": "0x99782f66e2fff64c2e40f8db7f747b2495a9530fa548232e113a9d4f573f7c0e",
      "transactionType": "CALL",
      "contractName": null,
      "contractAddress": "0x029d8c5d7bb8808e02824b22296fe7fcbc728e97",
      "function": "addPlayersToPool(uint8,uint256[])",
      "arguments": [
        "3",
        "[46, 47, 48, 49, 50]"
      ],
      "transaction": {
        "from": "0x26154579219a6f1238c3b30d78c7a58fd2eb3482",
        "to": "0x029d8c5d7bb8808e02824b22296fe7fcbc728e97",
        "gas": "0x30bc8",
        "value": "0x0",
        "input": "0x12c6413d000000000000000000000000000000000000000000000000000000000000000300000000000000000000000000000000000000000000000000000000000000400000000000000000000000000000000000000000000000000000000000000005000000000000000000000000000000000000000000000000000000000000002e000000000000000000000000000000000000000000000000000000000000002f000000000000000000000000000000000000000000000000000000000000003000000000000000000000000000000000000000000000000000000000000000310000000000000000000000000000000000000000000000000000000000000032",
        "nonce": "0x58",
        "chainId": "0xaa36a7"
      },
      "additionalContracts": [],
      "isFixedGasLimit": false
    },
    {
      "hash": "0x11b71f523a26fd697461cf2960bc12ed4f34a9be4eec17f7fc17ab5cd37e0e13",
      "transactionType": "CALL",
      "contractName": null,
      "contractAddress": "0x029d8c5d7bb8808e02824b22296fe7fcbc728e97",
      "function": "addPlayersToPool(uint8,uint256[])",
      "arguments": [
        "4",
        "[51, 52]"
      ],
      "transaction": {
        "from": "0x26154579219a6f1238c3b30d78c7a58fd2eb3482",
        "to": "0x029d8c5d7bb8808e02824b22296fe7fcbc728e97",
        "gas": "0x19c27",
        "value": "0x0",
        "input": "0x12c6413d00000000000000000000000000000000000000000000000000000000000000040000000000000000000000000000000000000000000000000000000000000040000000000000000000000000000000000000000000000000000000000000000200000000000000000000000000000000000000000000000000000000000000330000000000000000000000000000000000000000000000000000000000000034",
        "nonce": "0x59",
        "chainId": "0xaa36a7"
      },
      "additionalContracts": [],
      "isFixedGasLimit": false
    }
  ],
  "receipts": [
    {
      "status": "0x1",
      "cumulativeGasUsed": "0xad16ad",
      "logs": [
        {
          "address": "0x029d8c5d7bb8808e02824b22296fe7fcbc728e97",
          "topics": [
            "0x286b0085c46d7108cc7031149112e275872b38da3414f74d22f8a7a2e547027b",
            "0x0000000000000000000000000000000000000000000000000000000000000000"
          ],
          "data": "0x00000000000000000000000000000000000000000000000000038d7ea4c680000000000000000000000000000000000000000000000000000000000000000003",
          "blockHash": "0xde913821e6c531f97385bddd5b7f33d7db1d4d0575dc38094dd5173c50e10cdf",
          "blockNumber": "0x95d9d6",
          "blockTimestamp": "0x693b5cb0",
          "transactionHash": "0x11b71f523a26fd697461cf2960bc12ed4f34a9be4eec17f7fc17ab5cd37e0e13",
          "transactionIndex": "0x34",
          "logIndex": "0x10a",
          "removed": false
        }
      ],
      "logsBloom": "0x00000000000000000000000000000000000000000000000000000000000000000000000000000000000000000000000000000000000000000000000000000000000000000000000000000040000000000000000000000000000000000000000000000000020000000000008000000800000000000000000000000000000000000000000000000000000000000000000000000000000000000000000001000000000000000000000000800000000000000000000000000000000000000000000000000000000000000000000000000000000000000000000000000000000021000000000800000000000000000000000000000000000000000000000000000000",
      "type": "0x2",
      "transactionHash": "0x11b71f523a26fd697461cf2960bc12ed4f34a9be4eec17f7fc17ab5cd37e0e13",
      "transactionIndex": "0x34",
      "blockHash": "0xde913821e6c531f97385bddd5b7f33d7db1d4d0575dc38094dd5173c50e10cdf",
      "blockNumber": "0x95d9d6",
      "gasUsed": "0xc4ea",
      "effectiveGasPrice": "0x10060b",
      "from": "0x26154579219a6f1238c3b30d78c7a58fd2eb3482",
      "to": "0x029d8c5d7bb8808e02824b22296fe7fcbc728e97",
      "contractAddress": null
    },
    {
      "status": "0x1",
      "cumulativeGasUsed": "0xaddbaf",
      "logs": [
        {
          "address": "0x029d8c5d7bb8808e02824b22296fe7fcbc728e97",
          "topics": [
            "0x286b0085c46d7108cc7031149112e275872b38da3414f74d22f8a7a2e547027b",
            "0x0000000000000000000000000000000000000000000000000000000000000001"
          ],
          "data": "0x0000000000000000000000000000000000000000000000000011c37937e080000000000000000000000000000000000000000000000000000000000000000005",
          "blockHash": "0xde913821e6c531f97385bddd5b7f33d7db1d4d0575dc38094dd5173c50e10cdf",
          "blockNumber": "0x95d9d6",
          "blockTimestamp": "0x693b5cb0",
          "transactionHash": "0x2cc192acc884e47eaed3e56cc3d1abb10efee1c7983c537a3a809df21141f3e6",
          "transactionIndex": "0x35",
          "logIndex": "0x10b",
          "removed": false
        }
      ],
      "logsBloom": "0x00000000000000000000000000000000000000000000000000000000000000000000000000000000000000000000000000000000000000000000000000040000000000000000000000000040000000000000000000040000000000000000000000000000000000000000008000000000000000000000000000000000000000000000000000000000000000000000000000000000000000000000000001000000000000000000000000800000000000000000000000000000000000000000000000000000000000000000000000000000000000000000000000000000000041000000000800000000000000000000000000000000000000000000000000000000",
      "type": "0x2",
      "transactionHash": "0x2cc192acc884e47eaed3e56cc3d1abb10efee1c7983c537a3a809df21141f3e6",
      "transactionIndex": "0x35",
      "blockHash": "0xde913821e6c531f97385bddd5b7f33d7db1d4d0575dc38094dd5173c50e10cdf",
      "blockNumber": "0x95d9d6",
      "gasUsed": "0xc502",
      "effectiveGasPrice": "0x10060b",
      "from": "0x26154579219a6f1238c3b30d78c7a58fd2eb3482",
      "to": "0x029d8c5d7bb8808e02824b22296fe7fcbc728e97",
      "contractAddress": null
    },
    {
      "status": "0x1",
      "cumulativeGasUsed": "0xaea0a5",
      "logs": [
        {
          "address": "0x029d8c5d7bb8808e02824b22296fe7fcbc728e97",
          "topics": [
            "0x286b0085c46d7108cc7031149112e275872b38da3414f74d22f8a7a2e547027b",
            "0x0000000000000000000000000000000000000000000000000000000000000002"
          ],
          "data": "0x000000000000000000000000000000000000000000000000002386f26fc10000000000000000000000000000000000000000000000000000000000000000000a",
          "blockHash": "0xde913821e6c531f97385bddd5b7f33d7db1d4d0575dc38094dd5173c50e10cdf",
          "blockNumber": "0x95d9d6",
          "blockTimestamp": "0x693b5cb0",
          "transactionHash": "0xd87ecc402d6a62f0fffd6158389c5262aaeaf61592db5d405d5a35d35ba94113",
          "transactionIndex": "0x36",
          "logIndex": "0x10c",
          "removed": false
        }
      ],
      "logsBloom": "0x04000000000000000000000000000000000000000000000000000000000000000000000000000000000000000000000000000000000000000000000000000000000000000000000000000040000000000000000000000000000000000000000000000000000000000000008000000000000000000000000000000000000000000000000000000000000000000000000000000000000000000000000001000000000000000000000000800100000000000000000000000000000000000000000000000000000000000000000000000000000000000000000000000000000001000000000800000000000000000000000000000000008000000000000000000000",
      "type": "0x2",
      "transactionHash": "0xd87ecc402d6a62f0fffd6158389c5262aaeaf61592db5d405d5a35d35ba94113",
      "transactionIndex": "0x36",
      "blockHash": "0xde913821e6c531f97385bddd5b7f33d7db1d4d0575dc38094dd5173c50e10cdf",
      "blockNumber": "0x95d9d6",
      "gasUsed": "0xc4f6",
      "effectiveGasPrice": "0x10060b",
      "from": "0x26154579219a6f1238c3b30d78c7a58fd2eb3482",
      "to": "0x029d8c5d7bb8808e02824b22296fe7fcbc728e97",
      "contractAddress": null
    },
    {
      "status": "0x1",
      "cumulativeGasUsed": "0xb607ee",
      "logs": [
        {
          "address": "0x029d8c5d7bb8808e02824b22296fe7fcbc728e97",
          "topics": [
            "0x6e82d7c795d00fd9b64700b7c138eba363449f2b06f7cb91747c656c626c4759",
            "0x0000000000000000000000000000000000000000000000000000000000000000"
          ],
          "data": "0x0000000000000000000000000000000000000000000000000000000000000028",
          "blockHash": "0xde913821e6c531f97385bddd5b7f33d7db1d4d0575dc38094dd5173c50e10cdf",
          "blockNumber": "0x95d9d6",
          "blockTimestamp": "0x693b5cb0",
          "transactionHash": "0x3d5437dc9903e5f2969fe4541b4b3e1ab80846cb6b4279789dcda8ad3f8fdb61",
          "transactionIndex": "0x37",
          "logIndex": "0x10d",
          "removed": false
        }
      ],
      "logsBloom": "0x00000000000000000000000000000000000000000000000000000000000020000000000000000000000000000000000000000000000000000000000000000000000000000000000000000040000000000000000000000000000000000000000000000000020000000000008000000800000000000000000000000000000000000000000000000000000000000000000000000000000000000000008001000000000000000000000000000000000000800000000000000000000000000000000000000000000000000000000000000000000000000000000000000000000020000000000000000000000000000000000000000000000000000000000000000000",
      "type": "0x2",
      "transactionHash": "0x3d5437dc9903e5f2969fe4541b4b3e1ab80846cb6b4279789dcda8ad3f8fdb61",
      "transactionIndex": "0x37",
      "blockHash": "0xde913821e6c531f97385bddd5b7f33d7db1d4d0575dc38094dd5173c50e10cdf",
      "blockNumber": "0x95d9d6",
      "gasUsed": "0x76749",
      "effectiveGasPrice": "0x10060b",
      "from": "0x26154579219a6f1238c3b30d78c7a58fd2eb3482",
      "to": "0x029d8c5d7bb8808e02824b22296fe7fcbc728e97",
      "contractAddress": null
    },
    {
      "status": "0x1",
      "cumulativeGasUsed": "0xbbb3ab",
      "logs": [
        {
          "address": "0x029d8c5d7bb8808e02824b22296fe7fcbc728e97",
          "topics": [
            "0x6e82d7c795d00fd9b64700b7c138eba363449f2b06f7cb91747c656c626c4759",
            "0x0000000000000000000000000000000000000000000000000000000000000001"
          ],
          "data": "0x000000000000000000000000000000000000000000000000000000000000001e",
          "blockHash": "0xde913821e6c531f97385bddd5b7f33d7db1d4d0575dc38094dd5173c50e10cdf",
          "blockNumber": "0x95d9d6",
          "blockTimestamp": "0x693b5cb0",
          "transactionHash": "0x9c75d557c1b07ec616846e7c4e259d1dfb4ce62bd791daac26a82b589d972890",
          "transactionIndex": "0x38",
          "logIndex": "0x10e",
          "removed": false
        }
      ],
      "logsBloom": "0x00000000000000000000000000000000000000000000000000000000000020000000000000000000000000000000000000000000000000000000000000040000000000000000000000000040000000000000000000040000000000000000000000000000000000000000008000000000000000000000000000000000000000000000000000000000000000000000000000000000000000000000008001000000000000000000000000000000000000800000000000000000000000000000000000000000000000000000000000000000000000000000000000000000000040000000000000000000000000000000000000000000000000000000000000000000",
      "type": "0x2",
      "transactionHash": "0x9c75d557c1b07ec616846e7c4e259d1dfb4ce62bd791daac26a82b589d972890",
      "transactionIndex": "0x38",
      "blockHash": "0xde913821e6c531f97385bddd5b7f33d7db1d4d0575dc38094dd5173c50e10cdf",
      "blockNumber": "0x95d9d6",
      "gasUsed": "0x5abbd",
      "effectiveGasPrice": "0x10060b",
      "from": "0x26154579219a6f1238c3b30d78c7a58fd2eb3482",
      "to": "0x029d8c5d7bb8808e02824b22296fe7fcbc728e97",
      "contractAddress": null
    },
    {
      "status": "0x1",
      "cumulativeGasUsed": "0xbfa3d0",
      "logs": [
        {
          "address": "0x029d8c5d7bb8808e02824b22296fe7fcbc728e97",
          "topics": [
            "0x6e82d7c795d00fd9b64700b7c138eba363449f2b06f7cb91747c656c626c4759",
            "0x0000000000000000000000000000000000000000000000000000000000000002"
          ],
          "data": "0x0000000000000000000000000000000000000000000000000000000000000014",
          "blockHash": "0xde913821e6c531f97385bddd5b7f33d7db1d4d0575dc38094dd5173c50e10cdf",
          "blockNumber": "0x95d9d6",
          "blockTimestamp": "0x693b5cb0",
          "transactionHash": "0x854ce71c9ce761c0b3cf486e86131382fbf88195b512b48e3d20d48d4d2b5ae9",
          "transactionIndex": "0x39",
          "logIndex": "0x10f",
          "removed": false
        }
      ],
      "logsBloom": "0x04000000000000000000000000000000000000000000000000000000000020000000000000000000000000000000000000000000000000000000000000000000000000000000000000000040000000000000000000000000000000000000000000000000000000000000008000000000000000000000000000000000000000000000000000000000000000000000000000000000000000000000008001000000000000000000000000000100000000800000000000000000000000000000000000000000000000000000000000000000000000000000000000000000000000000000000000000000000000000000000000000000008000000000000000000000",
      "type": "0x2",
      "transactionHash": "0x854ce71c9ce761c0b3cf486e86131382fbf88195b512b48e3d20d48d4d2b5ae9",
      "transactionIndex": "0x39",
      "blockHash": "0xde913821e6c531f97385bddd5b7f33d7db1d4d0575dc38094dd5173c50e10cdf",
      "blockNumber": "0x95d9d6",
      "gasUsed": "0x3f025",
      "effectiveGasPrice": "0x10060b",
      "from": "0x26154579219a6f1238c3b30d78c7a58fd2eb3482",
      "to": "0x029d8c5d7bb8808e02824b22296fe7fcbc728e97",
      "contractAddress": null
    },
    {
      "status": "0x1",
      "cumulativeGasUsed": "0xc1d85d",
      "logs": [
        {
          "address": "0x029d8c5d7bb8808e02824b22296fe7fcbc728e97",
          "topics": [
            "0x6e82d7c795d00fd9b64700b7c138eba363449f2b06f7cb91747c656c626c4759",
            "0x0000000000000000000000000000000000000000000000000000000000000003"
          ],
          "data": "0x000000000000000000000000000000000000000000000000000000000000000a",
          "blockHash": "0xde913821e6c531f97385bddd5b7f33d7db1d4d0575dc38094dd5173c50e10cdf",
          "blockNumber": "0x95d9d6",
          "blockTimestamp": "0x693b5cb0",
          "transactionHash": "0x99782f66e2fff64c2e40f8db7f747b2495a9530fa548232e113a9d4f573f7c0e",
          "transactionIndex": "0x3a",
          "logIndex": "0x110",
          "removed": false
        }
      ],
      "logsBloom": "0x00000000000000000000000000000000000000000000000000000000000020000000000000000000000000000000000000000000020000000000000000000000000000000000000000000040000000000000000000000000000000000000000000000000000000000000008000000000000000000000000000000000000000000000000000000000000000000000000000000000000000000000008001000000000000000000000000000000000000800000000000800000000000000000400000000000000000000000000000000000000000000000000000000000000000000000000000000000000000000000000000000000000000000000000000000000",
      "type": "0x2",
      "transactionHash": "0x99782f66e2fff64c2e40f8db7f747b2495a9530fa548232e113a9d4f573f7c0e",
      "transactionIndex": "0x3a",
      "blockHash": "0xde913821e6c531f97385bddd5b7f33d7db1d4d0575dc38094dd5173c50e10cdf",
      "blockNumber": "0x95d9d6",
      "gasUsed": "0x2348d",
      "effectiveGasPrice": "0x10060b",
      "from": "0x26154579219a6f1238c3b30d78c7a58fd2eb3482",
      "to": "0x029d8c5d7bb8808e02824b22296fe7fcbc728e97",
      "contractAddress": null
    },
    {
      "status": "0x1",
      "cumulativeGasUsed": "0xc302c2",
      "logs": [
        {
          "address": "0x029d8c5d7bb8808e02824b22296fe7fcbc728e97",
          "topics": [
            "0x6e82d7c795d00fd9b64700b7c138eba363449f2b06f7cb91747c656c626c4759",
            "0x0000000000000000000000000000000000000000000000000000000000000004"
          ],
          "data": "0x0000000000000000000000000000000000000000000000000000000000000004",
          "blockHash": "0xde913821e6c531f97385bddd5b7f33d7db1d4d0575dc38094dd5173c50e10cdf",
          "blockNumber": "0x95d9d6",
          "blockTimestamp": "0x693b5cb0",
          "transactionHash": "0xf89b94f24703c9ec601f62ecb30a2213329cb7ce06d720ff4c4fb27af0fc586a",
          "transactionIndex": "0x3b",
          "logIndex": "0x111",
          "removed": false
        }
      ],
      "logsBloom": "0x00000000000000000000000000000000000000000000000000000000000020000000000000000000000000000000000000000000000000000000000000000000000000000000000000000040000000000000000000000000000000000000000008000000000000000000008000000000000000000000000000000000000000000000000000000000000000000000000000000000000000000000008001000000000000000000000000000000000000800000000000000000002000000000000000000000000000000000000000000000000000008000000000000000000000000000000000000000000000000000000000000000000000000000000000000000",
      "type": "0x2",
      "transactionHash": "0xf89b94f24703c9ec601f62ecb30a2213329cb7ce06d720ff4c4fb27af0fc586a",
      "transactionIndex": "0x3b",
      "blockHash": "0xde913821e6c531f97385bddd5b7f33d7db1d4d0575dc38094dd5173c50e10cdf",
      "blockNumber": "0x95d9d6",
      "gasUsed": "0x12a65",
      "effectiveGasPrice": "0x10060b",
      "from": "0x26154579219a6f1238c3b30d78c7a58fd2eb3482",
      "to": "0x029d8c5d7bb8808e02824b22296fe7fcbc728e97",
      "contractAddress": null
    }
  ],
  "libraries": [],
  "pending": [],
  "returns": {},
  "timestamp": 1765498033481,
  "chain": 11155111,
  "commit": "c08d105"
}