{
  "transactions": [
    {
      "hash": "0x6353ded1faf85ee44d5a746b9f1a0db1d69c5833f6a8934cfc1a9f432c672c06",
      "transactionType": "CALL",
      "contractName": null,
      "contractAddress": "0x029d8c5d7bb8808e02824b22296fe7fcbc728e97",
      "function": "configurePackType(uint8,uint256,uint8,uint8[])",
      "arguments": [
        "0",
        "1000000000000000",
        "3",
        "[70, 20, 8, 2, 0]"
      ],
      "transaction": {
        "from": "0x26154579219a6f1238c3b30d78c7a58fd2eb3482",
        "to": "0x029d8c5d7bb8808e02824b22296fe7fcbc728e97",
        "gas": "0x2e6bb",
        "value": "0x0",
        "input": "0x0ffbd9e4000000000000000000000000000000000000000000000000000000000000000000000000000000000000000000000000000000000000000000038d7ea4c6800000000000000000000000000000000000000000000000000000000000000000030000000000000000000000000000000000000000000000000000000000000080000000000000000000000000000000000000000000000000000000000000000500000000000000000000000000000000000000000000000000000000000000460000000000000000000000000000000000000000000000000000000000000014000000000000000000000000000000000000000000000000000000000000000800000000000000000000000000000000000000000000000000000000000000020000000000000000000000000000000000000000000000000000000000000000",
        "nonce": "0x3e",
        "chainId": "0xaa36a7"
      },
      "additionalContracts": [],
      "isFixedGasLimit": false
    },
    {
      "hash": "0xba5761d3f27dcdea9a2b1edbaa04ba10887e105789bd0e720efda69a162f9df9",
      "transactionType": "CALL",
      "contractName": null,
      "contractAddress": "0x029d8c5d7bb8808e02824b22296fe7fcbc728e97",
      "function": "configurePackType(uint8,uint256,uint8,uint8[])",
      "arguments": [
        "1",
        "5000000000000000",
        "5",
        "[50, 30, 15, 4, 1]"
      ],
      "transaction": {
        "from": "0x26154579219a6f1238c3b30d78c7a58fd2eb3482",
        "to": "0x029d8c5d7bb8808e02824b22296fe7fcbc728e97",
        "gas": "0x2e6de",
        "value": "0x0",
        "input": "0x0ffbd9e400000000000000000000000000000000000000000000000000000000000000010000000000000000000000000000000000000000000000000011c37937e080000000000000000000000000000000000000000000000000000000000000000005000000000000000000000000000000000000000000000000000000000000008000000000000000000000000000000000000000000000000000000000000000050000000000000000000000000000000000000000000000000000000000000032000000000000000000000000000000000000000000000000000000000000001e000000000000000000000000000000000000000000000000000000000000000f00000000000000000000000000000000000000000000000000000000000000040000000000000000000000000000000000000000000000000000000000000001",
        "nonce": "0x3f",
        "chainId": "0xaa36a7"
      },
      "additionalContracts": [],
      "isFixedGasLimit": false
    },
    {
      "hash": "0x627122a1d897548483251d472d8eba1e8f86e5fa0e9ec0a68a74e7bb9d9c97ee",
      "transactionType": "CALL",
      "contractName": null,
      "contractAddress": "0x029d8c5d7bb8808e02824b22296fe7fcbc728e97",
      "function": "configurePackType(uint8,uint256,uint8,uint8[])",
      "arguments": [
        "2",
        "10000000000000000",
        "10",
        "[40, 30, 20, 8, 2]"
      ],
      "transaction": {
        "from": "0x26154579219a6f1238c3b30d78c7a58fd2eb3482",
        "to": "0x029d8c5d7bb8808e02824b22296fe7fcbc728e97",
        "gas": "0x2bd88",
        "value": "0x0",
        "input": "0x0ffbd9e40000000000000000000000000000000000000000000000000000000000000002000000000000000000000000000000000000000000000000002386f26fc10000000000000000000000000000000000000000000000000000000000000000000a000000000000000000000000000000000000000000000000000000000000008000000000000000000000000000000000000000000000000000000000000000050000000000000000000000000000000000000000000000000000000000000028000000000000000000000000000000000000000000000000000000000000001e000000000000000000000000000000000000000000000000000000000000001400000000000000000000000000000000000000000000000000000000000000080000000000000000000000000000000000000000000000000000000000000002",
        "nonce": "0x40",
        "chainId": "0xaa36a7"
      },
      "additionalContracts": [],
      "isFixedGasLimit": false
    },
    {
      "hash": "0xb1fdc1d3ea33a7f38f76957427f461667daca600bf4d602be2e3cf69418ac75e",
      "transactionType": "CALL",
      "contractName": null,
      "contractAddress": "0x029d8c5d7bb8808e02824b22296fe7fcbc728e97",
      "function": "addPlayersToPool(uint8,uint256[])",
      "arguments": [
        "0",
        "[1, 2, 3, 4, 5, 6, 7, 8, 9, 10, 11, 12, 13, 14, 15, 16, 17, 18, 19, 20]"
      ],
      "transaction": {
        "from": "0x26154579219a6f1238c3b30d78c7a58fd2eb3482",
        "to": "0x029d8c5d7bb8808e02824b22296fe7fcbc728e97",
        "gas": "0xa961f",
        "value": "0x0",
        "input": "0x12c6413d000000000000000000000000000000000000000000000000000000000000000000000000000000000000000000000000000000000000000000000000000000400000000000000000000000000000000000000000000000000000000000000014000000000000000000000000000000000000000000000000000000000000000100000000000000000000000000000000000000000000000000000000000000020000000000000000000000000000000000000000000000000000000000000003000000000000000000000000000000000000000000000000000000000000000400000000000000000000000000000000000000000000000000000000000000050000000000000000000000000000000000000000000000000000000000000006000000000000000000000000000000000000000000000000000000000000000700000000000000000000000000000000000000000000000000000000000000080000000000000000000000000000000000000000000000000000000000000009000000000000000000000000000000000000000000000000000000000000000a000000000000000000000000000000000000000000000000000000000000000b000000000000000000000000000000000000000000000000000000000000000c000000000000000000000000000000000000000000000000000000000000000d000000000000000000000000000000000000000000000000000000000000000e000000000000000000000000000000000000000000000000000000000000000f00000000000000000000000000000000000000000000000000000000000000100000000000000000000000000000000000000000000000000000000000000011000000000000000000000000000000000000000000000000000000000000001200000000000000000000000000000000000000000000000000000000000000130000000000000000000000000000000000000000000000000000000000000014",
        "nonce": "0x41",
        "chainId": "0xaa36a7"
      },
      "additionalContracts": [],
      "isFixedGasLimit": false
    },
    {
      "hash": "0x5fd5b71c4de1dad0a9220092639df7b59984c5365067665ce368c54c5c5bd313",
      "transactionType": "CALL",
      "contractName": null,
      "contractAddress": "0x029d8c5d7bb8808e02824b22296fe7fcbc728e97",
      "function": "addPlayersToPool(uint8,uint256[])",
      "arguments": [
        "1",
        "[21, 22, 23, 24, 25, 26, 27, 28, 29, 30, 31, 32, 33, 34, 35]"
      ],
      "transaction": {
        "from": "0x26154579219a6f1238c3b30d78c7a58fd2eb3482",
        "to": "0x029d8c5d7bb8808e02824b22296fe7fcbc728e97",
        "gas": "0x8acdb",
        "value": "0x0",
        "input": "0x12c6413d00000000000000000000000000000000000000000000000000000000000000010000000000000000000000000000000000000000000000000000000000000040000000000000000000000000000000000000000000000000000000000000000f00000000000000000000000000000000000000000000000000000000000000150000000000000000000000000000000000000000000000000000000000000016000000000000000000000000000000000000000000000000000000000000001700000000000000000000000000000000000000000000000000000000000000180000000000000000000000000000000000000000000000000000000000000019000000000000000000000000000000000000000000000000000000000000001a000000000000000000000000000000000000000000000000000000000000001b000000000000000000000000000000000000000000000000000000000000001c000000000000000000000000000000000000000000000000000000000000001d000000000000000000000000000000000000000000000000000000000000001e000000000000000000000000000000000000000000000000000000000000001f0000000000000000000000000000000000000000000000000000000000000020000000000000000000000000000000000000000000000000000000000000002100000000000000000000000000000000000000000000000000000000000000220000000000000000000000000000000000000000000000000000000000000023",
        "nonce": "0x42",
        "chainId": "0xaa36a7"
      },
      "additionalContracts": [],
      "isFixedGasLimit": false
    },
    {
      "hash": "0xcfe5f2fa3aa02a5f7c57711a190d5de76ea5dbd4d522aeac8ea55c2ca8835ae8",
      "transactionType": "CALL",
      "contractName": null,
      "contractAddress": "0x029d8c5d7bb8808e02824b22296fe7fcbc728e97",
      "function": "addPlayersToPool(uint8,uint256[])",
      "arguments": [
        "2",
        "[36, 37, 38, 39, 40, 41, 42, 43, 44, 45]"
      ],
      "transaction": {
        "from": "0x26154579219a6f1238c3b30d78c7a58fd2eb3482",
        "to": "0x029d8c5d7bb8808e02824b22296fe7fcbc728e97",
        "gas": "0x62419",
        "value": "0x0",
        "input": "0x12c6413d00000000000000000000000000000000000000000000000000000000000000020000000000000000000000000000000000000000000000000000000000000040000000000000000000000000000000000000000000000000000000000000000a000000000000000000000000000000000000000000000000000000000000002400000000000000000000000000000000000000000000000000000000000000250000000000000000000000000000000000000000000000000000000000000026000000000000000000000000000000000000000000000000000000000000002700000000000000000000000000000000000000000000000000000000000000280000000000000000000000000000000000000000000000000000000000000029000000000000000000000000000000000000000000000000000000000000002a000000000000000000000000000000000000000000000000000000000000002b000000000000000000000000000000000000000000000000000000000000002c000000000000000000000000000000000000000000000000000000000000002d",
        "nonce": "0x43",
        "chainId": "0xaa36a7"
      },
      "additionalContracts": [],
      "isFixedGasLimit": false
    },
    {
      "hash": "0x9d87da25d6d1d883b49612b173a9590b289acc4dba59cc71a7e622bfe520979a",
      "transactionType": "CALL",
      "contractName": null,
      "contractAddress": "0x029d8c5d7bb8808e02824b22296fe7fcbc728e97",
      "function": "addPlayersToPool(uint8,uint256[])",
      "arguments": [
        "3",
        "[46, 47, 48, 49, 50]"
      ],
      "transaction": {
        "from": "0x26154579219a6f1238c3b30d78c7a58fd2eb3482",
        "to": "0x029d8c5d7bb8808e02824b22296fe7fcbc728e97",
        "gas": "0x39b58",
        "value": "0x0",
        "input": "0x12c6413d000000000000000000000000000000000000000000000000000000000000000300000000000000000000000000000000000000000000000000000000000000400000000000000000000000000000000000000000000000000000000000000005000000000000000000000000000000000000000000000000000000000000002e000000000000000000000000000000000000000000000000000000000000002f000000000000000000000000000000000000000000000000000000000000003000000000000000000000000000000000000000000000000000000000000000310000000000000000000000000000000000000000000000000000000000000032",
        "nonce": "0x44",
        "chainId": "0xaa36a7"
      },
      "additionalContracts": [],
      "isFixedGasLimit": false
    },
    {
      "hash": "0x4cafebf3779005ba802866285399ca99c348486c7b640f02ae13307c9267c804",
      "transactionType": "CALL",
      "contractName": null,
      "contractAddress": "0x029d8c5d7bb8808e02824b22296fe7fcbc728e97",
      "function": "addPlayersToPool(uint8,uint256[])",
      "arguments": [
        "4",
        "[51, 52]"
      ],
      "transaction": {
        "from": "0x26154579219a6f1238c3b30d78c7a58fd2eb3482",
        "to": "0x029d8c5d7bb8808e02824b22296fe7fcbc728e97",
        "gas": "0x21617",
        "value": "0x0",
        "input": "0x12c6413d00000000000000000000000000000000000000000000000000000000000000040000000000000000000000000000000000000000000000000000000000000040000000000000000000000000000000000000000000000000000000000000000200000000000000000000000000000000000000000000000000000000000000330000000000000000000000000000000000000000000000000000000000000034",
        "nonce": "0x45",
        "chainId": "0xaa36a7"
      },
      "additionalContracts": [],
      "isFixedGasLimit": false
    }
  ],
  "receipts": [
    {
      "status": "0x1",
      "cumulativeGasUsed": "0x14803ad",
      "logs": [
        {
          "address": "0x029d8c5d7bb8808e02824b22296fe7fcbc728e97",
          "topics": [
            "0x286b0085c46d7108cc7031149112e275872b38da3414f74d22f8a7a2e547027b",
            "0x0000000000000000000000000000000000000000000000000000000000000000"
          ],
          "data": "0x00000000000000000000000000000000000000000000000000038d7ea4c680000000000000000000000000000000000000000000000000000000000000000003",
          "blockHash": "0x29690c1d97dc34641146d73c3026a565754a09b7cca90ffcbcd2ed7b8d0099f5",
          "blockNumber": "0x95d42d",
          "blockTimestamp": "0x693b1894",
          "transactionHash": "0x627122a1d897548483251d472d8eba1e8f86e5fa0e9ec0a68a74e7bb9d9c97ee",
          "transactionIndex": "0x35",
          "logIndex": "0x156",
          "removed": false
        }
      ],
      "logsBloom": "0x00000000000000000000000000000000000000000000000000000000000000000000000000000000000000000000000000000000000000000000000000000000000000000000000000000040000000000000000000000000000000000000000000000000020000000000008000000800000000000000000000000000000000000000000000000000000000000000000000000000000000000000000001000000000000000000000000800000000000000000000000000000000000000000000000000000000000000000000000000000000000000000000000000000000021000000000800000000000000000000000000000000000000000000000000000000",
      "type": "0x2",
      "transactionHash": "0x627122a1d897548483251d472d8eba1e8f86e5fa0e9ec0a68a74e7bb9d9c97ee",
      "transactionIndex": "0x35",
      "blockHash": "0x29690c1d97dc34641146d73c3026a565754a09b7cca90ffcbcd2ed7b8d0099f5",
      "blockNumber": "0x95d42d",
      "gasUsed": "0x1fbda",
      "effectiveGasPrice": "0x107839",
      "from": "0x26154579219a6f1238c3b30d78c7a58fd2eb3482",
      "to": "0x029d8c5d7bb8808e02824b22296fe7fcbc728e97",
      "contractAddress": null
    },
    {
      "status": "0x1",
      "cumulativeGasUsed": "0x149ff9f",
      "logs": [
        {
          "address": "0x029d8c5d7bb8808e02824b22296fe7fcbc728e97",
          "topics": [
            "0x286b0085c46d7108cc7031149112e275872b38da3414f74d22f8a7a2e547027b",
            "0x0000000000000000000000000000000000000000000000000000000000000001"
          ],
          "data": "0x0000000000000000000000000000000000000000000000000011c37937e080000000000000000000000000000000000000000000000000000000000000000005",
          "blockHash": "0x29690c1d97dc34641146d73c3026a565754a09b7cca90ffcbcd2ed7b8d0099f5",
          "blockNumber": "0x95d42d",
          "blockTimestamp": "0x693b1894",
          "transactionHash": "0x5fd5b71c4de1dad0a9220092639df7b59984c5365067665ce368c54c5c5bd313",
          "transactionIndex": "0x36",
          "logIndex": "0x157",
          "removed": false
        }
      ],
      "logsBloom": "0x00000000000000000000000000000000000000000000000000000000000000000000000000000000000000000000000000000000000000000000000000040000000000000000000000000040000000000000000000040000000000000000000000000000000000000000008000000000000000000000000000000000000000000000000000000000000000000000000000000000000000000000000001000000000000000000000000800000000000000000000000000000000000000000000000000000000000000000000000000000000000000000000000000000000041000000000800000000000000000000000000000000000000000000000000000000",
      "type": "0x2",
      "transactionHash": "0x5fd5b71c4de1dad0a9220092639df7b59984c5365067665ce368c54c5c5bd313",
      "transactionIndex": "0x36",
      "blockHash": "0x29690c1d97dc34641146d73c3026a565754a09b7cca90ffcbcd2ed7b8d0099f5",
      "blockNumber": "0x95d42d",
      "gasUsed": "0x1fbf2",
      "effectiveGasPrice": "0x107839",
      "from": "0x26154579219a6f1238c3b30d78c7a58fd2eb3482",
      "to": "0x029d8c5d7bb8808e02824b22296fe7fcbc728e97",
      "contractAddress": null
    },
    {
      "status": "0x1",
      "cumulativeGasUsed": "0x14bfb85",
      "logs": [
        {
          "address": "0x029d8c5d7bb8808e02824b22296fe7fcbc728e97",
          "topics": [
            "0x286b0085c46d7108cc7031149112e275872b38da3414f74d22f8a7a2e547027b",
            "0x0000000000000000000000000000000000000000000000000000000000000002"
          ],
          "data": "0x000000000000000000000000000000000000000000000000002386f26fc10000000000000000000000000000000000000000000000000000000000000000000a",
          "blockHash": "0x29690c1d97dc34641146d73c3026a565754a09b7cca90ffcbcd2ed7b8d0099f5",
          "blockNumber": "0x95d42d",
          "blockTimestamp": "0x693b1894",
          "transactionHash": "0xba5761d3f27dcdea9a2b1edbaa04ba10887e105789bd0e720efda69a162f9df9",
          "transactionIndex": "0x37",
          "logIndex": "0x158",
          "removed": false
        }
      ],
      "logsBloom": "0x04000000000000000000000000000000000000000000000000000000000000000000000000000000000000000000000000000000000000000000000000000000000000000000000000000040000000000000000000000000000000000000000000000000000000000000008000000000000000000000000000000000000000000000000000000000000000000000000000000000000000000000000001000000000000000000000000800100000000000000000000000000000000000000000000000000000000000000000000000000000000000000000000000000000001000000000800000000000000000000000000000000008000000000000000000000",
      "type": "0x2",
      "transactionHash": "0xba5761d3f27dcdea9a2b1edbaa04ba10887e105789bd0e720efda69a162f9df9",
      "transactionIndex": "0x37",
      "blockHash": "0x29690c1d97dc34641146d73c3026a565754a09b7cca90ffcbcd2ed7b8d0099f5",
      "blockNumber": "0x95d42d",
      "gasUsed": "0x1fbe6",
      "effectiveGasPrice": "0x107839",
      "from": "0x26154579219a6f1238c3b30d78c7a58fd2eb3482",
      "to": "0x029d8c5d7bb8808e02824b22296fe7fcbc728e97",
      "contractAddress": null
    },
    {
      "status": "0x1",
      "cumulativeGasUsed": "0x153a59a",
      "logs": [
        {
          "address": "0x029d8c5d7bb8808e02824b22296fe7fcbc728e97",
          "topics": [
            "0x6e82d7c795d00fd9b64700b7c138eba363449f2b06f7cb91747c656c626c4759",
            "0x0000000000000000000000000000000000000000000000000000000000000000"
          ],
          "data": "0x0000000000000000000000000000000000000000000000000000000000000014",
          "blockHash": "0x29690c1d97dc34641146d73c3026a565754a09b7cca90ffcbcd2ed7b8d0099f5",
          "blockNumber": "0x95d42d",
          "blockTimestamp": "0x693b1894",
          "transactionHash": "0x9d87da25d6d1d883b49612b173a9590b289acc4dba59cc71a7e622bfe520979a",
          "transactionIndex": "0x38",
          "logIndex": "0x159",
          "removed": false
        }
      ],
      "logsBloom": "0x00000000000000000000000000000000000000000000000000000000000020000000000000000000000000000000000000000000000000000000000000000000000000000000000000000040000000000000000000000000000000000000000000000000020000000000008000000800000000000000000000000000000000000000000000000000000000000000000000000000000000000000008001000000000000000000000000000000000000800000000000000000000000000000000000000000000000000000000000000000000000000000000000000000000020000000000000000000000000000000000000000000000000000000000000000000",
      "type": "0x2",
      "transactionHash": "0x9d87da25d6d1d883b49612b173a9590b289acc4dba59cc71a7e622bfe520979a",
      "transactionIndex": "0x38",
      "blockHash": "0x29690c1d97dc34641146d73c3026a565754a09b7cca90ffcbcd2ed7b8d0099f5",
      "blockNumber": "0x95d42d",
      "gasUsed": "0x7aa15",
      "effectiveGasPrice": "0x107839",
      "from": "0x26154579219a6f1238c3b30d78c7a58fd2eb3482",
      "to": "0x029d8c5d7bb8808e02824b22296fe7fcbc728e97",
      "contractAddress": null
    },
    {
      "status": "0x1",
      "cumulativeGasUsed": "0x1599423",
      "logs": [
        {
          "address": "0x029d8c5d7bb8808e02824b22296fe7fcbc728e97",
          "topics": [
            "0x6e82d7c795d00fd9b64700b7c138eba363449f2b06f7cb91747c656c626c4759",
            "0x0000000000000000000000000000000000000000000000000000000000000001"
          ],
          "data": "0x000000000000000000000000000000000000000000000000000000000000000f",
          "blockHash": "0x29690c1d97dc34641146d73c3026a565754a09b7cca90ffcbcd2ed7b8d0099f5",
          "blockNumber": "0x95d42d",
          "blockTimestamp": "0x693b1894",
          "transactionHash": "0xb1fdc1d3ea33a7f38f76957427f461667daca600bf4d602be2e3cf69418ac75e",
          "transactionIndex": "0x39",
          "logIndex": "0x15a",
          "removed": false
        }
      ],
      "logsBloom": "0x00000000000000000000000000000000000000000000000000000000000020000000000000000000000000000000000000000000000000000000000000040000000000000000000000000040000000000000000000040000000000000000000000000000000000000000008000000000000000000000000000000000000000000000000000000000000000000000000000000000000000000000008001000000000000000000000000000000000000800000000000000000000000000000000000000000000000000000000000000000000000000000000000000000000040000000000000000000000000000000000000000000000000000000000000000000",
      "type": "0x2",
      "transactionHash": "0xb1fdc1d3ea33a7f38f76957427f461667daca600bf4d602be2e3cf69418ac75e",
      "transactionIndex": "0x39",
      "blockHash": "0x29690c1d97dc34641146d73c3026a565754a09b7cca90ffcbcd2ed7b8d0099f5",
      "blockNumber": "0x95d42d",
      "gasUsed": "0x5ee89",
      "effectiveGasPrice": "0x107839",
      "from": "0x26154579219a6f1238c3b30d78c7a58fd2eb3482",
      "to": "0x029d8c5d7bb8808e02824b22296fe7fcbc728e97",
      "contractAddress": null
    },
    {
      "status": "0x1",
      "cumulativeGasUsed": "0x15dc714",
      "logs": [
        {
          "address": "0x029d8c5d7bb8808e02824b22296fe7fcbc728e97",
          "topics": [
            "0x6e82d7c795d00fd9b64700b7c138eba363449f2b06f7cb91747c656c626c4759",
            "0x0000000000000000000000000000000000000000000000000000000000000002"
          ],
          "data": "0x000000000000000000000000000000000000000000000000000000000000000a",
          "blockHash": "0x29690c1d97dc34641146d73c3026a565754a09b7cca90ffcbcd2ed7b8d0099f5",
          "blockNumber": "0x95d42d",
          "blockTimestamp": "0x693b1894",
          "transactionHash": "0x4cafebf3779005ba802866285399ca99c348486c7b640f02ae13307c9267c804",
          "transactionIndex": "0x3a",
          "logIndex": "0x15b",
          "removed": false
        }
      ],
      "logsBloom": "0x04000000000000000000000000000000000000000000000000000000000020000000000000000000000000000000000000000000000000000000000000000000000000000000000000000040000000000000000000000000000000000000000000000000000000000000008000000000000000000000000000000000000000000000000000000000000000000000000000000000000000000000008001000000000000000000000000000100000000800000000000000000000000000000000000000000000000000000000000000000000000000000000000000000000000000000000000000000000000000000000000000000008000000000000000000000",
      "type": "0x2",
      "transactionHash": "0x4cafebf3779005ba802866285399ca99c348486c7b640f02ae13307c9267c804",
      "transactionIndex": "0x3a",
      "blockHash": "0x29690c1d97dc34641146d73c3026a565754a09b7cca90ffcbcd2ed7b8d0099f5",
      "blockNumber": "0x95d42d",
      "gasUsed": "0x432f1",
      "effectiveGasPrice": "0x107839",
      "from": "0x26154579219a6f1238c3b30d78c7a58fd2eb3482",
      "to": "0x029d8c5d7bb8808e02824b22296fe7fcbc728e97",
      "contractAddress": null
    },
    {
      "status": "0x1",
      "cumulativeGasUsed": "0x1603e6d",
      "logs": [
        {
          "address": "0x029d8c5d7bb8808e02824b22296fe7fcbc728e97",
          "topics": [
            "0x6e82d7c795d00fd9b64700b7c138eba363449f2b06f7cb91747c656c626c4759",
            "0x0000000000000000000000000000000000000000000000000000000000000003"
          ],
          "data": "0x0000000000000000000000000000000000000000000000000000000000000005",
          "blockHash": "0x29690c1d97dc34641146d73c3026a565754a09b7cca90ffcbcd2ed7b8d0099f5",
          "blockNumber": "0x95d42d",
          "blockTimestamp": "0x693b1894",
          "transactionHash": "0xcfe5f2fa3aa02a5f7c57711a190d5de76ea5dbd4d522aeac8ea55c2ca8835ae8",
          "transactionIndex": "0x3b",
          "logIndex": "0x15c",
          "removed": false
        }
      ],
      "logsBloom": "0x00000000000000000000000000000000000000000000000000000000000020000000000000000000000000000000000000000000020000000000000000000000000000000000000000000040000000000000000000000000000000000000000000000000000000000000008000000000000000000000000000000000000000000000000000000000000000000000000000000000000000000000008001000000000000000000000000000000000000800000000000800000000000000000400000000000000000000000000000000000000000000000000000000000000000000000000000000000000000000000000000000000000000000000000000000000",
      "type": "0x2",
      "transactionHash": "0xcfe5f2fa3aa02a5f7c57711a190d5de76ea5dbd4d522aeac8ea55c2ca8835ae8",
      "transactionIndex": "0x3b",
      "blockHash": "0x29690c1d97dc34641146d73c3026a565754a09b7cca90ffcbcd2ed7b8d0099f5",
      "blockNumber": "0x95d42d",
      "gasUsed": "0x27759",
      "effectiveGasPrice": "0x107839",
      "from": "0x26154579219a6f1238c3b30d78c7a58fd2eb3482",
      "to": "0x029d8c5d7bb8808e02824b22296fe7fcbc728e97",
      "contractAddress": null
    },
    {
      "status": "0x1",
      "cumulativeGasUsed": "0x1650ab5",
      "logs": [
        {
          "address": "0x029d8c5d7bb8808e02824b22296fe7fcbc728e97",
          "topics": [
            "0x6e82d7c795d00fd9b64700b7c138eba363449f2b06f7cb91747c656c626c4759",
            "0x0000000000000000000000000000000000000000000000000000000000000004"
          ],
          "data": "0x0000000000000000000000000000000000000000000000000000000000000002",
          "blockHash": "0x29690c1d97dc34641146d73c3026a565754a09b7cca90ffcbcd2ed7b8d0099f5",
          "blockNumber": "0x95d42d",
          "blockTimestamp": "0x693b1894",
          "transactionHash": "0x6353ded1faf85ee44d5a746b9f1a0db1d69c5833f6a8934cfc1a9f432c672c06",
          "transactionIndex": "0x3e",
          "logIndex": "0x162",
          "removed": false
        }
      ],
      "logsBloom": "0x00000000000000000000000000000000000000000000000000000000000020000000000000000000000000000000000000000000000000000000000000000000000000000000000000000040000000000000000000000000000000000000000008000000000000000000008000000000000000000000000000000000000000000000000000000000000000000000000000000000000000000000008001000000000000000000000000000000000000800000000000000000002000000000000000000000000000000000000000000000000000008000000000000000000000000000000000000000000000000000000000000000000000000000000000000000",
      "type": "0x2",
      "transactionHash": "0x6353ded1faf85ee44d5a746b9f1a0db1d69c5833f6a8934cfc1a9f432c672c06",
      "transactionIndex": "0x3e",
      "blockHash": "0x29690c1d97dc34641146d73c3026a565754a09b7cca90ffcbcd2ed7b8d0099f5",
      "blockNumber": "0x95d42d",
      "gasUsed": "0x16d31",
      "effectiveGasPrice": "0x107839",
      "from": "0x26154579219a6f1238c3b30d78c7a58fd2eb3482",
      "to": "0x029d8c5d7bb8808e02824b22296fe7fcbc728e97",
      "contractAddress": null
    }
  ],
  "libraries": [],
  "pending": [],
  "returns": {},
  "timestamp": 1765480597637,
  "chain": 11155111,
  "commit": "8c2d04b"
}