{
  "transactions": [
    {
      "hash": "0x0118728578d176cbdd46ffa82648cc3659886b15c28d359abeae5318da7f9ec7",
      "transactionType": "CALL",
      "contractName": null,
      "contractAddress": "0xa9d94123f5fe345c4367bd577fce09cd25db9348",
      "function": "configurePackType(uint8,uint256,uint8,uint8[])",
      "arguments": [
        "0",
        "1000000000000000",
        "3",
        "[70, 20, 8, 2, 0]"
      ],
      "transaction": {
        "from": "0x26154579219a6f1238c3b30d78c7a58fd2eb3482",
        "to": "0xa9d94123f5fe345c4367bd577fce09cd25db9348",
        "gas": "0x2e6bb",
        "value": "0x0",
        "input": "0x0ffbd9e4000000000000000000000000000000000000000000000000000000000000000000000000000000000000000000000000000000000000000000038d7ea4c6800000000000000000000000000000000000000000000000000000000000000000030000000000000000000000000000000000000000000000000000000000000080000000000000000000000000000000000000000000000000000000000000000500000000000000000000000000000000000000000000000000000000000000460000000000000000000000000000000000000000000000000000000000000014000000000000000000000000000000000000000000000000000000000000000800000000000000000000000000000000000000000000000000000000000000020000000000000000000000000000000000000000000000000000000000000000",
        "nonce": "0x6a",
        "chainId": "0xaa36a7"
      },
      "additionalContracts": [],
      "isFixedGasLimit": false
    },
    {
      "hash": "0x79760c4661d3191aeda2e7f79d8bd21dbd0a9cd76011af81e40d3a9975b9f25b",
      "transactionType": "CALL",
      "contractName": null,
      "contractAddress": "0xa9d94123f5fe345c4367bd577fce09cd25db9348",
      "function": "configurePackType(uint8,uint256,uint8,uint8[])",
      "arguments": [
        "1",
        "5000000000000000",
        "5",
        "[50, 30, 15, 4, 1]"
      ],
      "transaction": {
        "from": "0x26154579219a6f1238c3b30d78c7a58fd2eb3482",
        "to": "0xa9d94123f5fe345c4367bd577fce09cd25db9348",
        "gas": "0x2e6de",
        "value": "0x0",
        "input": "0x0ffbd9e400000000000000000000000000000000000000000000000000000000000000010000000000000000000000000000000000000000000000000011c37937e080000000000000000000000000000000000000000000000000000000000000000005000000000000000000000000000000000000000000000000000000000000008000000000000000000000000000000000000000000000000000000000000000050000000000000000000000000000000000000000000000000000000000000032000000000000000000000000000000000000000000000000000000000000001e000000000000000000000000000000000000000000000000000000000000000f00000000000000000000000000000000000000000000000000000000000000040000000000000000000000000000000000000000000000000000000000000001",
        "nonce": "0x6b",
        "chainId": "0xaa36a7"
      },
      "additionalContracts": [],
      "isFixedGasLimit": false
    },
    {
      "hash": "0x2cb490cbd5e68587313afdd541cb5f473c956e8e7bd5f20e4c53d91c45f3787b",
      "transactionType": "CALL",
      "contractName": null,
      "contractAddress": "0xa9d94123f5fe345c4367bd577fce09cd25db9348",
      "function": "configurePackType(uint8,uint256,uint8,uint8[])",
      "arguments": [
        "2",
        "10000000000000000",
        "10",
        "[40, 30, 20, 8, 2]"
      ],
      "transaction": {
        "from": "0x26154579219a6f1238c3b30d78c7a58fd2eb3482",
        "to": "0xa9d94123f5fe345c4367bd577fce09cd25db9348",
        "gas": "0x2bd88",
        "value": "0x0",
        "input": "0x0ffbd9e40000000000000000000000000000000000000000000000000000000000000002000000000000000000000000000000000000000000000000002386f26fc10000000000000000000000000000000000000000000000000000000000000000000a000000000000000000000000000000000000000000000000000000000000008000000000000000000000000000000000000000000000000000000000000000050000000000000000000000000000000000000000000000000000000000000028000000000000000000000000000000000000000000000000000000000000001e000000000000000000000000000000000000000000000000000000000000001400000000000000000000000000000000000000000000000000000000000000080000000000000000000000000000000000000000000000000000000000000002",
        "nonce": "0x6c",
        "chainId": "0xaa36a7"
      },
      "additionalContracts": [],
      "isFixedGasLimit": false
    },
    {
      "hash": "0xac29d7c2bacea8ac31cafd76790493a66f6c20b5f6fafebb799fd23651b32161",
      "transactionType": "CALL",
      "contractName": null,
      "contractAddress": "0xa9d94123f5fe345c4367bd577fce09cd25db9348",
      "function": "addPlayersToPool(uint8,uint256[])",
      "arguments": [
        "0",
        "[1, 2, 3, 4, 5, 6, 7, 8, 9, 10, 11, 12, 13, 14, 15, 16, 17, 18, 19, 20]"
      ],
      "transaction": {
        "from": "0x26154579219a6f1238c3b30d78c7a58fd2eb3482",
        "to": "0xa9d94123f5fe345c4367bd577fce09cd25db9348",
        "gas": "0xa961f",
        "value": "0x0",
        "input": "0x12c6413d000000000000000000000000000000000000000000000000000000000000000000000000000000000000000000000000000000000000000000000000000000400000000000000000000000000000000000000000000000000000000000000014000000000000000000000000000000000000000000000000000000000000000100000000000000000000000000000000000000000000000000000000000000020000000000000000000000000000000000000000000000000000000000000003000000000000000000000000000000000000000000000000000000000000000400000000000000000000000000000000000000000000000000000000000000050000000000000000000000000000000000000000000000000000000000000006000000000000000000000000000000000000000000000000000000000000000700000000000000000000000000000000000000000000000000000000000000080000000000000000000000000000000000000000000000000000000000000009000000000000000000000000000000000000000000000000000000000000000a000000000000000000000000000000000000000000000000000000000000000b000000000000000000000000000000000000000000000000000000000000000c000000000000000000000000000000000000000000000000000000000000000d000000000000000000000000000000000000000000000000000000000000000e000000000000000000000000000000000000000000000000000000000000000f00000000000000000000000000000000000000000000000000000000000000100000000000000000000000000000000000000000000000000000000000000011000000000000000000000000000000000000000000000000000000000000001200000000000000000000000000000000000000000000000000000000000000130000000000000000000000000000000000000000000000000000000000000014",
        "nonce": "0x6d",
        "chainId": "0xaa36a7"
      },
      "additionalContracts": [],
      "isFixedGasLimit": false
    },
    {
      "hash": "0xd179de6bf41f41aff7dd05585aad50f689ea0cc97e52fd561c0e51dd1b481a4f",
      "transactionType": "CALL",
      "contractName": null,
      "contractAddress": "0xa9d94123f5fe345c4367bd577fce09cd25db9348",
      "function": "addPlayersToPool(uint8,uint256[])",
      "arguments": [
        "1",
        "[21, 22, 23, 24, 25, 26, 27, 28, 29, 30, 31, 32, 33, 34, 35]"
      ],
      "transaction": {
        "from": "0x26154579219a6f1238c3b30d78c7a58fd2eb3482",
        "to": "0xa9d94123f5fe345c4367bd577fce09cd25db9348",
        "gas": "0x8acdb",
        "value": "0x0",
        "input": "0x12c6413d00000000000000000000000000000000000000000000000000000000000000010000000000000000000000000000000000000000000000000000000000000040000000000000000000000000000000000000000000000000000000000000000f00000000000000000000000000000000000000000000000000000000000000150000000000000000000000000000000000000000000000000000000000000016000000000000000000000000000000000000000000000000000000000000001700000000000000000000000000000000000000000000000000000000000000180000000000000000000000000000000000000000000000000000000000000019000000000000000000000000000000000000000000000000000000000000001a000000000000000000000000000000000000000000000000000000000000001b000000000000000000000000000000000000000000000000000000000000001c000000000000000000000000000000000000000000000000000000000000001d000000000000000000000000000000000000000000000000000000000000001e000000000000000000000000000000000000000000000000000000000000001f0000000000000000000000000000000000000000000000000000000000000020000000000000000000000000000000000000000000000000000000000000002100000000000000000000000000000000000000000000000000000000000000220000000000000000000000000000000000000000000000000000000000000023",
        "nonce": "0x6e",
        "chainId": "0xaa36a7"
      },
      "additionalContracts": [],
      "isFixedGasLimit": false
    },
    {
      "hash": "0x83a7532a0aab9211a5acdb04bb2e9bd70778d11fc8de886227e8373a022b5401",
      "transactionType": "CALL",
      "contractName": null,
      "contractAddress": "0xa9d94123f5fe345c4367bd577fce09cd25db9348",
      "function": "addPlayersToPool(uint8,uint256[])",
      "arguments": [
        "2",
        "[36, 37, 38, 39, 40, 41, 42, 43, 44, 45]"
      ],
      "transaction": {
        "from": "0x26154579219a6f1238c3b30d78c7a58fd2eb3482",
        "to": "0xa9d94123f5fe345c4367bd577fce09cd25db9348",
        "gas": "0x62419",
        "value": "0x0",
        "input": "0x12c6413d00000000000000000000000000000000000000000000000000000000000000020000000000000000000000000000000000000000000000000000000000000040000000000000000000000000000000000000000000000000000000000000000a000000000000000000000000000000000000000000000000000000000000002400000000000000000000000000000000000000000000000000000000000000250000000000000000000000000000000000000000000000000000000000000026000000000000000000000000000000000000000000000000000000000000002700000000000000000000000000000000000000000000000000000000000000280000000000000000000000000000000000000000000000000000000000000029000000000000000000000000000000000000000000000000000000000000002a000000000000000000000000000000000000000000000000000000000000002b000000000000000000000000000000000000000000000000000000000000002c000000000000000000000000000000000000000000000000000000000000002d",
        "nonce": "0x6f",
        "chainId": "0xaa36a7"
      },
      "additionalContracts": [],
      "isFixedGasLimit": false
    },
    {
      "hash": "0xc6a21de000c71e09a3822d05ebc2432d011f3324f8810f34088f5a0e28bb3b86",
      "transactionType": "CALL",
      "contractName": null,
      "contractAddress": "0xa9d94123f5fe345c4367bd577fce09cd25db9348",
      "function": "addPlayersToPool(uint8,uint256[])",
      "arguments": [
        "3",
        "[46, 47, 48, 49, 50]"
      ],
      "transaction": {
        "from": "0x26154579219a6f1238c3b30d78c7a58fd2eb3482",
        "to": "0xa9d94123f5fe345c4367bd577fce09cd25db9348",
        "gas": "0x39b58",
        "value": "0x0",
        "input": "0x12c6413d000000000000000000000000000000000000000000000000000000000000000300000000000000000000000000000000000000000000000000000000000000400000000000000000000000000000000000000000000000000000000000000005000000000000000000000000000000000000000000000000000000000000002e000000000000000000000000000000000000000000000000000000000000002f000000000000000000000000000000000000000000000000000000000000003000000000000000000000000000000000000000000000000000000000000000310000000000000000000000000000000000000000000000000000000000000032",
        "nonce": "0x70",
        "chainId": "0xaa36a7"
      },
      "additionalContracts": [],
      "isFixedGasLimit": false
    },
    {
      "hash": "0xc04ab50ff770978dac57bb6e6c56e7a4380c31789788ad6052ad3101050f5ddc",
      "transactionType": "CALL",
      "contractName": null,
      "contractAddress": "0xa9d94123f5fe345c4367bd577fce09cd25db9348",
      "function": "addPlayersToPool(uint8,uint256[])",
      "arguments": [
        "4",
        "[51, 52]"
      ],
      "transaction": {
        "from": "0x26154579219a6f1238c3b30d78c7a58fd2eb3482",
        "to": "0xa9d94123f5fe345c4367bd577fce09cd25db9348",
        "gas": "0x21617",
        "value": "0x0",
        "input": "0x12c6413d00000000000000000000000000000000000000000000000000000000000000040000000000000000000000000000000000000000000000000000000000000040000000000000000000000000000000000000000000000000000000000000000200000000000000000000000000000000000000000000000000000000000000330000000000000000000000000000000000000000000000000000000000000034",
        "nonce": "0x71",
        "chainId": "0xaa36a7"
      },
      "additionalContracts": [],
      "isFixedGasLimit": false
    }
  ],
  "receipts": [
    {
      "status": "0x1",
      "cumulativeGasUsed": "0x1355ea1",
      "logs": [
        {
          "address": "0xa9d94123f5fe345c4367bd577fce09cd25db9348",
          "topics": [
            "0x286b0085c46d7108cc7031149112e275872b38da3414f74d22f8a7a2e547027b",
            "0x0000000000000000000000000000000000000000000000000000000000000000"
          ],
          "data": "0x00000000000000000000000000000000000000000000000000038d7ea4c680000000000000000000000000000000000000000000000000000000000000000003",
          "blockHash": "0xd3c507a4aa956af5d890b19d1f6d95c26e5d82bab7e237e5b9f21c22cfb42e34",
          "blockNumber": "0x95d9f6",
          "blockTimestamp": "0x693b5e30",
          "transactionHash": "0xc6a21de000c71e09a3822d05ebc2432d011f3324f8810f34088f5a0e28bb3b86",
          "transactionIndex": "0x49",
          "logIndex": "0x1f6",
          "removed": false
        }
      ],
      "logsBloom": "0x00000000000000000000000000000000000000000000000000000000000000000000000000000000000000000000000000000000000000000000000000000000000000000000000000000000000000000000000000000000000000000000000000000000020000000000000000000800000000000000000000000000000000000000000000000000000000000000000000000000000000000000000000000000000000000000000000800000000000000000000000000000000000000000000000000000000000000800000000000000000800000000000000000000000021000000000800000000000000000000000000000000000000000000000000000000",
      "type": "0x2",
      "transactionHash": "0xc6a21de000c71e09a3822d05ebc2432d011f3324f8810f34088f5a0e28bb3b86",
      "transactionIndex": "0x49",
      "blockHash": "0xd3c507a4aa956af5d890b19d1f6d95c26e5d82bab7e237e5b9f21c22cfb42e34",
      "blockNumber": "0x95d9f6",
      "gasUsed": "0x1fbda",
      "effectiveGasPrice": "0xf424d",
      "from": "0x26154579219a6f1238c3b30d78c7a58fd2eb3482",
      "to": "0xa9d94123f5fe345c4367bd577fce09cd25db9348",
      "contractAddress": null
    },
    {
      "status": "0x1",
      "cumulativeGasUsed": "0x1375a93",
      "logs": [
        {
          "address": "0xa9d94123f5fe345c4367bd577fce09cd25db9348",
          "topics": [
            "0x286b0085c46d7108cc7031149112e275872b38da3414f74d22f8a7a2e547027b",
            "0x0000000000000000000000000000000000000000000000000000000000000001"
          ],
          "data": "0x0000000000000000000000000000000000000000000000000011c37937e080000000000000000000000000000000000000000000000000000000000000000005",
          "blockHash": "0xd3c507a4aa956af5d890b19d1f6d95c26e5d82bab7e237e5b9f21c22cfb42e34",
          "blockNumber": "0x95d9f6",
          "blockTimestamp": "0x693b5e30",
          "transactionHash": "0x2cb490cbd5e68587313afdd541cb5f473c956e8e7bd5f20e4c53d91c45f3787b",
          "transactionIndex": "0x4a",
          "logIndex": "0x1f7",
          "removed": false
        }
      ],
      "logsBloom": "0x00000000000000000000000000000000000000000000000000000000000000000000000000000000000000000000000000000000000000000000000000040000000000000000000000000000000000000000000000040000000000000000000000000000000000000000000000000000000000000000000000000000000000000000000000000000000000000000000000000000000000000000000000000000000000000000000000800000000000000000000000000000000000000000000000000000000000000800000000000000000800000000000000000000000061000000000800000000000000000000000000000000000000000000000000000000",
      "type": "0x2",
      "transactionHash": "0x2cb490cbd5e68587313afdd541cb5f473c956e8e7bd5f20e4c53d91c45f3787b",
      "transactionIndex": "0x4a",
      "blockHash": "0xd3c507a4aa956af5d890b19d1f6d95c26e5d82bab7e237e5b9f21c22cfb42e34",
      "blockNumber": "0x95d9f6",
      "gasUsed": "0x1fbf2",
      "effectiveGasPrice": "0xf424d",
      "from": "0x26154579219a6f1238c3b30d78c7a58fd2eb3482",
      "to": "0xa9d94123f5fe345c4367bd577fce09cd25db9348",
      "contractAddress": null
    },
    {
      "status": "0x1",
      "cumulativeGasUsed": "0x1395679",
      "logs": [
        {
          "address": "0xa9d94123f5fe345c4367bd577fce09cd25db9348",
          "topics": [
            "0x286b0085c46d7108cc7031149112e275872b38da3414f74d22f8a7a2e547027b",
            "0x0000000000000000000000000000000000000000000000000000000000000002"
          ],
          "data": "0x000000000000000000000000000000000000000000000000002386f26fc10000000000000000000000000000000000000000000000000000000000000000000a",
          "blockHash": "0xd3c507a4aa956af5d890b19d1f6d95c26e5d82bab7e237e5b9f21c22cfb42e34",
          "blockNumber": "0x95d9f6",
          "blockTimestamp": "0x693b5e30",
          "transactionHash": "0x0118728578d176cbdd46ffa82648cc3659886b15c28d359abeae5318da7f9ec7",
          "transactionIndex": "0x4b",
          "logIndex": "0x1f8",
          "removed": false
        }
      ],
      "logsBloom": "0x04000000000000000000000000000000000000000000000000000000000000000000000000000000000000000000000000000000000000000000000000000000000000000000000000000000000000000000000000000000000000000000000000000000000000000000000000000000000000000000000000000000000000000000000000000000000000000000000000000000000000000000000000000000000000000000000000800100000000000000000000000000000000000000000000000000000000000800000000000000000800000000000000000000000021000000000800000000000000000000000000000000008000000000000000000000",
      "type": "0x2",
      "transactionHash": "0x0118728578d176cbdd46ffa82648cc3659886b15c28d359abeae5318da7f9ec7",
      "transactionIndex": "0x4b",
      "blockHash": "0xd3c507a4aa956af5d890b19d1f6d95c26e5d82bab7e237e5b9f21c22cfb42e34",
      "blockNumber": "0x95d9f6",
      "gasUsed": "0x1fbe6",
      "effectiveGasPrice": "0xf424d",
      "from": "0x26154579219a6f1238c3b30d78c7a58fd2eb3482",
      "to": "0xa9d94123f5fe345c4367bd577fce09cd25db9348",
      "contractAddress": null
    },
    {
      "status": "0x1",
      "cumulativeGasUsed": "0x141008e",
      "logs": [
        {
          "address": "0xa9d94123f5fe345c4367bd577fce09cd25db9348",
          "topics": [
            "0x6e82d7c795d00fd9b64700b7c138eba363449f2b06f7cb91747c656c626c4759",
            "0x0000000000000000000000000000000000000000000000000000000000000000"
          ],
          "data": "0x0000000000000000000000000000000000000000000000000000000000000014",
          "blockHash": "0xd3c507a4aa956af5d890b19d1f6d95c26e5d82bab7e237e5b9f21c22cfb42e34",
          "blockNumber": "0x95d9f6",
          "blockTimestamp": "0x693b5e30",
          "transactionHash": "0xc04ab50ff770978dac57bb6e6c56e7a4380c31789788ad6052ad3101050f5ddc",
          "transactionIndex": "0x4c",
          "logIndex": "0x1f9",
          "removed": false
        }
      ],
      "logsBloom": "0x00000000000000000000000000000000000000000000000000000000000020000000000000000000000000000000000000000000000000000000000000000000000000000000000000000000000000000000000000000000000000000000000000000000020000000000000000000800000000000000000000000000000000000000000000000000000000000000000000000000000000000000008000000000000000000000000000000000000000800000000000000000000000000000000000000000000000000800000000000000000800000000000000000000000020000000000000000000000000000000000000000000000000000000000000000000",
      "type": "0x2",
      "transactionHash": "0xc04ab50ff770978dac57bb6e6c56e7a4380c31789788ad6052ad3101050f5ddc",
      "transactionIndex": "0x4c",
      "blockHash": "0xd3c507a4aa956af5d890b19d1f6d95c26e5d82bab7e237e5b9f21c22cfb42e34",
      "blockNumber": "0x95d9f6",
      "gasUsed": "0x7aa15",
      "effectiveGasPrice": "0xf424d",
      "from": "0x26154579219a6f1238c3b30d78c7a58fd2eb3482",
      "to": "0xa9d94123f5fe345c4367bd577fce09cd25db9348",
      "contractAddress": null
    },
    {
      "status": "0x1",
      "cumulativeGasUsed": "0x146ef17",
      "logs": [
        {
          "address": "0xa9d94123f5fe345c4367bd577fce09cd25db9348",
          "topics": [
            "0x6e82d7c795d00fd9b64700b7c138eba363449f2b06f7cb91747c656c626c4759",
            "0x0000000000000000000000000000000000000000000000000000000000000001"
          ],
          "data": "0x000000000000000000000000000000000000000000000000000000000000000f",
          "blockHash": "0xd3c507a4aa956af5d890b19d1f6d95c26e5d82bab7e237e5b9f21c22cfb42e34",
          "blockNumber": "0x95d9f6",
          "blockTimestamp": "0x693b5e30",
          "transactionHash": "0xd179de6bf41f41aff7dd05585aad50f689ea0cc97e52fd561c0e51dd1b481a4f",
          "transactionIndex": "0x4d",
          "logIndex": "0x1fa",
          "removed": false
        }
      ],
      "logsBloom": "0x00000000000000000000000000000000000000000000000000000000000020000000000000000000000000000000000000000000000000000000000000040000000000000000000000000000000000000000000000040000000000000000000000000000000000000000000000000000000000000000000000000000000000000000000000000000000000000000000000000000000000000000008000000000000000000000000000000000000000800000000000000000000000000000000000000000000000000800000000000000000800000000000000000000000060000000000000000000000000000000000000000000000000000000000000000000",
      "type": "0x2",
      "transactionHash": "0xd179de6bf41f41aff7dd05585aad50f689ea0cc97e52fd561c0e51dd1b481a4f",
      "transactionIndex": "0x4d",
      "blockHash": "0xd3c507a4aa956af5d890b19d1f6d95c26e5d82bab7e237e5b9f21c22cfb42e34",
      "blockNumber": "0x95d9f6",
      "gasUsed": "0x5ee89",
      "effectiveGasPrice": "0xf424d",
      "from": "0x26154579219a6f1238c3b30d78c7a58fd2eb3482",
      "to": "0xa9d94123f5fe345c4367bd577fce09cd25db9348",
      "contractAddress": null
    },
    {
      "status": "0x1",
      "cumulativeGasUsed": "0x14b2208",
      "logs": [
        {
          "address": "0xa9d94123f5fe345c4367bd577fce09cd25db9348",
          "topics": [
            "0x6e82d7c795d00fd9b64700b7c138eba363449f2b06f7cb91747c656c626c4759",
            "0x0000000000000000000000000000000000000000000000000000000000000002"
          ],
          "data": "0x000000000000000000000000000000000000000000000000000000000000000a",
          "blockHash": "0xd3c507a4aa956af5d890b19d1f6d95c26e5d82bab7e237e5b9f21c22cfb42e34",
          "blockNumber": "0x95d9f6",
          "blockTimestamp": "0x693b5e30",
          "transactionHash": "0x83a7532a0aab9211a5acdb04bb2e9bd70778d11fc8de886227e8373a022b5401",
          "transactionIndex": "0x4e",
          "logIndex": "0x1fb",
          "removed": false
        }
      ],
      "logsBloom": "0x04000000000000000000000000000000000000000000000000000000000020000000000000000000000000000000000000000000000000000000000000000000000000000000000000000000000000000000000000000000000000000000000000000000000000000000000000000000000000000000000000000000000000000000000000000000000000000000000000000000000000000000008000000000000000000000000000000100000000800000000000000000000000000000000000000000000000000800000000000000000800000000000000000000000020000000000000000000000000000000000000000000008000000000000000000000",
      "type": "0x2",
      "transactionHash": "0x83a7532a0aab9211a5acdb04bb2e9bd70778d11fc8de886227e8373a022b5401",
      "transactionIndex": "0x4e",
      "blockHash": "0xd3c507a4aa956af5d890b19d1f6d95c26e5d82bab7e237e5b9f21c22cfb42e34",
      "blockNumber": "0x95d9f6",
      "gasUsed": "0x432f1",
      "effectiveGasPrice": "0xf424d",
      "from": "0x26154579219a6f1238c3b30d78c7a58fd2eb3482",
      "to": "0xa9d94123f5fe345c4367bd577fce09cd25db9348",
      "contractAddress": null
    },
    {
      "status": "0x1",
      "cumulativeGasUsed": "0x14d9961",
      "logs": [
        {
          "address": "0xa9d94123f5fe345c4367bd577fce09cd25db9348",
          "topics": [
            "0x6e82d7c795d00fd9b64700b7c138eba363449f2b06f7cb91747c656c626c4759",
            "0x0000000000000000000000000000000000000000000000000000000000000003"
          ],
          "data": "0x0000000000000000000000000000000000000000000000000000000000000005",
          "blockHash": "0xd3c507a4aa956af5d890b19d1f6d95c26e5d82bab7e237e5b9f21c22cfb42e34",
          "blockNumber": "0x95d9f6",
          "blockTimestamp": "0x693b5e30",
          "transactionHash": "0x79760c4661d3191aeda2e7f79d8bd21dbd0a9cd76011af81e40d3a9975b9f25b",
          "transactionIndex": "0x4f",
          "logIndex": "0x1fc",
          "removed": false
        }
      ],
      "logsBloom": "0x00000000000000000000000000000000000000000000000000000000000020000000000000000000000000000000000000000000020000000000000000000000000000000000000000000000000000000000000000000000000000000000000000000000000000000000000000000000000000000000000000000000000000000000000000000000000000000000000000000000000000000000008000000000000000000000000000000000000000800000000000800000000000000000400000000000000000000800000000000000000800000000000000000000000020000000000000000000000000000000000000000000000000000000000000000000",
      "type": "0x2",
      "transactionHash": "0x79760c4661d3191aeda2e7f79d8bd21dbd0a9cd76011af81e40d3a9975b9f25b",
      "transactionIndex": "0x4f",
      "blockHash": "0xd3c507a4aa956af5d890b19d1f6d95c26e5d82bab7e237e5b9f21c22cfb42e34",
      "blockNumber": "0x95d9f6",
      "gasUsed": "0x27759",
      "effectiveGasPrice": "0xf424d",
      "from": "0x26154579219a6f1238c3b30d78c7a58fd2eb3482",
      "to": "0xa9d94123f5fe345c4367bd577fce09cd25db9348",
      "contractAddress": null
    },
    {
      "status": "0x1",
      "cumulativeGasUsed": "0x1564ab1",
      "logs": [
        {
          "address": "0xa9d94123f5fe345c4367bd577fce09cd25db9348",
          "topics": [
            "0x6e82d7c795d00fd9b64700b7c138eba363449f2b06f7cb91747c656c626c4759",
            "0x0000000000000000000000000000000000000000000000000000000000000004"
          ],
          "data": "0x0000000000000000000000000000000000000000000000000000000000000002",
          "blockHash": "0xd3c507a4aa956af5d890b19d1f6d95c26e5d82bab7e237e5b9f21c22cfb42e34",
          "blockNumber": "0x95d9f6",
          "blockTimestamp": "0x693b5e30",
          "transactionHash": "0xac29d7c2bacea8ac31cafd76790493a66f6c20b5f6fafebb799fd23651b32161",
          "transactionIndex": "0x55",
          "logIndex": "0x205",
          "removed": false
        }
      ],
      "logsBloom": "0x00000000000000000000000000000000000000000000000000000000000020000000000000000000000000000000000000000000000000000000000000000000000000000000000000000000000000000000000000000000000000000000000008000000000000000000000000000000000000000000000000000000000000000000000000000000000000000000000000000000000000000000008000000000000000000000000000000000000000800000000000000000002000000000000000000000000000000800000000000000000800008000000000000000000020000000000000000000000000000000000000000000000000000000000000000000",
      "type": "0x2",
      "transactionHash": "0xac29d7c2bacea8ac31cafd76790493a66f6c20b5f6fafebb799fd23651b32161",
      "transactionIndex": "0x55",
      "blockHash": "0xd3c507a4aa956af5d890b19d1f6d95c26e5d82bab7e237e5b9f21c22cfb42e34",
      "blockNumber": "0x95d9f6",
      "gasUsed": "0x16d31",
      "effectiveGasPrice": "0xf424d",
      "from": "0x26154579219a6f1238c3b30d78c7a58fd2eb3482",
      "to": "0xa9d94123f5fe345c4367bd577fce09cd25db9348",
      "contractAddress": null
    }
  ],
  "libraries": [],
  "pending": [],
  "returns": {},
  "timestamp": 1765498416944,
  "chain": 11155111,
  "commit": "c08d105"
}