{
  "transactions": [
    {
      "hash": "0x521d9b53f621cfa4712ad0e95284f7d413faf156f8eb22d3c3be6740b2bf1527",
      "transactionType": "CALL",
      "contractName": null,
      "contractAddress": "0xa9d94123f5fe345c4367bd577fce09cd25db9348",
      "function": "configurePackType(uint8,uint256,uint8,uint8[])",
      "arguments": [
        "0",
        "1000000000000000",
        "3",
        "[70, 20, 8, 2, 0]"
      ],
      "transaction": {
        "from": "0x26154579219a6f1238c3b30d78c7a58fd2eb3482",
        "to": "0xa9d94123f5fe345c4367bd577fce09cd25db9348",
        "gas": "0x11ffc",
        "value": "0x0",
        "input": "0x0ffbd9e4000000000000000000000000000000000000000000000000000000000000000000000000000000000000000000000000000000000000000000038d7ea4c6800000000000000000000000000000000000000000000000000000000000000000030000000000000000000000000000000000000000000000000000000000000080000000000000000000000000000000000000000000000000000000000000000500000000000000000000000000000000000000000000000000000000000000460000000000000000000000000000000000000000000000000000000000000014000000000000000000000000000000000000000000000000000000000000000800000000000000000000000000000000000000000000000000000000000000020000000000000000000000000000000000000000000000000000000000000000",
        "nonce": "0x8b",
        "chainId": "0xaa36a7"
      },
      "additionalContracts": [],
      "isFixedGasLimit": false
    },
    {
      "hash": "0x9e74fdb6c0fb93f3806e93cf447bcf3c2fba23821987a7c521ae45b82e171d84",
      "transactionType": "CALL",
      "contractName": null,
      "contractAddress": "0xa9d94123f5fe345c4367bd577fce09cd25db9348",
      "function": "configurePackType(uint8,uint256,uint8,uint8[])",
      "arguments": [
        "1",
        "5000000000000000",
        "5",
        "[50, 30, 15, 4, 1]"
      ],
      "transaction": {
        "from": "0x26154579219a6f1238c3b30d78c7a58fd2eb3482",
        "to": "0xa9d94123f5fe345c4367bd577fce09cd25db9348",
        "gas": "0x1201f",
        "value": "0x0",
        "input": "0x0ffbd9e400000000000000000000000000000000000000000000000000000000000000010000000000000000000000000000000000000000000000000011c37937e080000000000000000000000000000000000000000000000000000000000000000005000000000000000000000000000000000000000000000000000000000000008000000000000000000000000000000000000000000000000000000000000000050000000000000000000000000000000000000000000000000000000000000032000000000000000000000000000000000000000000000000000000000000001e000000000000000000000000000000000000000000000000000000000000000f00000000000000000000000000000000000000000000000000000000000000040000000000000000000000000000000000000000000000000000000000000001",
        "nonce": "0x8c",
        "chainId": "0xaa36a7"
      },
      "additionalContracts": [],
      "isFixedGasLimit": false
    },
    {
      "hash": "0xe055ca5c80de45ab8cd80cf71863a0d31fa626191d19376a2dd273186f0fb00e",
      "transactionType": "CALL",
      "contractName": null,
      "contractAddress": "0xa9d94123f5fe345c4367bd577fce09cd25db9348",
      "function": "configurePackType(uint8,uint256,uint8,uint8[])",
      "arguments": [
        "2",
        "10000000000000000",
        "5",
        "[40, 30, 20, 8, 2]"
      ],
      "transaction": {
        "from": "0x26154579219a6f1238c3b30d78c7a58fd2eb3482",
        "to": "0xa9d94123f5fe345c4367bd577fce09cd25db9348",
        "gas": "0x11f28",
        "value": "0x0",
        "input": "0x0ffbd9e40000000000000000000000000000000000000000000000000000000000000002000000000000000000000000000000000000000000000000002386f26fc100000000000000000000000000000000000000000000000000000000000000000005000000000000000000000000000000000000000000000000000000000000008000000000000000000000000000000000000000000000000000000000000000050000000000000000000000000000000000000000000000000000000000000028000000000000000000000000000000000000000000000000000000000000001e000000000000000000000000000000000000000000000000000000000000001400000000000000000000000000000000000000000000000000000000000000080000000000000000000000000000000000000000000000000000000000000002",
        "nonce": "0x8d",
        "chainId": "0xaa36a7"
      },
      "additionalContracts": [],
      "isFixedGasLimit": false
    },
    {
      "hash": "0xc2f025f60eef589598b8504ae6631cab48272febda10690bc92d87e1bc219dfa",
      "transactionType": "CALL",
      "contractName": null,
      "contractAddress": "0xa9d94123f5fe345c4367bd577fce09cd25db9348",
      "function": "addPlayersToPool(uint8,uint256[])",
      "arguments": [
        "0",
        "[1, 2, 3, 4, 5, 6, 7, 8, 9, 10, 11, 12, 13, 14, 15, 16, 17, 18, 19, 20]"
      ],
      "transaction": {
        "from": "0x26154579219a6f1238c3b30d78c7a58fd2eb3482",
        "to": "0xa9d94123f5fe345c4367bd577fce09cd25db9348",
        "gas": "0xad3da",
        "value": "0x0",
        "input": "0x12c6413d000000000000000000000000000000000000000000000000000000000000000000000000000000000000000000000000000000000000000000000000000000400000000000000000000000000000000000000000000000000000000000000014000000000000000000000000000000000000000000000000000000000000000100000000000000000000000000000000000000000000000000000000000000020000000000000000000000000000000000000000000000000000000000000003000000000000000000000000000000000000000000000000000000000000000400000000000000000000000000000000000000000000000000000000000000050000000000000000000000000000000000000000000000000000000000000006000000000000000000000000000000000000000000000000000000000000000700000000000000000000000000000000000000000000000000000000000000080000000000000000000000000000000000000000000000000000000000000009000000000000000000000000000000000000000000000000000000000000000a000000000000000000000000000000000000000000000000000000000000000b000000000000000000000000000000000000000000000000000000000000000c000000000000000000000000000000000000000000000000000000000000000d000000000000000000000000000000000000000000000000000000000000000e000000000000000000000000000000000000000000000000000000000000000f00000000000000000000000000000000000000000000000000000000000000100000000000000000000000000000000000000000000000000000000000000011000000000000000000000000000000000000000000000000000000000000001200000000000000000000000000000000000000000000000000000000000000130000000000000000000000000000000000000000000000000000000000000014",
        "nonce": "0x8e",
        "chainId": "0xaa36a7"
      },
      "additionalContracts": [],
      "isFixedGasLimit": false
    },
    {
      "hash": "0x92fa36b921eb09aee6b0782279b2ab356b87a3377721599fe3a90d809c2cb1ba",
      "transactionType": "CALL",
      "contractName": null,
      "contractAddress": "0xa9d94123f5fe345c4367bd577fce09cd25db9348",
      "function": "addPlayersToPool(uint8,uint256[])",
      "arguments": [
        "1",
        "[21, 22, 23, 24, 25, 26, 27, 28, 29, 30, 31, 32, 33, 34, 35]"
      ],
      "transaction": {
        "from": "0x26154579219a6f1238c3b30d78c7a58fd2eb3482",
        "to": "0xa9d94123f5fe345c4367bd577fce09cd25db9348",
        "gas": "0x7d535",
        "value": "0x0",
        "input": "0x12c6413d00000000000000000000000000000000000000000000000000000000000000010000000000000000000000000000000000000000000000000000000000000040000000000000000000000000000000000000000000000000000000000000000f00000000000000000000000000000000000000000000000000000000000000150000000000000000000000000000000000000000000000000000000000000016000000000000000000000000000000000000000000000000000000000000001700000000000000000000000000000000000000000000000000000000000000180000000000000000000000000000000000000000000000000000000000000019000000000000000000000000000000000000000000000000000000000000001a000000000000000000000000000000000000000000000000000000000000001b000000000000000000000000000000000000000000000000000000000000001c000000000000000000000000000000000000000000000000000000000000001d000000000000000000000000000000000000000000000000000000000000001e000000000000000000000000000000000000000000000000000000000000001f0000000000000000000000000000000000000000000000000000000000000020000000000000000000000000000000000000000000000000000000000000002100000000000000000000000000000000000000000000000000000000000000220000000000000000000000000000000000000000000000000000000000000023",
        "nonce": "0x8f",
        "chainId": "0xaa36a7"
      },
      "additionalContracts": [],
      "isFixedGasLimit": false
    },
    {
      "hash": "0xbfe10d494a855ae56f9f84b87158268537a622d8fd08c51fc557685e83628ec7",
      "transactionType": "CALL",
      "contractName": null,
      "contractAddress": "0xa9d94123f5fe345c4367bd577fce09cd25db9348",
      "function": "addPlayersToPool(uint8,uint256[])",
      "arguments": [
        "2",
        "[36, 37, 38, 39, 40, 41, 42, 43, 44, 45]"
      ],
      "transaction": {
        "from": "0x26154579219a6f1238c3b30d78c7a58fd2eb3482",
        "to": "0xa9d94123f5fe345c4367bd577fce09cd25db9348",
        "gas": "0x5707f",
        "value": "0x0",
        "input": "0x12c6413d00000000000000000000000000000000000000000000000000000000000000020000000000000000000000000000000000000000000000000000000000000040000000000000000000000000000000000000000000000000000000000000000a000000000000000000000000000000000000000000000000000000000000002400000000000000000000000000000000000000000000000000000000000000250000000000000000000000000000000000000000000000000000000000000026000000000000000000000000000000000000000000000000000000000000002700000000000000000000000000000000000000000000000000000000000000280000000000000000000000000000000000000000000000000000000000000029000000000000000000000000000000000000000000000000000000000000002a000000000000000000000000000000000000000000000000000000000000002b000000000000000000000000000000000000000000000000000000000000002c000000000000000000000000000000000000000000000000000000000000002d",
        "nonce": "0x90",
        "chainId": "0xaa36a7"
      },
      "additionalContracts": [],
      "isFixedGasLimit": false
    },
    {
      "hash": "0xf939707e227fcf2d49b54219990e0bce9140707a9059a8342acff36b36c8a21a",
      "transactionType": "CALL",
      "contractName": null,
      "contractAddress": "0xa9d94123f5fe345c4367bd577fce09cd25db9348",
      "function": "addPlayersToPool(uint8,uint256[])",
      "arguments": [
        "3",
        "[46, 47, 48, 49, 50]"
      ],
      "transaction": {
        "from": "0x26154579219a6f1238c3b30d78c7a58fd2eb3482",
        "to": "0xa9d94123f5fe345c4367bd577fce09cd25db9348",
        "gas": "0x30bc8",
        "value": "0x0",
        "input": "0x12c6413d000000000000000000000000000000000000000000000000000000000000000300000000000000000000000000000000000000000000000000000000000000400000000000000000000000000000000000000000000000000000000000000005000000000000000000000000000000000000000000000000000000000000002e000000000000000000000000000000000000000000000000000000000000002f000000000000000000000000000000000000000000000000000000000000003000000000000000000000000000000000000000000000000000000000000000310000000000000000000000000000000000000000000000000000000000000032",
        "nonce": "0x91",
        "chainId": "0xaa36a7"
      },
      "additionalContracts": [],
      "isFixedGasLimit": false
    },
    {
      "hash": "0x371e8082459abbc4169043d100f30d6af7b5a002ab1e5336833cca2fd160cad3",
      "transactionType": "CALL",
      "contractName": null,
      "contractAddress": "0xa9d94123f5fe345c4367bd577fce09cd25db9348",
      "function": "addPlayersToPool(uint8,uint256[])",
      "arguments": [
        "4",
        "[51, 52]"
      ],
      "transaction": {
        "from": "0x26154579219a6f1238c3b30d78c7a58fd2eb3482",
        "to": "0xa9d94123f5fe345c4367bd577fce09cd25db9348",
        "gas": "0x19c27",
        "value": "0x0",
        "input": "0x12c6413d00000000000000000000000000000000000000000000000000000000000000040000000000000000000000000000000000000000000000000000000000000040000000000000000000000000000000000000000000000000000000000000000200000000000000000000000000000000000000000000000000000000000000330000000000000000000000000000000000000000000000000000000000000034",
        "nonce": "0x92",
        "chainId": "0xaa36a7"
      },
      "additionalContracts": [],
      "isFixedGasLimit": false
    }
  ],
  "receipts": [
    {
      "status": "0x1",
      "cumulativeGasUsed": "0xa3dd58",
      "logs": [
        {
          "address": "0xa9d94123f5fe345c4367bd577fce09cd25db9348",
          "topics": [
            "0x286b0085c46d7108cc7031149112e275872b38da3414f74d22f8a7a2e547027b",
            "0x0000000000000000000000000000000000000000000000000000000000000000"
          ],
          "data": "0x00000000000000000000000000000000000000000000000000038d7ea4c680000000000000000000000000000000000000000000000000000000000000000003",
          "blockHash": "0x1d3efeb3e8a595a6a319e60e7b81200861338cf93c02aa5137c2ae0295ca6e12",
          "blockNumber": "0x9612b6",
          "blockTimestamp": "0x693e09a0",
          "transactionHash": "0xc2f025f60eef589598b8504ae6631cab48272febda10690bc92d87e1bc219dfa",
          "transactionIndex": "0x2e",
          "logIndex": "0x14e",
          "removed": false
        }
      ],
      "logsBloom": "0x00000000000000000000000000000000000000000000000000000000000000000000000000000000000000000000000000000000000000000000000000000000000000000000000000000000000000000000000000000000000000000000000000000000020000000000000000000800000000000000000000000000000000000000000000000000000000000000000000000000000000000000000000000000000000000000000000800000000000000000000000000000000000000000000000000000000000000800000000000000000800000000000000000000000021000000000800000000000000000000000000000000000000000000000000000000",
      "type": "0x2",
      "transactionHash": "0xc2f025f60eef589598b8504ae6631cab48272febda10690bc92d87e1bc219dfa",
      "transactionIndex": "0x2e",
      "blockHash": "0x1d3efeb3e8a595a6a319e60e7b81200861338cf93c02aa5137c2ae0295ca6e12",
      "blockNumber": "0x9612b6",
      "gasUsed": "0xc4ea",
      "effectiveGasPrice": "0x1455ed",
      "from": "0x26154579219a6f1238c3b30d78c7a58fd2eb3482",
      "to": "0xa9d94123f5fe345c4367bd577fce09cd25db9348",
      "contractAddress": null
    },
    {
      "status": "0x1",
      "cumulativeGasUsed": "0xa4a25a",
      "logs": [
        {
          "address": "0xa9d94123f5fe345c4367bd577fce09cd25db9348",
          "topics": [
            "0x286b0085c46d7108cc7031149112e275872b38da3414f74d22f8a7a2e547027b",
            "0x0000000000000000000000000000000000000000000000000000000000000001"
          ],
          "data": "0x0000000000000000000000000000000000000000000000000011c37937e080000000000000000000000000000000000000000000000000000000000000000005",
          "blockHash": "0x1d3efeb3e8a595a6a319e60e7b81200861338cf93c02aa5137c2ae0295ca6e12",
          "blockNumber": "0x9612b6",
          "blockTimestamp": "0x693e09a0",
          "transactionHash": "0xe055ca5c80de45ab8cd80cf71863a0d31fa626191d19376a2dd273186f0fb00e",
          "transactionIndex": "0x2f",
          "logIndex": "0x14f",
          "removed": false
        }
      ],
      "logsBloom": "0x00000000000000000000000000000000000000000000000000000000000000000000000000000000000000000000000000000000000000000000000000040000000000000000000000000000000000000000000000040000000000000000000000000000000000000000000000000000000000000000000000000000000000000000000000000000000000000000000000000000000000000000000000000000000000000000000000800000000000000000000000000000000000000000000000000000000000000800000000000000000800000000000000000000000061000000000800000000000000000000000000000000000000000000000000000000",
      "type": "0x2",
      "transactionHash": "0xe055ca5c80de45ab8cd80cf71863a0d31fa626191d19376a2dd273186f0fb00e",
      "transactionIndex": "0x2f",
      "blockHash": "0x1d3efeb3e8a595a6a319e60e7b81200861338cf93c02aa5137c2ae0295ca6e12",
      "blockNumber": "0x9612b6",
      "gasUsed": "0xc502",
      "effectiveGasPrice": "0x1455ed",
      "from": "0x26154579219a6f1238c3b30d78c7a58fd2eb3482",
      "to": "0xa9d94123f5fe345c4367bd577fce09cd25db9348",
      "contractAddress": null
    },
    {
      "status": "0x1",
      "cumulativeGasUsed": "0xa57240",
      "logs": [
        {
          "address": "0xa9d94123f5fe345c4367bd577fce09cd25db9348",
          "topics": [
            "0x286b0085c46d7108cc7031149112e275872b38da3414f74d22f8a7a2e547027b",
            "0x0000000000000000000000000000000000000000000000000000000000000002"
          ],
          "data": "0x000000000000000000000000000000000000000000000000002386f26fc100000000000000000000000000000000000000000000000000000000000000000005",
          "blockHash": "0x1d3efeb3e8a595a6a319e60e7b81200861338cf93c02aa5137c2ae0295ca6e12",
          "blockNumber": "0x9612b6",
          "blockTimestamp": "0x693e09a0",
          "transactionHash": "0xf939707e227fcf2d49b54219990e0bce9140707a9059a8342acff36b36c8a21a",
          "transactionIndex": "0x30",
          "logIndex": "0x150",
          "removed": false
        }
      ],
      "logsBloom": "0x04000000000000000000000000000000000000000000000000000000000000000000000000000000000000000000000000000000000000000000000000000000000000000000000000000000000000000000000000000000000000000000000000000000000000000000000000000000000000000000000000000000000000000000000000000000000000000000000000000000000000000000000000000000000000000000000000800100000000000000000000000000000000000000000000000000000000000800000000000000000800000000000000000000000021000000000800000000000000000000000000000000008000000000000000000000",
      "type": "0x2",
      "transactionHash": "0xf939707e227fcf2d49b54219990e0bce9140707a9059a8342acff36b36c8a21a",
      "transactionIndex": "0x30",
      "blockHash": "0x1d3efeb3e8a595a6a319e60e7b81200861338cf93c02aa5137c2ae0295ca6e12",
      "blockNumber": "0x9612b6",
      "gasUsed": "0xcfe6",
      "effectiveGasPrice": "0x1455ed",
      "from": "0x26154579219a6f1238c3b30d78c7a58fd2eb3482",
      "to": "0xa9d94123f5fe345c4367bd577fce09cd25db9348",
      "contractAddress": null
    },
    {
      "status": "0x1",
      "cumulativeGasUsed": "0xacd989",
      "logs": [
        {
          "address": "0xa9d94123f5fe345c4367bd577fce09cd25db9348",
          "topics": [
            "0x6e82d7c795d00fd9b64700b7c138eba363449f2b06f7cb91747c656c626c4759",
            "0x0000000000000000000000000000000000000000000000000000000000000000"
          ],
          "data": "0x0000000000000000000000000000000000000000000000000000000000000028",
          "blockHash": "0x1d3efeb3e8a595a6a319e60e7b81200861338cf93c02aa5137c2ae0295ca6e12",
          "blockNumber": "0x9612b6",
          "blockTimestamp": "0x693e09a0",
          "transactionHash": "0x521d9b53f621cfa4712ad0e95284f7d413faf156f8eb22d3c3be6740b2bf1527",
          "transactionIndex": "0x31",
          "logIndex": "0x151",
          "removed": false
        }
      ],
      "logsBloom": "0x00000000000000000000000000000000000000000000000000000000000020000000000000000000000000000000000000000000000000000000000000000000000000000000000000000000000000000000000000000000000000000000000000000000020000000000000000000800000000000000000000000000000000000000000000000000000000000000000000000000000000000000008000000000000000000000000000000000000000800000000000000000000000000000000000000000000000000800000000000000000800000000000000000000000020000000000000000000000000000000000000000000000000000000000000000000",
      "type": "0x2",
      "transactionHash": "0x521d9b53f621cfa4712ad0e95284f7d413faf156f8eb22d3c3be6740b2bf1527",
      "transactionIndex": "0x31",
      "blockHash": "0x1d3efeb3e8a595a6a319e60e7b81200861338cf93c02aa5137c2ae0295ca6e12",
      "blockNumber": "0x9612b6",
      "gasUsed": "0x76749",
      "effectiveGasPrice": "0x1455ed",
      "from": "0x26154579219a6f1238c3b30d78c7a58fd2eb3482",
      "to": "0xa9d94123f5fe345c4367bd577fce09cd25db9348",
      "contractAddress": null
    },
    {
      "status": "0x1",
      "cumulativeGasUsed": "0xb28546",
      "logs": [
        {
          "address": "0xa9d94123f5fe345c4367bd577fce09cd25db9348",
          "topics": [
            "0x6e82d7c795d00fd9b64700b7c138eba363449f2b06f7cb91747c656c626c4759",
            "0x0000000000000000000000000000000000000000000000000000000000000001"
          ],
          "data": "0x000000000000000000000000000000000000000000000000000000000000001e",
          "blockHash": "0x1d3efeb3e8a595a6a319e60e7b81200861338cf93c02aa5137c2ae0295ca6e12",
          "blockNumber": "0x9612b6",
          "blockTimestamp": "0x693e09a0",
          "transactionHash": "0xbfe10d494a855ae56f9f84b87158268537a622d8fd08c51fc557685e83628ec7",
          "transactionIndex": "0x32",
          "logIndex": "0x152",
          "removed": false
        }
      ],
      "logsBloom": "0x00000000000000000000000000000000000000000000000000000000000020000000000000000000000000000000000000000000000000000000000000040000000000000000000000000000000000000000000000040000000000000000000000000000000000000000000000000000000000000000000000000000000000000000000000000000000000000000000000000000000000000000008000000000000000000000000000000000000000800000000000000000000000000000000000000000000000000800000000000000000800000000000000000000000060000000000000000000000000000000000000000000000000000000000000000000",
      "type": "0x2",
      "transactionHash": "0xbfe10d494a855ae56f9f84b87158268537a622d8fd08c51fc557685e83628ec7",
      "transactionIndex": "0x32",
      "blockHash": "0x1d3efeb3e8a595a6a319e60e7b81200861338cf93c02aa5137c2ae0295ca6e12",
      "blockNumber": "0x9612b6",
      "gasUsed": "0x5abbd",
      "effectiveGasPrice": "0x1455ed",
      "from": "0x26154579219a6f1238c3b30d78c7a58fd2eb3482",
      "to": "0xa9d94123f5fe345c4367bd577fce09cd25db9348",
      "contractAddress": null
    },
    {
      "status": "0x1",
      "cumulativeGasUsed": "0xb6756b",
      "logs": [
        {
          "address": "0xa9d94123f5fe345c4367bd577fce09cd25db9348",
          "topics": [
            "0x6e82d7c795d00fd9b64700b7c138eba363449f2b06f7cb91747c656c626c4759",
            "0x0000000000000000000000000000000000000000000000000000000000000002"
          ],
          "data": "0x0000000000000000000000000000000000000000000000000000000000000014",
          "blockHash": "0x1d3efeb3e8a595a6a319e60e7b81200861338cf93c02aa5137c2ae0295ca6e12",
          "blockNumber": "0x9612b6",
          "blockTimestamp": "0x693e09a0",
          "transactionHash": "0x9e74fdb6c0fb93f3806e93cf447bcf3c2fba23821987a7c521ae45b82e171d84",
          "transactionIndex": "0x33",
          "logIndex": "0x153",
          "removed": false
        }
      ],
      "logsBloom": "0x04000000000000000000000000000000000000000000000000000000000020000000000000000000000000000000000000000000000000000000000000000000000000000000000000000000000000000000000000000000000000000000000000000000000000000000000000000000000000000000000000000000000000000000000000000000000000000000000000000000000000000000008000000000000000000000000000000100000000800000000000000000000000000000000000000000000000000800000000000000000800000000000000000000000020000000000000000000000000000000000000000000008000000000000000000000",
      "type": "0x2",
      "transactionHash": "0x9e74fdb6c0fb93f3806e93cf447bcf3c2fba23821987a7c521ae45b82e171d84",
      "transactionIndex": "0x33",
      "blockHash": "0x1d3efeb3e8a595a6a319e60e7b81200861338cf93c02aa5137c2ae0295ca6e12",
      "blockNumber": "0x9612b6",
      "gasUsed": "0x3f025",
      "effectiveGasPrice": "0x1455ed",
      "from": "0x26154579219a6f1238c3b30d78c7a58fd2eb3482",
      "to": "0xa9d94123f5fe345c4367bd577fce09cd25db9348",
      "contractAddress": null
    },
    {
      "status": "0x1",
      "cumulativeGasUsed": "0xb8a9f8",
      "logs": [
        {
          "address": "0xa9d94123f5fe345c4367bd577fce09cd25db9348",
          "topics": [
            "0x6e82d7c795d00fd9b64700b7c138eba363449f2b06f7cb91747c656c626c4759",
            "0x0000000000000000000000000000000000000000000000000000000000000003"
          ],
          "data": "0x000000000000000000000000000000000000000000000000000000000000000a",
          "blockHash": "0x1d3efeb3e8a595a6a319e60e7b81200861338cf93c02aa5137c2ae0295ca6e12",
          "blockNumber": "0x9612b6",
          "blockTimestamp": "0x693e09a0",
          "transactionHash": "0x371e8082459abbc4169043d100f30d6af7b5a002ab1e5336833cca2fd160cad3",
          "transactionIndex": "0x34",
          "logIndex": "0x154",
          "removed": false
        }
      ],
      "logsBloom": "0x00000000000000000000000000000000000000000000000000000000000020000000000000000000000000000000000000000000020000000000000000000000000000000000000000000000000000000000000000000000000000000000000000000000000000000000000000000000000000000000000000000000000000000000000000000000000000000000000000000000000000000000008000000000000000000000000000000000000000800000000000800000000000000000400000000000000000000800000000000000000800000000000000000000000020000000000000000000000000000000000000000000000000000000000000000000",
      "type": "0x2",
      "transactionHash": "0x371e8082459abbc4169043d100f30d6af7b5a002ab1e5336833cca2fd160cad3",
      "transactionIndex": "0x34",
      "blockHash": "0x1d3efeb3e8a595a6a319e60e7b81200861338cf93c02aa5137c2ae0295ca6e12",
      "blockNumber": "0x9612b6",
      "gasUsed": "0x2348d",
      "effectiveGasPrice": "0x1455ed",
      "from": "0x26154579219a6f1238c3b30d78c7a58fd2eb3482",
      "to": "0xa9d94123f5fe345c4367bd577fce09cd25db9348",
      "contractAddress": null
    },
    {
      "status": "0x1",
      "cumulativeGasUsed": "0xb9d45d",
      "logs": [
        {
          "address": "0xa9d94123f5fe345c4367bd577fce09cd25db9348",
          "topics": [
            "0x6e82d7c795d00fd9b64700b7c138eba363449f2b06f7cb91747c656c626c4759",
            "0x0000000000000000000000000000000000000000000000000000000000000004"
          ],
          "data": "0x0000000000000000000000000000000000000000000000000000000000000004",
          "blockHash": "0x1d3efeb3e8a595a6a319e60e7b81200861338cf93c02aa5137c2ae0295ca6e12",
          "blockNumber": "0x9612b6",
          "blockTimestamp": "0x693e09a0",
          "transactionHash": "0x92fa36b921eb09aee6b0782279b2ab356b87a3377721599fe3a90d809c2cb1ba",
          "transactionIndex": "0x35",
          "logIndex": "0x155",
          "removed": false
        }
      ],
      "logsBloom": "0x00000000000000000000000000000000000000000000000000000000000020000000000000000000000000000000000000000000000000000000000000000000000000000000000000000000000000000000000000000000000000000000000008000000000000000000000000000000000000000000000000000000000000000000000000000000000000000000000000000000000000000000008000000000000000000000000000000000000000800000000000000000002000000000000000000000000000000800000000000000000800008000000000000000000020000000000000000000000000000000000000000000000000000000000000000000",
      "type": "0x2",
      "transactionHash": "0x92fa36b921eb09aee6b0782279b2ab356b87a3377721599fe3a90d809c2cb1ba",
      "transactionIndex": "0x35",
      "blockHash": "0x1d3efeb3e8a595a6a319e60e7b81200861338cf93c02aa5137c2ae0295ca6e12",
      "blockNumber": "0x9612b6",
      "gasUsed": "0x12a65",
      "effectiveGasPrice": "0x1455ed",
      "from": "0x26154579219a6f1238c3b30d78c7a58fd2eb3482",
      "to": "0xa9d94123f5fe345c4367bd577fce09cd25db9348",
      "contractAddress": null
    }
  ],
  "libraries": [],
  "pending": [],
  "returns": {},
  "timestamp": 1765673376294,
  "chain": 11155111,
  "commit": "24e9802"
}