{
  "transactions": [
    {
      "hash": "0xe561a7abd2f6ce6559244c6122b2fe8b3fb3a23b7324b9ba98081d92414f8838",
      "transactionType": "CALL",
      "contractName": null,
      "contractAddress": "0x71dbd1cdfecd7cb918c312f36ef007d59a237ac7",
      "function": "configurePackType(uint8,uint256,uint8,uint8[])",
      "arguments": [
        "0",
        "1000000000000000",
        "3",
        "[70, 20, 8, 2, 0]"
      ],
      "transaction": {
        "from": "0x26154579219a6f1238c3b30d78c7a58fd2eb3482",
        "to": "0x71dbd1cdfecd7cb918c312f36ef007d59a237ac7",
        "gas": "0x2e6bb",
        "value": "0x0",
        "input": "0x0ffbd9e4000000000000000000000000000000000000000000000000000000000000000000000000000000000000000000000000000000000000000000038d7ea4c6800000000000000000000000000000000000000000000000000000000000000000030000000000000000000000000000000000000000000000000000000000000080000000000000000000000000000000000000000000000000000000000000000500000000000000000000000000000000000000000000000000000000000000460000000000000000000000000000000000000000000000000000000000000014000000000000000000000000000000000000000000000000000000000000000800000000000000000000000000000000000000000000000000000000000000020000000000000000000000000000000000000000000000000000000000000000",
        "nonce": "0x10f",
        "chainId": "0xaa36a7"
      },
      "additionalContracts": [],
      "isFixedGasLimit": false
    },
    {
      "hash": "0x361c234781798b7ef283e45cf08f255d79633ac9fa09c4de70d8ebb1204e6bcc",
      "transactionType": "CALL",
      "contractName": null,
      "contractAddress": "0x71dbd1cdfecd7cb918c312f36ef007d59a237ac7",
      "function": "configurePackType(uint8,uint256,uint8,uint8[])",
      "arguments": [
        "1",
        "5000000000000000",
        "5",
        "[50, 30, 15, 4, 1]"
      ],
      "transaction": {
        "from": "0x26154579219a6f1238c3b30d78c7a58fd2eb3482",
        "to": "0x71dbd1cdfecd7cb918c312f36ef007d59a237ac7",
        "gas": "0x2e6de",
        "value": "0x0",
        "input": "0x0ffbd9e400000000000000000000000000000000000000000000000000000000000000010000000000000000000000000000000000000000000000000011c37937e080000000000000000000000000000000000000000000000000000000000000000005000000000000000000000000000000000000000000000000000000000000008000000000000000000000000000000000000000000000000000000000000000050000000000000000000000000000000000000000000000000000000000000032000000000000000000000000000000000000000000000000000000000000001e000000000000000000000000000000000000000000000000000000000000000f00000000000000000000000000000000000000000000000000000000000000040000000000000000000000000000000000000000000000000000000000000001",
        "nonce": "0x110",
        "chainId": "0xaa36a7"
      },
      "additionalContracts": [],
      "isFixedGasLimit": false
    },
    {
      "hash": "0x04044fc365f600a1d0be6d2fd3a33b78a4a62c8e87dae09584a51a128262fc89",
      "transactionType": "CALL",
      "contractName": null,
      "contractAddress": "0x71dbd1cdfecd7cb918c312f36ef007d59a237ac7",
      "function": "configurePackType(uint8,uint256,uint8,uint8[])",
      "arguments": [
        "2",
        "10000000000000000",
        "5",
        "[40, 30, 20, 8, 2]"
      ],
      "transaction": {
        "from": "0x26154579219a6f1238c3b30d78c7a58fd2eb3482",
        "to": "0x71dbd1cdfecd7cb918c312f36ef007d59a237ac7",
        "gas": "0x2bd88",
        "value": "0x0",
        "input": "0x0ffbd9e40000000000000000000000000000000000000000000000000000000000000002000000000000000000000000000000000000000000000000002386f26fc100000000000000000000000000000000000000000000000000000000000000000005000000000000000000000000000000000000000000000000000000000000008000000000000000000000000000000000000000000000000000000000000000050000000000000000000000000000000000000000000000000000000000000028000000000000000000000000000000000000000000000000000000000000001e000000000000000000000000000000000000000000000000000000000000001400000000000000000000000000000000000000000000000000000000000000080000000000000000000000000000000000000000000000000000000000000002",
        "nonce": "0x111",
        "chainId": "0xaa36a7"
      },
      "additionalContracts": [],
      "isFixedGasLimit": false
    },
    {
      "hash": "0xd45b97e7743748f0b18bd585f3dcde7ac13bf785150b850c908b7f6914be9472",
      "transactionType": "CALL",
      "contractName": null,
      "contractAddress": "0x71dbd1cdfecd7cb918c312f36ef007d59a237ac7",
      "function": "addPlayersToPool(uint8,uint256[])",
      "arguments": [
        "0",
        "[1, 2, 3, 4, 5, 6, 7, 8, 9, 10, 11, 12, 13, 14, 15, 16, 17, 18, 19, 20]"
      ],
      "transaction": {
        "from": "0x26154579219a6f1238c3b30d78c7a58fd2eb3482",
        "to": "0x71dbd1cdfecd7cb918c312f36ef007d59a237ac7",
        "gas": "0xa961f",
        "value": "0x0",
        "input": "0x12c6413d000000000000000000000000000000000000000000000000000000000000000000000000000000000000000000000000000000000000000000000000000000400000000000000000000000000000000000000000000000000000000000000014000000000000000000000000000000000000000000000000000000000000000100000000000000000000000000000000000000000000000000000000000000020000000000000000000000000000000000000000000000000000000000000003000000000000000000000000000000000000000000000000000000000000000400000000000000000000000000000000000000000000000000000000000000050000000000000000000000000000000000000000000000000000000000000006000000000000000000000000000000000000000000000000000000000000000700000000000000000000000000000000000000000000000000000000000000080000000000000000000000000000000000000000000000000000000000000009000000000000000000000000000000000000000000000000000000000000000a000000000000000000000000000000000000000000000000000000000000000b000000000000000000000000000000000000000000000000000000000000000c000000000000000000000000000000000000000000000000000000000000000d000000000000000000000000000000000000000000000000000000000000000e000000000000000000000000000000000000000000000000000000000000000f00000000000000000000000000000000000000000000000000000000000000100000000000000000000000000000000000000000000000000000000000000011000000000000000000000000000000000000000000000000000000000000001200000000000000000000000000000000000000000000000000000000000000130000000000000000000000000000000000000000000000000000000000000014",
        "nonce": "0x112",
        "chainId": "0xaa36a7"
      },
      "additionalContracts": [],
      "isFixedGasLimit": false
    },
    {
      "hash": "0x316d15c1bea6b094dc899551e974cdb12234fe43678cca2d39ace14316da8dd2",
      "transactionType": "CALL",
      "contractName": null,
      "contractAddress": "0x71dbd1cdfecd7cb918c312f36ef007d59a237ac7",
      "function": "addPlayersToPool(uint8,uint256[])",
      "arguments": [
        "1",
        "[21, 22, 23, 24, 25, 26, 27, 28, 29, 30, 31, 32, 33, 34, 35]"
      ],
      "transaction": {
        "from": "0x26154579219a6f1238c3b30d78c7a58fd2eb3482",
        "to": "0x71dbd1cdfecd7cb918c312f36ef007d59a237ac7",
        "gas": "0x8acdb",
        "value": "0x0",
        "input": "0x12c6413d00000000000000000000000000000000000000000000000000000000000000010000000000000000000000000000000000000000000000000000000000000040000000000000000000000000000000000000000000000000000000000000000f00000000000000000000000000000000000000000000000000000000000000150000000000000000000000000000000000000000000000000000000000000016000000000000000000000000000000000000000000000000000000000000001700000000000000000000000000000000000000000000000000000000000000180000000000000000000000000000000000000000000000000000000000000019000000000000000000000000000000000000000000000000000000000000001a000000000000000000000000000000000000000000000000000000000000001b000000000000000000000000000000000000000000000000000000000000001c000000000000000000000000000000000000000000000000000000000000001d000000000000000000000000000000000000000000000000000000000000001e000000000000000000000000000000000000000000000000000000000000001f0000000000000000000000000000000000000000000000000000000000000020000000000000000000000000000000000000000000000000000000000000002100000000000000000000000000000000000000000000000000000000000000220000000000000000000000000000000000000000000000000000000000000023",
        "nonce": "0x113",
        "chainId": "0xaa36a7"
      },
      "additionalContracts": [],
      "isFixedGasLimit": false
    },
    {
      "hash": "0xfb02d68e8e0e2ce5b15b5afbc52868078c11658aaa540fa3964f3f964b87468d",
      "transactionType": "CALL",
      "contractName": null,
      "contractAddress": "0x71dbd1cdfecd7cb918c312f36ef007d59a237ac7",
      "function": "addPlayersToPool(uint8,uint256[])",
      "arguments": [
        "2",
        "[36, 37, 38, 39, 40, 41, 42, 43, 44, 45]"
      ],
      "transaction": {
        "from": "0x26154579219a6f1238c3b30d78c7a58fd2eb3482",
        "to": "0x71dbd1cdfecd7cb918c312f36ef007d59a237ac7",
        "gas": "0x62419",
        "value": "0x0",
        "input": "0x12c6413d00000000000000000000000000000000000000000000000000000000000000020000000000000000000000000000000000000000000000000000000000000040000000000000000000000000000000000000000000000000000000000000000a000000000000000000000000000000000000000000000000000000000000002400000000000000000000000000000000000000000000000000000000000000250000000000000000000000000000000000000000000000000000000000000026000000000000000000000000000000000000000000000000000000000000002700000000000000000000000000000000000000000000000000000000000000280000000000000000000000000000000000000000000000000000000000000029000000000000000000000000000000000000000000000000000000000000002a000000000000000000000000000000000000000000000000000000000000002b000000000000000000000000000000000000000000000000000000000000002c000000000000000000000000000000000000000000000000000000000000002d",
        "nonce": "0x114",
        "chainId": "0xaa36a7"
      },
      "additionalContracts": [],
      "isFixedGasLimit": false
    },
    {
      "hash": "0xd473f1ff5d25c85c3620ff65ddf7af8c3a6a1e3a2e8604b7810a9d560923ed56",
      "transactionType": "CALL",
      "contractName": null,
      "contractAddress": "0x71dbd1cdfecd7cb918c312f36ef007d59a237ac7",
      "function": "addPlayersToPool(uint8,uint256[])",
      "arguments": [
        "3",
        "[46, 47, 48, 49, 50]"
      ],
      "transaction": {
        "from": "0x26154579219a6f1238c3b30d78c7a58fd2eb3482",
        "to": "0x71dbd1cdfecd7cb918c312f36ef007d59a237ac7",
        "gas": "0x39b58",
        "value": "0x0",
        "input": "0x12c6413d000000000000000000000000000000000000000000000000000000000000000300000000000000000000000000000000000000000000000000000000000000400000000000000000000000000000000000000000000000000000000000000005000000000000000000000000000000000000000000000000000000000000002e000000000000000000000000000000000000000000000000000000000000002f000000000000000000000000000000000000000000000000000000000000003000000000000000000000000000000000000000000000000000000000000000310000000000000000000000000000000000000000000000000000000000000032",
        "nonce": "0x115",
        "chainId": "0xaa36a7"
      },
      "additionalContracts": [],
      "isFixedGasLimit": false
    },
    {
      "hash": "0x7b5cf1dd08d6f58c66c3f16f663a0011bbcc24828ba42b620afe06d397054b49",
      "transactionType": "CALL",
      "contractName": null,
      "contractAddress": "0x71dbd1cdfecd7cb918c312f36ef007d59a237ac7",
      "function": "addPlayersToPool(uint8,uint256[])",
      "arguments": [
        "4",
        "[51, 52]"
      ],
      "transaction": {
        "from": "0x26154579219a6f1238c3b30d78c7a58fd2eb3482",
        "to": "0x71dbd1cdfecd7cb918c312f36ef007d59a237ac7",
        "gas": "0x21617",
        "value": "0x0",
        "input": "0x12c6413d00000000000000000000000000000000000000000000000000000000000000040000000000000000000000000000000000000000000000000000000000000040000000000000000000000000000000000000000000000000000000000000000200000000000000000000000000000000000000000000000000000000000000330000000000000000000000000000000000000000000000000000000000000034",
        "nonce": "0x116",
        "chainId": "0xaa36a7"
      },
      "additionalContracts": [],
      "isFixedGasLimit": false
    }
  ],
  "receipts": [
    {
      "status": "0x1",
      "cumulativeGasUsed": "0x57abef",
      "logs": [
        {
          "address": "0x71dbd1cdfecd7cb918c312f36ef007d59a237ac7",
          "topics": [
            "0x286b0085c46d7108cc7031149112e275872b38da3414f74d22f8a7a2e547027b",
            "0x0000000000000000000000000000000000000000000000000000000000000000"
          ],
          "data": "0x00000000000000000000000000000000000000000000000000038d7ea4c680000000000000000000000000000000000000000000000000000000000000000003",
          "blockHash": "0x281c723f57c881c71c68f2351ff558e1a886636390d7d9d28d6e08e2a236ec6b",
          "blockNumber": "0x98631a",
          "blockTimestamp": "0x695c4f3c",
          "transactionHash": "0xe561a7abd2f6ce6559244c6122b2fe8b3fb3a23b7324b9ba98081d92414f8838",
          "transactionIndex": "0x6b",
          "logIndex": "0x2f",
          "removed": false
        }
      ],
      "logsBloom": "0x00000000000000000000000000000000000000000000000000000000000000000000000000000000000000000000000000000000000000000000000000000000000000000000000000000000000000000000000000000000000000000000000000000100020000000000000000000800000000000000000000000000000000000000000000000000000000000000000000000000000000400000000000000000000000000000000000800000000000000000000000000000000000000000000200000000000000000000000000000000000000000000000000000000000021000000000800000000000000000000000000000000000000000000000000000000",
      "type": "0x2",
      "transactionHash": "0xe561a7abd2f6ce6559244c6122b2fe8b3fb3a23b7324b9ba98081d92414f8838",
      "transactionIndex": "0x6b",
      "blockHash": "0x281c723f57c881c71c68f2351ff558e1a886636390d7d9d28d6e08e2a236ec6b",
      "blockNumber": "0x98631a",
      "gasUsed": "0x1fbda",
      "effectiveGasPrice": "0xa531f",
      "from": "0x26154579219a6f1238c3b30d78c7a58fd2eb3482",
      "to": "0x71dbd1cdfecd7cb918c312f36ef007d59a237ac7",
      "contractAddress": null
    },
    {
      "status": "0x1",
      "cumulativeGasUsed": "0x59a7e1",
      "logs": [
        {
          "address": "0x71dbd1cdfecd7cb918c312f36ef007d59a237ac7",
          "topics": [
            "0x286b0085c46d7108cc7031149112e275872b38da3414f74d22f8a7a2e547027b",
            "0x0000000000000000000000000000000000000000000000000000000000000001"
          ],
          "data": "0x0000000000000000000000000000000000000000000000000011c37937e080000000000000000000000000000000000000000000000000000000000000000005",
          "blockHash": "0x281c723f57c881c71c68f2351ff558e1a886636390d7d9d28d6e08e2a236ec6b",
          "blockNumber": "0x98631a",
          "blockTimestamp": "0x695c4f3c",
          "transactionHash": "0xd45b97e7743748f0b18bd585f3dcde7ac13bf785150b850c908b7f6914be9472",
          "transactionIndex": "0x6c",
          "logIndex": "0x30",
          "removed": false
        }
      ],
      "logsBloom": "0x00000000000000000000000000000000000000000000000000000000000000000000000000000000000000000000000000000000000000000000000000040000000000000000000000000000000000000000000000040000000000000000000000000100000000000000000000000000000000000000000000000000000000000000000000000000000000000000000000000000000000400000000000000000000000000000000000800000000000000000000000000000000000000000000200000000000000000000000000000000000000000000000000000000000041000000000800000000000000000000000000000000000000000000000000000000",
      "type": "0x2",
      "transactionHash": "0xd45b97e7743748f0b18bd585f3dcde7ac13bf785150b850c908b7f6914be9472",
      "transactionIndex": "0x6c",
      "blockHash": "0x281c723f57c881c71c68f2351ff558e1a886636390d7d9d28d6e08e2a236ec6b",
      "blockNumber": "0x98631a",
      "gasUsed": "0x1fbf2",
      "effectiveGasPrice": "0xa531f",
      "from": "0x26154579219a6f1238c3b30d78c7a58fd2eb3482",
      "to": "0x71dbd1cdfecd7cb918c312f36ef007d59a237ac7",
      "contractAddress": null
    },
    {
      "status": "0x1",
      "cumulativeGasUsed": "0x5ba3c7",
      "logs": [
        {
          "address": "0x71dbd1cdfecd7cb918c312f36ef007d59a237ac7",
          "topics": [
            "0x286b0085c46d7108cc7031149112e275872b38da3414f74d22f8a7a2e547027b",
            "0x0000000000000000000000000000000000000000000000000000000000000002"
          ],
          "data": "0x000000000000000000000000000000000000000000000000002386f26fc100000000000000000000000000000000000000000000000000000000000000000005",
          "blockHash": "0x281c723f57c881c71c68f2351ff558e1a886636390d7d9d28d6e08e2a236ec6b",
          "blockNumber": "0x98631a",
          "blockTimestamp": "0x695c4f3c",
          "transactionHash": "0xd473f1ff5d25c85c3620ff65ddf7af8c3a6a1e3a2e8604b7810a9d560923ed56",
          "transactionIndex": "0x6d",
          "logIndex": "0x31",
          "removed": false
        }
      ],
      "logsBloom": "0x04000000000000000000000000000000000000000000000000000000000000000000000000000000000000000000000000000000000000000000000000000000000000000000000000000000000000000000000000000000000000000000000000000100000000000000000000000000000000000000000000000000000000000000000000000000000000000000000000000000000000400000000000000000000000000000000000800100000000000000000000000000000000000000000200000000000000000000000000000000000000000000000000000000000001000000000800000000000000000000000000000000008000000000000000000000",
      "type": "0x2",
      "transactionHash": "0xd473f1ff5d25c85c3620ff65ddf7af8c3a6a1e3a2e8604b7810a9d560923ed56",
      "transactionIndex": "0x6d",
      "blockHash": "0x281c723f57c881c71c68f2351ff558e1a886636390d7d9d28d6e08e2a236ec6b",
      "blockNumber": "0x98631a",
      "gasUsed": "0x1fbe6",
      "effectiveGasPrice": "0xa531f",
      "from": "0x26154579219a6f1238c3b30d78c7a58fd2eb3482",
      "to": "0x71dbd1cdfecd7cb918c312f36ef007d59a237ac7",
      "contractAddress": null
    },
    {
      "status": "0x1",
      "cumulativeGasUsed": "0x634ddc",
      "logs": [
        {
          "address": "0x71dbd1cdfecd7cb918c312f36ef007d59a237ac7",
          "topics": [
            "0x6e82d7c795d00fd9b64700b7c138eba363449f2b06f7cb91747c656c626c4759",
            "0x0000000000000000000000000000000000000000000000000000000000000000"
          ],
          "data": "0x0000000000000000000000000000000000000000000000000000000000000014",
          "blockHash": "0x281c723f57c881c71c68f2351ff558e1a886636390d7d9d28d6e08e2a236ec6b",
          "blockNumber": "0x98631a",
          "blockTimestamp": "0x695c4f3c",
          "transactionHash": "0xfb02d68e8e0e2ce5b15b5afbc52868078c11658aaa540fa3964f3f964b87468d",
          "transactionIndex": "0x6e",
          "logIndex": "0x32",
          "removed": false
        }
      ],
      "logsBloom": "0x00000000000000000000000000000000000000000000000000000000000020000000000000000000000000000000000000000000000000000000000000000000000000000000000000000000000000000000000000000000000000000000000000000100020000000000000000000800000000000000000000000000000000000000000000000000000000000000000000000000000000400000008000000000000000000000000000000000000000800000000000000000000000000000000200000000000000000000000000000000000000000000000000000000000020000000000000000000000000000000000000000000000000000000000000000000",
      "type": "0x2",
      "transactionHash": "0xfb02d68e8e0e2ce5b15b5afbc52868078c11658aaa540fa3964f3f964b87468d",
      "transactionIndex": "0x6e",
      "blockHash": "0x281c723f57c881c71c68f2351ff558e1a886636390d7d9d28d6e08e2a236ec6b",
      "blockNumber": "0x98631a",
      "gasUsed": "0x7aa15",
      "effectiveGasPrice": "0xa531f",
      "from": "0x26154579219a6f1238c3b30d78c7a58fd2eb3482",
      "to": "0x71dbd1cdfecd7cb918c312f36ef007d59a237ac7",
      "contractAddress": null
    },
    {
      "status": "0x1",
      "cumulativeGasUsed": "0x693c65",
      "logs": [
        {
          "address": "0x71dbd1cdfecd7cb918c312f36ef007d59a237ac7",
          "topics": [
            "0x6e82d7c795d00fd9b64700b7c138eba363449f2b06f7cb91747c656c626c4759",
            "0x0000000000000000000000000000000000000000000000000000000000000001"
          ],
          "data": "0x000000000000000000000000000000000000000000000000000000000000000f",
          "blockHash": "0x281c723f57c881c71c68f2351ff558e1a886636390d7d9d28d6e08e2a236ec6b",
          "blockNumber": "0x98631a",
          "blockTimestamp": "0x695c4f3c",
          "transactionHash": "0x316d15c1bea6b094dc899551e974cdb12234fe43678cca2d39ace14316da8dd2",
          "transactionIndex": "0x6f",
          "logIndex": "0x33",
          "removed": false
        }
      ],
      "logsBloom": "0x00000000000000000000000000000000000000000000000000000000000020000000000000000000000000000000000000000000000000000000000000040000000000000000000000000000000000000000000000040000000000000000000000000100000000000000000000000000000000000000000000000000000000000000000000000000000000000000000000000000000000400000008000000000000000000000000000000000000000800000000000000000000000000000000200000000000000000000000000000000000000000000000000000000000040000000000000000000000000000000000000000000000000000000000000000000",
      "type": "0x2",
      "transactionHash": "0x316d15c1bea6b094dc899551e974cdb12234fe43678cca2d39ace14316da8dd2",
      "transactionIndex": "0x6f",
      "blockHash": "0x281c723f57c881c71c68f2351ff558e1a886636390d7d9d28d6e08e2a236ec6b",
      "blockNumber": "0x98631a",
      "gasUsed": "0x5ee89",
      "effectiveGasPrice": "0xa531f",
      "from": "0x26154579219a6f1238c3b30d78c7a58fd2eb3482",
      "to": "0x71dbd1cdfecd7cb918c312f36ef007d59a237ac7",
      "contractAddress": null
    },
    {
      "status": "0x1",
      "cumulativeGasUsed": "0x6d6f56",
      "logs": [
        {
          "address": "0x71dbd1cdfecd7cb918c312f36ef007d59a237ac7",
          "topics": [
            "0x6e82d7c795d00fd9b64700b7c138eba363449f2b06f7cb91747c656c626c4759",
            "0x0000000000000000000000000000000000000000000000000000000000000002"
          ],
          "data": "0x000000000000000000000000000000000000000000000000000000000000000a",
          "blockHash": "0x281c723f57c881c71c68f2351ff558e1a886636390d7d9d28d6e08e2a236ec6b",
          "blockNumber": "0x98631a",
          "blockTimestamp": "0x695c4f3c",
          "transactionHash": "0x361c234781798b7ef283e45cf08f255d79633ac9fa09c4de70d8ebb1204e6bcc",
          "transactionIndex": "0x70",
          "logIndex": "0x34",
          "removed": false
        }
      ],
      "logsBloom": "0x04000000000000000000000000000000000000000000000000000000000020000000000000000000000000000000000000000000000000000000000000000000000000000000000000000000000000000000000000000000000000000000000000000100000000000000000000000000000000000000000000000000000000000000000000000000000000000000000000000000000000400000008000000000000000000000000000000100000000800000000000000000000000000000000200000000000000000000000000000000000000000000000000000000000000000000000000000000000000000000000000000000008000000000000000000000",
      "type": "0x2",
      "transactionHash": "0x361c234781798b7ef283e45cf08f255d79633ac9fa09c4de70d8ebb1204e6bcc",
      "transactionIndex": "0x70",
      "blockHash": "0x281c723f57c881c71c68f2351ff558e1a886636390d7d9d28d6e08e2a236ec6b",
      "blockNumber": "0x98631a",
      "gasUsed": "0x432f1",
      "effectiveGasPrice": "0xa531f",
      "from": "0x26154579219a6f1238c3b30d78c7a58fd2eb3482",
      "to": "0x71dbd1cdfecd7cb918c312f36ef007d59a237ac7",
      "contractAddress": null
    },
    {
      "status": "0x1",
      "cumulativeGasUsed": "0x6fe6af",
      "logs": [
        {
          "address": "0x71dbd1cdfecd7cb918c312f36ef007d59a237ac7",
          "topics": [
            "0x6e82d7c795d00fd9b64700b7c138eba363449f2b06f7cb91747c656c626c4759",
            "0x0000000000000000000000000000000000000000000000000000000000000003"
          ],
          "data": "0x0000000000000000000000000000000000000000000000000000000000000005",
          "blockHash": "0x281c723f57c881c71c68f2351ff558e1a886636390d7d9d28d6e08e2a236ec6b",
          "blockNumber": "0x98631a",
          "blockTimestamp": "0x695c4f3c",
          "transactionHash": "0x7b5cf1dd08d6f58c66c3f16f663a0011bbcc24828ba42b620afe06d397054b49",
          "transactionIndex": "0x71",
          "logIndex": "0x35",
          "removed": false
        }
      ],
      "logsBloom": "0x00000000000000000000000000000000000000000000000000000000000020000000000000000000000000000000000000000000020000000000000000000000000000000000000000000000000000000000000000000000000000000000000000000100000000000000000000000000000000000000000000000000000000000000000000000000000000000000000000000000000000400000008000000000000000000000000000000000000000800000000000800000000000000000400200000000000000000000000000000000000000000000000000000000000000000000000000000000000000000000000000000000000000000000000000000000",
      "type": "0x2",
      "transactionHash": "0x7b5cf1dd08d6f58c66c3f16f663a0011bbcc24828ba42b620afe06d397054b49",
      "transactionIndex": "0x71",
      "blockHash": "0x281c723f57c881c71c68f2351ff558e1a886636390d7d9d28d6e08e2a236ec6b",
      "blockNumber": "0x98631a",
      "gasUsed": "0x27759",
      "effectiveGasPrice": "0xa531f",
      "from": "0x26154579219a6f1238c3b30d78c7a58fd2eb3482",
      "to": "0x71dbd1cdfecd7cb918c312f36ef007d59a237ac7",
      "contractAddress": null
    },
    {
      "status": "0x1",
      "cumulativeGasUsed": "0x7153e0",
      "logs": [
        {
          "address": "0x71dbd1cdfecd7cb918c312f36ef007d59a237ac7",
          "topics": [
            "0x6e82d7c795d00fd9b64700b7c138eba363449f2b06f7cb91747c656c626c4759",
            "0x0000000000000000000000000000000000000000000000000000000000000004"
          ],
          "data": "0x0000000000000000000000000000000000000000000000000000000000000002",
          "blockHash": "0x281c723f57c881c71c68f2351ff558e1a886636390d7d9d28d6e08e2a236ec6b",
          "blockNumber": "0x98631a",
          "blockTimestamp": "0x695c4f3c",
          "transactionHash": "0x04044fc365f600a1d0be6d2fd3a33b78a4a62c8e87dae09584a51a128262fc89",
          "transactionIndex": "0x72",
          "logIndex": "0x36",
          "removed": false
        }
      ],
      "logsBloom": "0x00000000000000000000000000000000000000000000000000000000000020000000000000000000000000000000000000000000000000000000000000000000000000000000000000000000000000000000000000000000000000000000000008000100000000000000000000000000000000000000000000000000000000000000000000000000000000000000000000000000000000400000008000000000000000000000000000000000000000800000000000000000002000000000000200000000000000000000000000000000000000008000000000000000000000000000000000000000000000000000000000000000000000000000000000000000",
      "type": "0x2",
      "transactionHash": "0x04044fc365f600a1d0be6d2fd3a33b78a4a62c8e87dae09584a51a128262fc89",
      "transactionIndex": "0x72",
      "blockHash": "0x281c723f57c881c71c68f2351ff558e1a886636390d7d9d28d6e08e2a236ec6b",
      "blockNumber": "0x98631a",
      "gasUsed": "0x16d31",
      "effectiveGasPrice": "0xa531f",
      "from": "0x26154579219a6f1238c3b30d78c7a58fd2eb3482",
      "to": "0x71dbd1cdfecd7cb918c312f36ef007d59a237ac7",
      "contractAddress": null
    }
  ],
  "libraries": [],
  "pending": [],
  "returns": {},
  "timestamp": 1767657276784,
  "chain": 11155111,
  "commit": "ad2c4d6"
}