{
  "transactions": [
    {
      "hash": "0x6d572d053ea88cff183f166251e112b517db05ef0ad4c3a6f36092d5cf4be099",
      "transactionType": "CALL",
      "contractName": null,
      "contractAddress": "0x39c7a11a1e4370196ea95f6dd0e583a8dd1e6c0e",
      "function": "setMaxCardsPerRarity(uint8,uint256)",
      "arguments": [
        "0",
        "1000"
      ],
      "transaction": {
        "from": "0x26154579219a6f1238c3b30d78c7a58fd2eb3482",
        "to": "0x39c7a11a1e4370196ea95f6dd0e583a8dd1e6c0e",
        "gas": "0x1109f",
        "value": "0x0",
        "input": "0x7fd5a512000000000000000000000000000000000000000000000000000000000000000000000000000000000000000000000000000000000000000000000000000003e8",
        "nonce": "0x99",
        "chainId": "0xaa36a7"
      },
      "additionalContracts": [],
      "isFixedGasLimit": false
    },
    {
      "hash": "0xc171ba008fc64f3e4693d3d02621853993b501e95b603dc6a5e3430e47d53c60",
      "transactionType": "CALL",
      "contractName": null,
      "contractAddress": "0x39c7a11a1e4370196ea95f6dd0e583a8dd1e6c0e",
      "function": "setMaxCardsPerRarity(uint8,uint256)",
      "arguments": [
        "1",
        "500"
      ],
      "transaction": {
        "from": "0x26154579219a6f1238c3b30d78c7a58fd2eb3482",
        "to": "0x39c7a11a1e4370196ea95f6dd0e583a8dd1e6c0e",
        "gas": "0x1018a",
        "value": "0x0",
        "input": "0x7fd5a512000000000000000000000000000000000000000000000000000000000000000100000000000000000000000000000000000000000000000000000000000001f4",
        "nonce": "0x9a",
        "chainId": "0xaa36a7"
      },
      "additionalContracts": [],
      "isFixedGasLimit": false
    },
    {
      "hash": "0x9d5ff06aa32f2da965f172322d9e0bbfa35e82ce67d1fb45c28c93d69517f00a",
      "transactionType": "CALL",
      "contractName": null,
      "contractAddress": "0x39c7a11a1e4370196ea95f6dd0e583a8dd1e6c0e",
      "function": "setMaxCardsPerRarity(uint8,uint256)",
      "arguments": [
        "2",
        "200"
      ],
      "transaction": {
        "from": "0x26154579219a6f1238c3b30d78c7a58fd2eb3482",
        "to": "0x39c7a11a1e4370196ea95f6dd0e583a8dd1e6c0e",
        "gas": "0x1109f",
        "value": "0x0",
        "input": "0x7fd5a512000000000000000000000000000000000000000000000000000000000000000200000000000000000000000000000000000000000000000000000000000000c8",
        "nonce": "0x9b",
        "chainId": "0xaa36a7"
      },
      "additionalContracts": [],
      "isFixedGasLimit": false
    },
    {
      "hash": "0x6c3ed161954d3eea998b437798bff30a4bff5b8b5e094565a97421beb2fdde36",
      "transactionType": "CALL",
      "contractName": null,
      "contractAddress": "0x39c7a11a1e4370196ea95f6dd0e583a8dd1e6c0e",
      "function": "setMaxCardsPerRarity(uint8,uint256)",
      "arguments": [
        "3",
        "50"
      ],
      "transaction": {
        "from": "0x26154579219a6f1238c3b30d78c7a58fd2eb3482",
        "to": "0x39c7a11a1e4370196ea95f6dd0e583a8dd1e6c0e",
        "gas": "0x1109f",
        "value": "0x0",
        "input": "0x7fd5a51200000000000000000000000000000000000000000000000000000000000000030000000000000000000000000000000000000000000000000000000000000032",
        "nonce": "0x9c",
        "chainId": "0xaa36a7"
      },
      "additionalContracts": [],
      "isFixedGasLimit": false
    },
    {
      "hash": "0x66126620e589b888ccbaf244325fca140888c2dced1bdc416564e0b57dc73b1a",
      "transactionType": "CALL",
      "contractName": null,
      "contractAddress": "0x39c7a11a1e4370196ea95f6dd0e583a8dd1e6c0e",
      "function": "setMaxCardsPerRarity(uint8,uint256)",
      "arguments": [
        "4",
        "10"
      ],
      "transaction": {
        "from": "0x26154579219a6f1238c3b30d78c7a58fd2eb3482",
        "to": "0x39c7a11a1e4370196ea95f6dd0e583a8dd1e6c0e",
        "gas": "0x1109f",
        "value": "0x0",
        "input": "0x7fd5a5120000000000000000000000000000000000000000000000000000000000000004000000000000000000000000000000000000000000000000000000000000000a",
        "nonce": "0x9d",
        "chainId": "0xaa36a7"
      },
      "additionalContracts": [],
      "isFixedGasLimit": false
    }
  ],
  "receipts": [
    {
      "status": "0x1",
      "cumulativeGasUsed": "0x1482179",
      "logs": [
        {
          "address": "0x39c7a11a1e4370196ea95f6dd0e583a8dd1e6c0e",
          "topics": [
            "0x639a1a27eba54e580fe02176ff0c240764406aded168c67a60ca7a46317d1e83",
            "0x0000000000000000000000000000000000000000000000000000000000000000"
          ],
          "data": "0x00000000000000000000000000000000000000000000000000000000000003e8",
          "blockHash": "0xdef156c2916d33844d645341dc00ba7a306fbac65948fd6460311ba8b4651dcb",
          "blockNumber": "0x962f95",
          "blockTimestamp": "0x693f6534",
          "transactionHash": "0x66126620e589b888ccbaf244325fca140888c2dced1bdc416564e0b57dc73b1a",
          "transactionIndex": "0x47",
          "logIndex": "0x31e",
          "removed": false
        }
      ],
      "logsBloom": "0x20001008000000000000000000000000000080000000000000000000000000000000000000000000000000000000000000000020000000000000000000000000000000000000000000000000000000000000000000000000000000000000000000000000020000000000000000000840000000000000000000000000000000000000000000000000000000000000000000000000000000000000000000000000000000000000000000000000000000000000000000000000000000000000000000000000000000000000000000000000000000000000000000000000000020000000000000000000000000000000000000000000000000000000000000000000",
      "type": "0x2",
      "transactionHash": "0x66126620e589b888ccbaf244325fca140888c2dced1bdc416564e0b57dc73b1a",
      "transactionIndex": "0x47",
      "blockHash": "0xdef156c2916d33844d645341dc00ba7a306fbac65948fd6460311ba8b4651dcb",
      "blockNumber": "0x962f95",
      "gasUsed": "0xba69",
      "effectiveGasPrice": "0x12d863",
      "from": "0x26154579219a6f1238c3b30d78c7a58fd2eb3482",
      "to": "0x39c7a11a1e4370196ea95f6dd0e583a8dd1e6c0e",
      "contractAddress": null
    },
    {
      "status": "0x1",
      "cumulativeGasUsed": "0x148dbee",
      "logs": [
        {
          "address": "0x39c7a11a1e4370196ea95f6dd0e583a8dd1e6c0e",
          "topics": [
            "0x639a1a27eba54e580fe02176ff0c240764406aded168c67a60ca7a46317d1e83",
            "0x0000000000000000000000000000000000000000000000000000000000000001"
          ],
          "data": "0x00000000000000000000000000000000000000000000000000000000000001f4",
          "blockHash": "0xdef156c2916d33844d645341dc00ba7a306fbac65948fd6460311ba8b4651dcb",
          "blockNumber": "0x962f95",
          "blockTimestamp": "0x693f6534",
          "transactionHash": "0x6c3ed161954d3eea998b437798bff30a4bff5b8b5e094565a97421beb2fdde36",
          "transactionIndex": "0x48",
          "logIndex": "0x31f",
          "removed": false
        }
      ],
      "logsBloom": "0x20001008000000000000000000000000000080000000000000000000000000000000000000000000000000000000000000000020000000000000000000040000000000000000000000000000000000000000000000040000000000000000000000000000000000000000000000000040000000000000000000000000000000000000000000000000000000000000000000000000000000000000000000000000000000000000000000000000000000000000000000000000000000000000000000000000000000000000000000000000000000000000000000000000000040000000000000000000000000000000000000000000000000000000000000000000",
      "type": "0x2",
      "transactionHash": "0x6c3ed161954d3eea998b437798bff30a4bff5b8b5e094565a97421beb2fdde36",
      "transactionIndex": "0x48",
      "blockHash": "0xdef156c2916d33844d645341dc00ba7a306fbac65948fd6460311ba8b4651dcb",
      "blockNumber": "0x962f95",
      "gasUsed": "0xba75",
      "effectiveGasPrice": "0x12d863",
      "from": "0x26154579219a6f1238c3b30d78c7a58fd2eb3482",
      "to": "0x39c7a11a1e4370196ea95f6dd0e583a8dd1e6c0e",
      "contractAddress": null
    },
    {
      "status": "0x1",
      "cumulativeGasUsed": "0x1499657",
      "logs": [
        {
          "address": "0x39c7a11a1e4370196ea95f6dd0e583a8dd1e6c0e",
          "topics": [
            "0x639a1a27eba54e580fe02176ff0c240764406aded168c67a60ca7a46317d1e83",
            "0x0000000000000000000000000000000000000000000000000000000000000002"
          ],
          "data": "0x00000000000000000000000000000000000000000000000000000000000000c8",
          "blockHash": "0xdef156c2916d33844d645341dc00ba7a306fbac65948fd6460311ba8b4651dcb",
          "blockNumber": "0x962f95",
          "blockTimestamp": "0x693f6534",
          "transactionHash": "0x6d572d053ea88cff183f166251e112b517db05ef0ad4c3a6f36092d5cf4be099",
          "transactionIndex": "0x49",
          "logIndex": "0x320",
          "removed": false
        }
      ],
      "logsBloom": "0x24001008000000000000000000000000000080000000000000000000000000000000000000000000000000000000000000000020000000000000000000000000000000000000000000000000000000000000000000000000000000000000000000000000000000000000000000000040000000000000000000000000000000000000000000000000000000000000000000000000000000000000000000000000000000000000000000000100000000000000000000000000000000000000000000000000000000000000000000000000000000000000000000000000000000000000000000000000000000000000000000000000008000000000000000000000",
      "type": "0x2",
      "transactionHash": "0x6d572d053ea88cff183f166251e112b517db05ef0ad4c3a6f36092d5cf4be099",
      "transactionIndex": "0x49",
      "blockHash": "0xdef156c2916d33844d645341dc00ba7a306fbac65948fd6460311ba8b4651dcb",
      "blockNumber": "0x962f95",
      "gasUsed": "0xba69",
      "effectiveGasPrice": "0x12d863",
      "from": "0x26154579219a6f1238c3b30d78c7a58fd2eb3482",
      "to": "0x39c7a11a1e4370196ea95f6dd0e583a8dd1e6c0e",
      "contractAddress": null
    },
    {
      "status": "0x1",
      "cumulativeGasUsed": "0x14a50c0",
      "logs": [
        {
          "address": "0x39c7a11a1e4370196ea95f6dd0e583a8dd1e6c0e",
          "topics": [
            "0x639a1a27eba54e580fe02176ff0c240764406aded168c67a60ca7a46317d1e83",
            "0x0000000000000000000000000000000000000000000000000000000000000003"
          ],
          "data": "0x0000000000000000000000000000000000000000000000000000000000000032",
          "blockHash": "0xdef156c2916d33844d645341dc00ba7a306fbac65948fd6460311ba8b4651dcb",
          "blockNumber": "0x962f95",
          "blockTimestamp": "0x693f6534",
          "transactionHash": "0x9d5ff06aa32f2da965f172322d9e0bbfa35e82ce67d1fb45c28c93d69517f00a",
          "transactionIndex": "0x4a",
          "logIndex": "0x321",
          "removed": false
        }
      ],
      "logsBloom": "0x20001008000000000000000000000000000080000000000000000000000000000000000000000000000000000000000000000020020000000000000000000000000000000000000000000000000000000000000000000000000000000000000000000000000000000000000000000040000000000000000000000000000000000000000000000000000000000000000000000000000000000000000000000000000000000000000000000000000000000000000000800000000000000000400000000000000000000000000000000000000000000000000000000000000000000000000000000000000000000000000000000000000000000000000000000000",
      "type": "0x2",
      "transactionHash": "0x9d5ff06aa32f2da965f172322d9e0bbfa35e82ce67d1fb45c28c93d69517f00a",
      "transactionIndex": "0x4a",
      "blockHash": "0xdef156c2916d33844d645341dc00ba7a306fbac65948fd6460311ba8b4651dcb",
      "blockNumber": "0x962f95",
      "gasUsed": "0xba69",
      "effectiveGasPrice": "0x12d863",
      "from": "0x26154579219a6f1238c3b30d78c7a58fd2eb3482",
      "to": "0x39c7a11a1e4370196ea95f6dd0e583a8dd1e6c0e",
      "contractAddress": null
    },
    {
      "status": "0x1",
      "cumulativeGasUsed": "0x14b0b29",
      "logs": [
        {
          "address": "0x39c7a11a1e4370196ea95f6dd0e583a8dd1e6c0e",
          "topics": [
            "0x639a1a27eba54e580fe02176ff0c240764406aded168c67a60ca7a46317d1e83",
            "0x0000000000000000000000000000000000000000000000000000000000000004"
          ],
          "data": "0x000000000000000000000000000000000000000000000000000000000000000a",
          "blockHash": "0xdef156c2916d33844d645341dc00ba7a306fbac65948fd6460311ba8b4651dcb",
          "blockNumber": "0x962f95",
          "blockTimestamp": "0x693f6534",
          "transactionHash": "0xc171ba008fc64f3e4693d3d02621853993b501e95b603dc6a5e3430e47d53c60",
          "transactionIndex": "0x4b",
          "logIndex": "0x322",
          "removed": false
        }
      ],
      "logsBloom": "0x20001008000000000000000000000000000080000000000000000000000000000000000000000000000000000000000000000020000000000000000000000000000000000000000000000000000000000000000000000000000000000000000008000000000000000000000000000040000000000000000000000000000000000000000000000000000000000000000000000000000000000000000000000000000000000000000000000000000000000000000000000000002000000000000000000000000000000000000000000000000000008000000000000000000000000000000000000000000000000000000000000000000000000000000000000000",
      "type": "0x2",
      "transactionHash": "0xc171ba008fc64f3e4693d3d02621853993b501e95b603dc6a5e3430e47d53c60",
      "transactionIndex": "0x4b",
      "blockHash": "0xdef156c2916d33844d645341dc00ba7a306fbac65948fd6460311ba8b4651dcb",
      "blockNumber": "0x962f95",
      "gasUsed": "0xba69",
      "effectiveGasPrice": "0x12d863",
      "from": "0x26154579219a6f1238c3b30d78c7a58fd2eb3482",
      "to": "0x39c7a11a1e4370196ea95f6dd0e583a8dd1e6c0e",
      "contractAddress": null
    }
  ],
  "libraries": [],
  "pending": [],
  "returns": {},
  "timestamp": 1765762357708,
  "chain": 11155111,
  "commit": "b20a8cc"
}